{
  "address": "0x841b9C77c04822Bf7C887831DC2B7fEC30B64DC7",
  "abi": [
    {
      "inputs": [
        {
          "internalType": "address",
          "name": "_swapRouter",
          "type": "address"
        },
        {
          "internalType": "address",
          "name": "_factory",
          "type": "address"
        },
        {
          "internalType": "address",
          "name": "_positions",
          "type": "address"
        },
        {
          "internalType": "address",
          "name": "_weth",
          "type": "address"
        },
        {
          "internalType": "string",
          "name": "name",
          "type": "string"
        },
        {
          "internalType": "string",
          "name": "symbol",
          "type": "string"
        },
        {
          "internalType": "address",
          "name": "endpoint",
          "type": "address"
        }
      ],
      "stateMutability": "nonpayable",
      "type": "constructor"
    },
    {
      "inputs": [
        {
          "internalType": "address",
          "name": "target",
          "type": "address"
        }
      ],
      "name": "AddressEmptyCode",
      "type": "error"
    },
    {
      "inputs": [
        {
          "internalType": "address",
          "name": "account",
          "type": "address"
        }
      ],
      "name": "AddressInsufficientBalance",
      "type": "error"
    },
    {
      "inputs": [],
      "name": "ECDSAInvalidSignature",
      "type": "error"
    },
    {
      "inputs": [
        {
          "internalType": "uint256",
          "name": "length",
          "type": "uint256"
        }
      ],
      "name": "ECDSAInvalidSignatureLength",
      "type": "error"
    },
    {
      "inputs": [
        {
          "internalType": "bytes32",
          "name": "s",
          "type": "bytes32"
        }
      ],
      "name": "ECDSAInvalidSignatureS",
      "type": "error"
    },
    {
      "inputs": [
        {
          "internalType": "address",
          "name": "spender",
          "type": "address"
        },
        {
          "internalType": "uint256",
          "name": "allowance",
          "type": "uint256"
        },
        {
          "internalType": "uint256",
          "name": "needed",
          "type": "uint256"
        }
      ],
      "name": "ERC20InsufficientAllowance",
      "type": "error"
    },
    {
      "inputs": [
        {
          "internalType": "address",
          "name": "sender",
          "type": "address"
        },
        {
          "internalType": "uint256",
          "name": "balance",
          "type": "uint256"
        },
        {
          "internalType": "uint256",
          "name": "needed",
          "type": "uint256"
        }
      ],
      "name": "ERC20InsufficientBalance",
      "type": "error"
    },
    {
      "inputs": [
        {
          "internalType": "address",
          "name": "approver",
          "type": "address"
        }
      ],
      "name": "ERC20InvalidApprover",
      "type": "error"
    },
    {
      "inputs": [
        {
          "internalType": "address",
          "name": "receiver",
          "type": "address"
        }
      ],
      "name": "ERC20InvalidReceiver",
      "type": "error"
    },
    {
      "inputs": [
        {
          "internalType": "address",
          "name": "sender",
          "type": "address"
        }
      ],
      "name": "ERC20InvalidSender",
      "type": "error"
    },
    {
      "inputs": [
        {
          "internalType": "address",
          "name": "spender",
          "type": "address"
        }
      ],
      "name": "ERC20InvalidSpender",
      "type": "error"
    },
    {
      "inputs": [
        {
          "internalType": "uint256",
          "name": "deadline",
          "type": "uint256"
        }
      ],
      "name": "ERC2612ExpiredSignature",
      "type": "error"
    },
    {
      "inputs": [
        {
          "internalType": "address",
          "name": "signer",
          "type": "address"
        },
        {
          "internalType": "address",
          "name": "owner",
          "type": "address"
        }
      ],
      "name": "ERC2612InvalidSigner",
      "type": "error"
    },
    {
      "inputs": [],
      "name": "EnforcedPause",
      "type": "error"
    },
    {
      "inputs": [
        {
          "internalType": "bytes32",
          "name": "key",
          "type": "bytes32"
        }
      ],
      "name": "EnumerableMapNonexistentKey",
      "type": "error"
    },
    {
      "inputs": [],
      "name": "ExpectedPause",
      "type": "error"
    },
    {
      "inputs": [],
      "name": "FailedInnerCall",
      "type": "error"
    },
    {
      "inputs": [
        {
          "internalType": "address",
          "name": "account",
          "type": "address"
        },
        {
          "internalType": "uint256",
          "name": "currentNonce",
          "type": "uint256"
        }
      ],
      "name": "InvalidAccountNonce",
      "type": "error"
    },
    {
      "inputs": [],
      "name": "InvalidDelegate",
      "type": "error"
    },
    {
      "inputs": [],
      "name": "InvalidEndpointCall",
      "type": "error"
    },
    {
      "inputs": [
        {
          "internalType": "uint16",
          "name": "optionType",
          "type": "uint16"
        }
      ],
      "name": "InvalidOptionType",
      "type": "error"
    },
    {
      "inputs": [],
      "name": "InvalidShortString",
      "type": "error"
    },
    {
      "inputs": [],
      "name": "LzTokenUnavailable",
      "type": "error"
    },
    {
      "inputs": [
        {
          "internalType": "uint32",
          "name": "eid",
          "type": "uint32"
        }
      ],
      "name": "NoPeer",
      "type": "error"
    },
    {
      "inputs": [
        {
          "internalType": "uint256",
          "name": "msgValue",
          "type": "uint256"
        }
      ],
      "name": "NotEnoughNative",
      "type": "error"
    },
    {
      "inputs": [
        {
          "internalType": "address",
          "name": "addr",
          "type": "address"
        }
      ],
      "name": "OnlyEndpoint",
      "type": "error"
    },
    {
      "inputs": [
        {
          "internalType": "uint32",
          "name": "eid",
          "type": "uint32"
        },
        {
          "internalType": "bytes32",
          "name": "sender",
          "type": "bytes32"
        }
      ],
      "name": "OnlyPeer",
      "type": "error"
    },
    {
      "inputs": [
        {
          "internalType": "address",
          "name": "owner",
          "type": "address"
        }
      ],
      "name": "OwnableInvalidOwner",
      "type": "error"
    },
    {
      "inputs": [
        {
          "internalType": "address",
          "name": "account",
          "type": "address"
        }
      ],
      "name": "OwnableUnauthorizedAccount",
      "type": "error"
    },
    {
      "inputs": [
        {
          "internalType": "uint256",
          "name": "x",
          "type": "uint256"
        },
        {
          "internalType": "uint256",
          "name": "y",
          "type": "uint256"
        }
      ],
      "name": "PRBMath_MulDiv18_Overflow",
      "type": "error"
    },
    {
      "inputs": [
        {
          "internalType": "uint256",
          "name": "x",
          "type": "uint256"
        },
        {
          "internalType": "uint256",
          "name": "y",
          "type": "uint256"
        },
        {
          "internalType": "uint256",
          "name": "denominator",
          "type": "uint256"
        }
      ],
      "name": "PRBMath_MulDiv_Overflow",
      "type": "error"
    },
    {
      "inputs": [
        {
          "internalType": "uint8",
          "name": "bits",
          "type": "uint8"
        },
        {
          "internalType": "uint256",
          "name": "value",
          "type": "uint256"
        }
      ],
      "name": "SafeCastOverflowedUintDowncast",
      "type": "error"
    },
    {
      "inputs": [
        {
          "internalType": "address",
          "name": "token",
          "type": "address"
        }
      ],
      "name": "SafeERC20FailedOperation",
      "type": "error"
    },
    {
      "inputs": [
        {
          "internalType": "string",
          "name": "str",
          "type": "string"
        }
      ],
      "name": "StringTooLong",
      "type": "error"
    },
    {
      "anonymous": false,
      "inputs": [
        {
          "indexed": true,
          "internalType": "address",
          "name": "owner",
          "type": "address"
        },
        {
          "indexed": true,
          "internalType": "address",
          "name": "spender",
          "type": "address"
        },
        {
          "indexed": false,
          "internalType": "uint256",
          "name": "value",
          "type": "uint256"
        }
      ],
      "name": "Approval",
      "type": "event"
    },
    {
      "anonymous": false,
      "inputs": [
        {
          "indexed": true,
          "internalType": "address",
          "name": "trader",
          "type": "address"
        },
        {
          "indexed": false,
          "internalType": "uint256",
          "name": "newSupply",
          "type": "uint256"
        },
        {
          "indexed": false,
          "internalType": "uint256",
          "name": "newBuyPrice",
          "type": "uint256"
        },
        {
          "indexed": false,
          "internalType": "uint256",
          "name": "amount",
          "type": "uint256"
        },
        {
          "indexed": false,
          "internalType": "uint256",
          "name": "ethAmount",
          "type": "uint256"
        }
      ],
      "name": "Buy",
      "type": "event"
    },
    {
      "anonymous": false,
      "inputs": [],
      "name": "EIP712DomainChanged",
      "type": "event"
    },
    {
      "anonymous": false,
      "inputs": [
        {
          "indexed": true,
          "internalType": "address",
          "name": "previousOwner",
          "type": "address"
        },
        {
          "indexed": true,
          "internalType": "address",
          "name": "newOwner",
          "type": "address"
        }
      ],
      "name": "OwnershipTransferred",
      "type": "event"
    },
    {
      "anonymous": false,
      "inputs": [
        {
          "indexed": false,
          "internalType": "address",
          "name": "account",
          "type": "address"
        }
      ],
      "name": "Paused",
      "type": "event"
    },
    {
      "anonymous": false,
      "inputs": [
        {
          "indexed": false,
          "internalType": "uint32",
          "name": "eid",
          "type": "uint32"
        },
        {
          "indexed": false,
          "internalType": "bytes32",
          "name": "peer",
          "type": "bytes32"
        }
      ],
      "name": "PeerSet",
      "type": "event"
    },
    {
      "anonymous": false,
      "inputs": [
        {
          "indexed": true,
          "internalType": "address",
          "name": "trader",
          "type": "address"
        },
        {
          "indexed": false,
          "internalType": "uint256",
          "name": "newSupply",
          "type": "uint256"
        },
        {
          "indexed": false,
          "internalType": "uint256",
          "name": "newBuyPrice",
          "type": "uint256"
        },
        {
          "indexed": false,
          "internalType": "uint256",
          "name": "amount",
          "type": "uint256"
        },
        {
          "indexed": false,
          "internalType": "uint256",
          "name": "ethAmount",
          "type": "uint256"
        }
      ],
      "name": "Sell",
      "type": "event"
    },
    {
      "anonymous": false,
      "inputs": [
        {
          "indexed": true,
          "internalType": "address",
          "name": "from",
          "type": "address"
        },
        {
          "indexed": true,
          "internalType": "address",
          "name": "to",
          "type": "address"
        },
        {
          "indexed": false,
          "internalType": "uint256",
          "name": "value",
          "type": "uint256"
        }
      ],
      "name": "Transfer",
      "type": "event"
    },
    {
      "anonymous": false,
      "inputs": [
        {
          "indexed": false,
          "internalType": "address",
          "name": "account",
          "type": "address"
        }
      ],
      "name": "Unpaused",
      "type": "event"
    },
    {
      "inputs": [],
      "name": "DOMAIN_SEPARATOR",
      "outputs": [
        {
          "internalType": "bytes32",
          "name": "",
          "type": "bytes32"
        }
      ],
      "stateMutability": "view",
      "type": "function"
    },
    {
      "inputs": [],
      "name": "K",
      "outputs": [
        {
          "internalType": "uint256",
          "name": "",
          "type": "uint256"
        }
      ],
      "stateMutability": "view",
      "type": "function"
    },
    {
      "inputs": [],
      "name": "LIQUIDITY_POOL_AMOUNT",
      "outputs": [
        {
          "internalType": "uint256",
          "name": "",
          "type": "uint256"
        }
      ],
      "stateMutability": "view",
      "type": "function"
    },
    {
      "inputs": [],
      "name": "LIQUIDITY_VALUE",
      "outputs": [
        {
          "internalType": "uint256",
          "name": "",
          "type": "uint256"
        }
      ],
      "stateMutability": "view",
      "type": "function"
    },
    {
      "inputs": [],
      "name": "TOTAL_SUPPLY",
      "outputs": [
        {
          "internalType": "uint256",
          "name": "",
          "type": "uint256"
        }
      ],
      "stateMutability": "view",
      "type": "function"
    },
    {
      "inputs": [],
      "name": "TRADEABLE_SUPPLY",
      "outputs": [
        {
          "internalType": "uint256",
          "name": "",
          "type": "uint256"
        }
      ],
      "stateMutability": "view",
      "type": "function"
    },
    {
      "inputs": [
        {
          "components": [
            {
              "internalType": "uint32",
              "name": "srcEid",
              "type": "uint32"
            },
            {
              "internalType": "bytes32",
              "name": "sender",
              "type": "bytes32"
            },
            {
              "internalType": "uint64",
              "name": "nonce",
              "type": "uint64"
            }
          ],
          "internalType": "struct Origin",
          "name": "origin",
          "type": "tuple"
        }
      ],
      "name": "allowInitializePath",
      "outputs": [
        {
          "internalType": "bool",
          "name": "",
          "type": "bool"
        }
      ],
      "stateMutability": "view",
      "type": "function"
    },
    {
      "inputs": [
        {
          "internalType": "address",
          "name": "owner",
          "type": "address"
        },
        {
          "internalType": "address",
          "name": "spender",
          "type": "address"
        }
      ],
      "name": "allowance",
      "outputs": [
        {
          "internalType": "uint256",
          "name": "",
          "type": "uint256"
        }
      ],
      "stateMutability": "view",
      "type": "function"
    },
    {
      "inputs": [
        {
          "internalType": "uint256",
          "name": "amount",
          "type": "uint256"
        }
      ],
      "name": "amountGreaterThanThreshold",
      "outputs": [
        {
          "internalType": "bool",
          "name": "",
          "type": "bool"
        }
      ],
      "stateMutability": "pure",
      "type": "function"
    },
    {
      "inputs": [
        {
          "internalType": "address",
          "name": "spender",
          "type": "address"
        },
        {
          "internalType": "uint256",
          "name": "value",
          "type": "uint256"
        }
      ],
      "name": "approve",
      "outputs": [
        {
          "internalType": "bool",
          "name": "",
          "type": "bool"
        }
      ],
      "stateMutability": "nonpayable",
      "type": "function"
    },
    {
      "inputs": [
        {
          "internalType": "address",
          "name": "account",
          "type": "address"
        }
      ],
      "name": "balanceOf",
      "outputs": [
        {
          "internalType": "uint256",
          "name": "",
          "type": "uint256"
        }
      ],
      "stateMutability": "view",
      "type": "function"
    },
    {
      "inputs": [
        {
          "internalType": "address",
          "name": "token",
          "type": "address"
        },
        {
          "internalType": "uint256",
          "name": "amount",
          "type": "uint256"
        }
      ],
      "name": "buildRewardsClaimMessage",
      "outputs": [
        {
          "internalType": "bytes",
          "name": "",
          "type": "bytes"
        }
      ],
      "stateMutability": "view",
      "type": "function"
    },
    {
      "inputs": [
        {
          "internalType": "uint256",
          "name": "amount",
          "type": "uint256"
        },
        {
          "internalType": "uint256",
          "name": "maxSlippage",
          "type": "uint256"
        }
      ],
      "name": "buy",
      "outputs": [],
      "stateMutability": "payable",
      "type": "function"
    },
    {
      "inputs": [],
      "name": "buyFeePercent",
      "outputs": [
        {
          "internalType": "uint256",
          "name": "",
          "type": "uint256"
        }
      ],
      "stateMutability": "view",
      "type": "function"
    },
    {
      "inputs": [],
      "name": "claimFees",
      "outputs": [],
      "stateMutability": "nonpayable",
      "type": "function"
    },
    {
      "inputs": [
        {
          "internalType": "address",
          "name": "token",
          "type": "address"
        },
        {
          "internalType": "uint128",
          "name": "executorGasLimit",
          "type": "uint128"
        }
      ],
      "name": "claimRewards",
      "outputs": [],
      "stateMutability": "payable",
      "type": "function"
    },
    {
      "inputs": [],
      "name": "creatorAmount",
      "outputs": [
        {
          "internalType": "uint256",
          "name": "",
          "type": "uint256"
        }
      ],
      "stateMutability": "view",
      "type": "function"
    },
    {
      "inputs": [],
      "name": "creatorFeePercent",
      "outputs": [
        {
          "internalType": "uint256",
          "name": "",
          "type": "uint256"
        }
      ],
      "stateMutability": "view",
      "type": "function"
    },
    {
      "inputs": [],
      "name": "decimals",
      "outputs": [
        {
          "internalType": "uint8",
          "name": "",
          "type": "uint8"
        }
      ],
      "stateMutability": "view",
      "type": "function"
    },
    {
      "inputs": [],
      "name": "eip712Domain",
      "outputs": [
        {
          "internalType": "bytes1",
          "name": "fields",
          "type": "bytes1"
        },
        {
          "internalType": "string",
          "name": "name",
          "type": "string"
        },
        {
          "internalType": "string",
          "name": "version",
          "type": "string"
        },
        {
          "internalType": "uint256",
          "name": "chainId",
          "type": "uint256"
        },
        {
          "internalType": "address",
          "name": "verifyingContract",
          "type": "address"
        },
        {
          "internalType": "bytes32",
          "name": "salt",
          "type": "bytes32"
        },
        {
          "internalType": "uint256[]",
          "name": "extensions",
          "type": "uint256[]"
        }
      ],
      "stateMutability": "view",
      "type": "function"
    },
    {
      "inputs": [],
      "name": "endpoint",
      "outputs": [
        {
          "internalType": "contract ILayerZeroEndpointV2",
          "name": "",
          "type": "address"
        }
      ],
      "stateMutability": "view",
      "type": "function"
    },
    {
      "inputs": [],
      "name": "fullFeeProfitPercent",
      "outputs": [
        {
          "internalType": "UD60x18",
          "name": "",
          "type": "uint256"
        }
      ],
      "stateMutability": "view",
      "type": "function"
    },
    {
      "inputs": [
        {
          "internalType": "uint256",
          "name": "eth",
          "type": "uint256"
        },
        {
          "internalType": "uint256",
          "name": "maxSlippage",
          "type": "uint256"
        }
      ],
      "name": "getAmountByETHBuy",
      "outputs": [
        {
          "internalType": "uint256",
          "name": "",
          "type": "uint256"
        }
      ],
      "stateMutability": "view",
      "type": "function"
    },
    {
      "inputs": [
        {
          "internalType": "uint256",
          "name": "eth",
          "type": "uint256"
        },
        {
          "internalType": "uint256",
          "name": "maxSlippage",
          "type": "uint256"
        }
      ],
      "name": "getAmountByETHSell",
      "outputs": [
        {
          "internalType": "uint256",
          "name": "",
          "type": "uint256"
        }
      ],
      "stateMutability": "view",
      "type": "function"
    },
    {
      "inputs": [
        {
          "internalType": "uint256",
          "name": "amount",
          "type": "uint256"
        }
      ],
      "name": "getBuyPrice",
      "outputs": [
        {
          "internalType": "uint256",
          "name": "",
          "type": "uint256"
        }
      ],
      "stateMutability": "view",
      "type": "function"
    },
    {
      "inputs": [
        {
          "internalType": "address",
          "name": "holder",
          "type": "address"
        }
      ],
      "name": "getCurveBalance",
      "outputs": [
        {
          "internalType": "uint256",
          "name": "",
          "type": "uint256"
        }
      ],
      "stateMutability": "view",
      "type": "function"
    },
    {
      "inputs": [],
      "name": "getCurveHolders",
      "outputs": [
        {
          "internalType": "address[]",
          "name": "",
          "type": "address[]"
        }
      ],
      "stateMutability": "view",
      "type": "function"
    },
    {
      "inputs": [],
      "name": "getCurveHoldersLength",
      "outputs": [
        {
          "internalType": "uint256",
          "name": "",
          "type": "uint256"
        }
      ],
      "stateMutability": "view",
      "type": "function"
    },
    {
      "inputs": [
        {
          "internalType": "address",
          "name": "token",
          "type": "address"
        }
      ],
      "name": "getReward",
      "outputs": [
        {
          "internalType": "uint256",
          "name": "",
          "type": "uint256"
        }
      ],
      "stateMutability": "view",
      "type": "function"
    },
    {
      "inputs": [
        {
          "internalType": "address",
          "name": "token",
          "type": "address"
        }
      ],
      "name": "getRewardDestination",
      "outputs": [
        {
          "internalType": "uint32",
          "name": "",
          "type": "uint32"
        }
      ],
      "stateMutability": "view",
      "type": "function"
    },
    {
      "inputs": [],
      "name": "getRewards",
      "outputs": [
        {
          "internalType": "address[]",
          "name": "",
          "type": "address[]"
        }
      ],
      "stateMutability": "view",
      "type": "function"
    },
    {
      "inputs": [
        {
          "internalType": "uint256",
          "name": "amount",
          "type": "uint256"
        }
      ],
      "name": "getSellPrice",
      "outputs": [
        {
          "internalType": "uint256",
          "name": "",
          "type": "uint256"
        }
      ],
      "stateMutability": "view",
      "type": "function"
    },
    {
      "inputs": [],
      "name": "getThreshold",
      "outputs": [
        {
          "internalType": "uint256",
          "name": "",
          "type": "uint256"
        }
      ],
      "stateMutability": "pure",
      "type": "function"
    },
    {
      "inputs": [],
      "name": "getTokensHeldInCurve",
      "outputs": [
        {
          "internalType": "uint256",
          "name": "",
          "type": "uint256"
        }
      ],
      "stateMutability": "view",
      "type": "function"
    },
    {
      "inputs": [],
      "name": "getVolume",
      "outputs": [
        {
          "internalType": "uint256",
          "name": "",
          "type": "uint256"
        }
      ],
      "stateMutability": "view",
      "type": "function"
    },
    {
      "inputs": [
        {
          "components": [
            {
              "internalType": "uint32",
              "name": "srcEid",
              "type": "uint32"
            },
            {
              "internalType": "bytes32",
              "name": "sender",
              "type": "bytes32"
            },
            {
              "internalType": "uint64",
              "name": "nonce",
              "type": "uint64"
            }
          ],
          "internalType": "struct Origin",
          "name": "",
          "type": "tuple"
        },
        {
          "internalType": "bytes",
          "name": "",
          "type": "bytes"
        },
        {
          "internalType": "address",
          "name": "_sender",
          "type": "address"
        }
      ],
      "name": "isComposeMsgSender",
      "outputs": [
        {
          "internalType": "bool",
          "name": "",
          "type": "bool"
        }
      ],
      "stateMutability": "view",
      "type": "function"
    },
    {
      "inputs": [
        {
          "components": [
            {
              "internalType": "uint32",
              "name": "srcEid",
              "type": "uint32"
            },
            {
              "internalType": "bytes32",
              "name": "sender",
              "type": "bytes32"
            },
            {
              "internalType": "uint64",
              "name": "nonce",
              "type": "uint64"
            }
          ],
          "internalType": "struct Origin",
          "name": "_origin",
          "type": "tuple"
        },
        {
          "internalType": "bytes32",
          "name": "_guid",
          "type": "bytes32"
        },
        {
          "internalType": "bytes",
          "name": "_message",
          "type": "bytes"
        },
        {
          "internalType": "address",
          "name": "_executor",
          "type": "address"
        },
        {
          "internalType": "bytes",
          "name": "_extraData",
          "type": "bytes"
        }
      ],
      "name": "lzReceive",
      "outputs": [],
      "stateMutability": "payable",
      "type": "function"
    },
    {
      "inputs": [],
      "name": "maxSellFeePercent",
      "outputs": [
        {
          "internalType": "UD60x18",
          "name": "",
          "type": "uint256"
        }
      ],
      "stateMutability": "view",
      "type": "function"
    },
    {
      "inputs": [],
      "name": "name",
      "outputs": [
        {
          "internalType": "string",
          "name": "",
          "type": "string"
        }
      ],
      "stateMutability": "view",
      "type": "function"
    },
    {
      "inputs": [
        {
          "internalType": "uint32",
          "name": "",
          "type": "uint32"
        },
        {
          "internalType": "bytes32",
          "name": "",
          "type": "bytes32"
        }
      ],
      "name": "nextNonce",
      "outputs": [
        {
          "internalType": "uint64",
          "name": "nonce",
          "type": "uint64"
        }
      ],
      "stateMutability": "view",
      "type": "function"
    },
    {
      "inputs": [],
      "name": "noFeeProfitPercent",
      "outputs": [
        {
          "internalType": "UD60x18",
          "name": "",
          "type": "uint256"
        }
      ],
      "stateMutability": "view",
      "type": "function"
    },
    {
      "inputs": [
        {
          "internalType": "address",
          "name": "owner",
          "type": "address"
        }
      ],
      "name": "nonces",
      "outputs": [
        {
          "internalType": "uint256",
          "name": "",
          "type": "uint256"
        }
      ],
      "stateMutability": "view",
      "type": "function"
    },
    {
      "inputs": [],
      "name": "oAppVersion",
      "outputs": [
        {
          "internalType": "uint64",
          "name": "senderVersion",
          "type": "uint64"
        },
        {
          "internalType": "uint64",
          "name": "receiverVersion",
          "type": "uint64"
        }
      ],
      "stateMutability": "pure",
      "type": "function"
    },
    {
      "inputs": [],
      "name": "owner",
      "outputs": [
        {
          "internalType": "address",
          "name": "",
          "type": "address"
        }
      ],
      "stateMutability": "view",
      "type": "function"
    },
    {
      "inputs": [],
      "name": "pause",
      "outputs": [],
      "stateMutability": "nonpayable",
      "type": "function"
    },
    {
      "inputs": [],
      "name": "paused",
      "outputs": [
        {
          "internalType": "bool",
          "name": "",
          "type": "bool"
        }
      ],
      "stateMutability": "view",
      "type": "function"
    },
    {
      "inputs": [
        {
          "internalType": "uint32",
          "name": "eid",
          "type": "uint32"
        }
      ],
      "name": "peers",
      "outputs": [
        {
          "internalType": "bytes32",
          "name": "peer",
          "type": "bytes32"
        }
      ],
      "stateMutability": "view",
      "type": "function"
    },
    {
      "inputs": [
        {
          "internalType": "address",
          "name": "owner",
          "type": "address"
        },
        {
          "internalType": "address",
          "name": "spender",
          "type": "address"
        },
        {
          "internalType": "uint256",
          "name": "value",
          "type": "uint256"
        },
        {
          "internalType": "uint256",
          "name": "deadline",
          "type": "uint256"
        },
        {
          "internalType": "uint8",
          "name": "v",
          "type": "uint8"
        },
        {
          "internalType": "bytes32",
          "name": "r",
          "type": "bytes32"
        },
        {
          "internalType": "bytes32",
          "name": "s",
          "type": "bytes32"
        }
      ],
      "name": "permit",
      "outputs": [],
      "stateMutability": "nonpayable",
      "type": "function"
    },
    {
      "inputs": [],
      "name": "poolFee",
      "outputs": [
        {
          "internalType": "uint24",
          "name": "",
          "type": "uint24"
        }
      ],
      "stateMutability": "view",
      "type": "function"
    },
    {
      "inputs": [],
      "name": "protocol",
      "outputs": [
        {
          "internalType": "address payable",
          "name": "",
          "type": "address"
        }
      ],
      "stateMutability": "view",
      "type": "function"
    },
    {
      "inputs": [],
      "name": "protocolFeePercent",
      "outputs": [
        {
          "internalType": "uint256",
          "name": "",
          "type": "uint256"
        }
      ],
      "stateMutability": "view",
      "type": "function"
    },
    {
      "inputs": [
        {
          "internalType": "address",
          "name": "",
          "type": "address"
        }
      ],
      "name": "purchaseRecords",
      "outputs": [
        {
          "internalType": "UD60x18",
          "name": "totalInvested",
          "type": "uint256"
        },
        {
          "internalType": "UD60x18",
          "name": "totalTokensPurchased",
          "type": "uint256"
        }
      ],
      "stateMutability": "view",
      "type": "function"
    },
    {
      "inputs": [
        {
          "internalType": "address",
          "name": "token",
          "type": "address"
        },
        {
          "internalType": "uint128",
          "name": "executorGasLimit",
          "type": "uint128"
        }
      ],
      "name": "quoteRewardsClaim",
      "outputs": [
        {
          "components": [
            {
              "internalType": "uint256",
              "name": "nativeFee",
              "type": "uint256"
            },
            {
              "internalType": "uint256",
              "name": "lzTokenFee",
              "type": "uint256"
            }
          ],
          "internalType": "struct MessagingFee",
          "name": "fee",
          "type": "tuple"
        }
      ],
      "stateMutability": "view",
      "type": "function"
    },
    {
      "inputs": [],
      "name": "renounceOwnership",
      "outputs": [],
      "stateMutability": "nonpayable",
      "type": "function"
    },
    {
      "inputs": [
        {
          "internalType": "uint256",
          "name": "amount",
          "type": "uint256"
        }
      ],
      "name": "sell",
      "outputs": [],
      "stateMutability": "nonpayable",
      "type": "function"
    },
    {
      "inputs": [
        {
          "internalType": "uint256",
          "name": "_feePercent",
          "type": "uint256"
        }
      ],
      "name": "setBuyFeePercent",
      "outputs": [],
      "stateMutability": "nonpayable",
      "type": "function"
    },
    {
      "inputs": [
        {
          "internalType": "uint256",
          "name": "_feePercent",
          "type": "uint256"
        }
      ],
      "name": "setCreatorFeePercent",
      "outputs": [],
      "stateMutability": "nonpayable",
      "type": "function"
    },
    {
      "inputs": [
        {
          "internalType": "address",
          "name": "_delegate",
          "type": "address"
        }
      ],
      "name": "setDelegate",
      "outputs": [],
      "stateMutability": "nonpayable",
      "type": "function"
    },
    {
      "inputs": [
        {
          "internalType": "uint256",
          "name": "_profitPercent",
          "type": "uint256"
        }
      ],
      "name": "setFullFeeProfitPercent",
      "outputs": [],
      "stateMutability": "nonpayable",
      "type": "function"
    },
    {
      "inputs": [
        {
          "internalType": "uint256",
          "name": "_feePercent",
          "type": "uint256"
        }
      ],
      "name": "setMaxSellFeePercent",
      "outputs": [],
      "stateMutability": "nonpayable",
      "type": "function"
    },
    {
      "inputs": [
        {
          "internalType": "uint256",
          "name": "_profitPercent",
          "type": "uint256"
        }
      ],
      "name": "setNoFeeProfitPercent",
      "outputs": [],
      "stateMutability": "nonpayable",
      "type": "function"
    },
    {
      "inputs": [
        {
          "internalType": "uint32",
          "name": "_eid",
          "type": "uint32"
        },
        {
          "internalType": "bytes32",
          "name": "_peer",
          "type": "bytes32"
        }
      ],
      "name": "setPeer",
      "outputs": [],
      "stateMutability": "nonpayable",
      "type": "function"
    },
    {
      "inputs": [
        {
          "internalType": "address",
          "name": "token",
          "type": "address"
        },
        {
          "internalType": "uint256",
          "name": "amount",
          "type": "uint256"
        }
      ],
      "name": "sponsor",
      "outputs": [],
      "stateMutability": "payable",
      "type": "function"
    },
    {
      "inputs": [],
      "name": "streamz",
      "outputs": [
        {
          "internalType": "contract IERC20",
          "name": "",
          "type": "address"
        }
      ],
      "stateMutability": "view",
      "type": "function"
    },
    {
      "inputs": [],
      "name": "symbol",
      "outputs": [
        {
          "internalType": "string",
          "name": "",
          "type": "string"
        }
      ],
      "stateMutability": "view",
      "type": "function"
    },
    {
      "inputs": [],
      "name": "testWithdrawRemoveBeforeProd",
      "outputs": [],
      "stateMutability": "nonpayable",
      "type": "function"
    },
    {
      "inputs": [],
      "name": "totalSupply",
      "outputs": [
        {
          "internalType": "uint256",
          "name": "",
          "type": "uint256"
        }
      ],
      "stateMutability": "view",
      "type": "function"
    },
    {
      "inputs": [
        {
          "internalType": "address",
          "name": "recipient",
          "type": "address"
        },
        {
          "internalType": "uint256",
          "name": "amount",
          "type": "uint256"
        }
      ],
      "name": "transfer",
      "outputs": [
        {
          "internalType": "bool",
          "name": "",
          "type": "bool"
        }
      ],
      "stateMutability": "nonpayable",
      "type": "function"
    },
    {
      "inputs": [
        {
          "internalType": "address",
          "name": "sender",
          "type": "address"
        },
        {
          "internalType": "address",
          "name": "recipient",
          "type": "address"
        },
        {
          "internalType": "uint256",
          "name": "amount",
          "type": "uint256"
        }
      ],
      "name": "transferFrom",
      "outputs": [
        {
          "internalType": "bool",
          "name": "",
          "type": "bool"
        }
      ],
      "stateMutability": "nonpayable",
      "type": "function"
    },
    {
      "inputs": [
        {
          "internalType": "address",
          "name": "newOwner",
          "type": "address"
        }
      ],
      "name": "transferOwnership",
      "outputs": [],
      "stateMutability": "nonpayable",
      "type": "function"
    },
    {
      "inputs": [
        {
          "internalType": "address",
          "name": "token",
          "type": "address"
        },
        {
          "internalType": "uint256",
          "name": "amount",
          "type": "uint256"
        }
      ],
      "name": "unsponsor",
      "outputs": [],
      "stateMutability": "payable",
      "type": "function"
    }
  ],
  "transactionHash": "0x8f5f88ab7def045f88320b4fb805aa830e00ffa0e70cda9df68cc3ac82b7c9eb",
  "args": [
    "0x4752ba5DBc23f44D87826276BF6Fd6b1C372aD24",
    "0x050E797f3625EC8785265e1d9BDd4799b97528A1",
    "0x27F971cb582BF9E50F397e4d29a5C7A34f11faA2",
    "0x4200000000000000000000000000000000000006",
    "LaunchV1Test",
    "ART",
    "0x6EDCE65403992e310A62460808c4b910D972f10f"
  ],
  "numDeployments": 2,
  "solcInputHash": "dccdcdef95713c370537814438be2a18",
  "bytecode": "0x6101806040526005600a556200001c60056200030660201b60201c565b600b556005600c556014600d55601e600e556046600f553480156200004057600080fd5b50604051620053f2380380620053f2833981016040819052620000639162000632565b80338181338780604051806040016040528060018152602001603160f81b8152508a8a81600390816200009791906200078b565b506004620000a682826200078b565b50620000b89150839050600562000309565b61012052620000c981600662000309565b61014052815160208084019190912060e052815190820120610100524660a0526200015760e05161010051604080517f8b73c3c69bb8fe3d512ecc4cf759cc79239f7b179b0ffacaa9a75d522b39400f60208201529081019290925260608201524660808201523060a082015260009060c00160405160208183030381529060405280519060200120905090565b60805250503060c052506001600160a01b0381166200019157604051631e4fbdf760e01b8152600060048201526024015b60405180910390fd5b6200019c8162000342565b506008805460ff60a01b191690556001600160a01b03808316610160528116620001d957604051632d618d8160e21b815260040160405180910390fd5b6101605160405163ca5eb5e160e01b81526001600160a01b0383811660048301529091169063ca5eb5e190602401600060405180830381600087803b1580156200022257600080fd5b505af115801562000237573d6000803e3d6000fd5b505050505050505086601060006101000a8154816001600160a01b0302191690836001600160a01b0316021790555085601160006101000a8154816001600160a01b0302191690836001600160a01b0316021790555084601260006101000a8154816001600160a01b0302191690836001600160a01b0316021790555083601360006101000a8154816001600160a01b0302191690836001600160a01b03160217905550620002f9306b033b2e3c9fd0803ce80000006200039460201b60201c565b50505050505050620008d3565b90565b600060208351101562000329576200032183620003d2565b90506200033c565b816200033684826200078b565b5060ff90505b92915050565b600880546001600160a01b038381166001600160a01b0319831681179093556040519116919082907f8be0079c531659141344cd1fd0a4f28419497f9722a3daafe3b4186f6b6457e090600090a35050565b6001600160a01b038216620003c05760405163ec442f0560e01b81526000600482015260240162000188565b620003ce6000838362000415565b5050565b600080829050601f8151111562000400578260405163305a27a960e01b815260040162000188919062000857565b80516200040d826200088c565b179392505050565b6001600160a01b03831662000444578060026000828254620004389190620008b1565b90915550620004b89050565b6001600160a01b03831660009081526020819052604090205481811015620004995760405163391434e360e21b81526001600160a01b0385166004820152602481018290526044810183905260640162000188565b6001600160a01b03841660009081526020819052604090209082900390555b6001600160a01b038216620004d657600280548290039055620004f5565b6001600160a01b03821660009081526020819052604090208054820190555b816001600160a01b0316836001600160a01b03167fddf252ad1be2c89b69c2b068fc378daa952ba7f163c4a11628f55a4df523b3ef836040516200053b91815260200190565b60405180910390a3505050565b80516001600160a01b03811681146200056057600080fd5b919050565b634e487b7160e01b600052604160045260246000fd5b60005b83811015620005985781810151838201526020016200057e565b50506000910152565b600082601f830112620005b357600080fd5b81516001600160401b0380821115620005d057620005d062000565565b604051601f8301601f19908116603f01168101908282118183101715620005fb57620005fb62000565565b816040528381528660208588010111156200061557600080fd5b620006288460208301602089016200057b565b9695505050505050565b600080600080600080600060e0888a0312156200064e57600080fd5b620006598862000548565b9650620006696020890162000548565b9550620006796040890162000548565b9450620006896060890162000548565b60808901519094506001600160401b0380821115620006a757600080fd5b620006b58b838c01620005a1565b945060a08a0151915080821115620006cc57600080fd5b50620006db8a828b01620005a1565b925050620006ec60c0890162000548565b905092959891949750929550565b600181811c908216806200070f57607f821691505b6020821081036200073057634e487b7160e01b600052602260045260246000fd5b50919050565b601f82111562000786576000816000526020600020601f850160051c81016020861015620007615750805b601f850160051c820191505b8181101562000782578281556001016200076d565b5050505b505050565b81516001600160401b03811115620007a757620007a762000565565b620007bf81620007b88454620006fa565b8462000736565b602080601f831160018114620007f75760008415620007de5750858301515b600019600386901b1c1916600185901b17855562000782565b600085815260208120601f198616915b82811015620008285788860151825594840194600190910190840162000807565b5085821015620008475787850151600019600388901b60f8161c191681555b5050505050600190811b01905550565b6020815260008251806020840152620008788160408501602087016200057b565b601f01601f19169190910160400192915050565b80516020808301519190811015620007305760001960209190910360031b1b16919050565b808201808211156200033c57634e487b7160e01b600052601160045260246000fd5b60805160a05160c05160e05161010051610120516101405161016051614a886200096a6000396000818161071001528181610e330152818161119e01528181611c040152818161248d01528181612be70152818161331401526133cd01526000612ba001526000612b73015260006129950152600061296d015260006128c8015260006128f20152600061291c0152614a886000f3fe6080604052600436106104105760003560e01c80638456cb591161021e578063bb0b6a5311610123578063d6e6eb9f116100ab578063e4849b321161007a578063e4849b3214610c76578063e75235b814610c96578063f2fde38b14610cb4578063fb4934e814610cd4578063ff7bd03d14610cff57600080fd5b8063d6e6eb9f14610be7578063d6febde814610bfd578063da08731314610c10578063dd62ed3e14610c3057600080fd5b8063ca5eb5e1116100f2578063ca5eb5e114610b66578063cc3fdd4c14610b86578063d294f09314610b9c578063d505accf14610bb1578063d6c97a3714610bd157600080fd5b8063bb0b6a5314610ae4578063c00007b014610b11578063c4eed40314610b31578063c67bbc2414610b5157600080fd5b8063902d55a5116101a6578063a75c7f9811610175578063a75c7f9814610a29578063a9059cbb14610a7a578063a932492f14610a9a578063b78b5bb714610aaf578063ba730e5314610ac457600080fd5b8063902d55a5146109be578063950eb5d5146109de57806395d89b41146109fe578063a1f1469d14610a1357600080fd5b80638c995e44116101ed5780638c995e441461091d5780638ce74426146109305780638d4e257e146109455780638d5debe6146109655780638da5cb5b146109a057600080fd5b80638456cb59146108af57806384b0196e146108c457806385f10a7e146108ec57806387e33d021461090857600080fd5b80633400288b116103245780636ff6c4b8116102ac5780637d25a05e1161027b5780637d25a05e146107f95780637ecebe0014610835578063806519831461085557806381acea351461086a57806382413eac1461088057600080fd5b80636ff6c4b81461077b57806370a082311461079b578063715018a6146107d15780637cbdce9b146107e657600080fd5b806353613dd3116102f357806353613dd3146106c95780635c975abb146106df5780635e280f11146106fe57806361e9ee0e1461055b57806364cd0d3e1461073257600080fd5b80633400288b146106555780633644e515146106755780633c087c231461068a5780634c783fb6146106aa57600080fd5b80630b51d3f6116103a757806318160ddd1161037657806318160ddd146105cf57806323b872dd146105e4578063284dc08e146106045780632918a3b614610624578063313ce5671461063957600080fd5b80630b51d3f61461055b57806312f95a0e1461057a57806313137d651461059a57806317442b70146105ad57600080fd5b806306fdde03116103e357806306fdde03146104bf578063089fe6aa146104e157806308d4db141461050b578063095ea7b31461052b57600080fd5b806301996af014610415578063047c24721461042a5780630572b0cc1461046f5780630676038414610491575b600080fd5b610428610423366004614020565b610d1f565b005b34801561043657600080fd5b5061045273499a12387357e3ec8facc011a2ab662e8abdbd8f81565b6040516001600160a01b0390911681526020015b60405180910390f35b34801561047b57600080fd5b50610484610fbb565b6040516104669190614059565b34801561049d57600080fd5b506104b16104ac36600461409a565b610fcc565b604051908152602001610466565b3480156104cb57600080fd5b506104d4610fdf565b6040516104669190614107565b3480156104ed57600080fd5b506104f761271081565b60405162ffffff9091168152602001610466565b34801561051757600080fd5b506104b161052636600461411a565b611071565b34801561053757600080fd5b5061054b610546366004614133565b6110f6565b6040519015158152602001610466565b34801561056757600080fd5b506104b16aa56fa5b99019a5c800000081565b34801561058657600080fd5b5061042861059536600461411a565b61110e565b6104286105a83660046141b9565b61119c565b3480156105b957600080fd5b5060408051600181526002602082015201610466565b3480156105db57600080fd5b506002546104b1565b3480156105f057600080fd5b5061054b6105ff366004614259565b611257565b34801561061057600080fd5b506104b161061f36600461429a565b61130d565b34801561063057600080fd5b5061048461136a565b34801561064557600080fd5b5060405160128152602001610466565b34801561066157600080fd5b506104286106703660046142ce565b611376565b34801561068157600080fd5b506104b161138c565b34801561069657600080fd5b506104b16106a536600461429a565b611396565b3480156106b657600080fd5b506104b16a084595161401484a00000081565b3480156106d557600080fd5b506104b1600f5481565b3480156106eb57600080fd5b50600854600160a01b900460ff1661054b565b34801561070a57600080fd5b506104527f000000000000000000000000000000000000000000000000000000000000000081565b34801561073e57600080fd5b5061076661074d36600461409a565b601d602052600090815260409020805460019091015482565b60408051928352602083019190915201610466565b34801561078757600080fd5b5061042861079636600461411a565b6113e1565b3480156107a757600080fd5b506104b16107b636600461409a565b6001600160a01b031660009081526020819052604090205490565b3480156107dd57600080fd5b50610428611480565b6104286107f4366004614133565b611494565b34801561080557600080fd5b5061081c6108143660046142ce565b600092915050565b60405167ffffffffffffffff9091168152602001610466565b34801561084157600080fd5b506104b161085036600461409a565b6115ec565b34801561086157600080fd5b506104b161160a565b34801561087657600080fd5b506104b1600c5481565b34801561088c57600080fd5b5061054b61089b3660046142ec565b6001600160a01b0381163014949350505050565b3480156108bb57600080fd5b50610428611630565b3480156108d057600080fd5b506108d9611640565b6040516104669796959493929190614353565b3480156108f857600080fd5b506104b1673782dace9d90000081565b34801561091457600080fd5b506104b1611686565b61042861092b366004614133565b611692565b34801561093c57600080fd5b50610452611838565b34801561095157600080fd5b506104d4610960366004614133565b6118b0565b34801561097157600080fd5b50610985610980366004614020565b6118ef565b60408051825181526020928301519281019290925201610466565b3480156109ac57600080fd5b506008546001600160a01b0316610452565b3480156109ca57600080fd5b506104b16b033b2e3c9fd0803ce800000081565b3480156109ea57600080fd5b506104286109f936600461411a565b6119b7565b348015610a0a57600080fd5b506104d4611a45565b348015610a1f57600080fd5b506104b1600d5481565b348015610a3557600080fd5b50610a65610a4436600461409a565b6001600160a01b03166000908152601a602052604090205463ffffffff1690565b60405163ffffffff9091168152602001610466565b348015610a8657600080fd5b5061054b610a95366004614133565b611a54565b348015610aa657600080fd5b506104b160c881565b348015610abb57600080fd5b50610428611af6565b348015610ad057600080fd5b506104b1610adf36600461411a565b611b13565b348015610af057600080fd5b506104b1610aff3660046143ec565b60096020526000908152604090205481565b348015610b1d57600080fd5b506104b1610b2c36600461409a565b611b72565b348015610b3d57600080fd5b50610428610b4c36600461411a565b611b7f565b348015610b5d57600080fd5b50601e546104b1565b348015610b7257600080fd5b50610428610b8136600461409a565b611bdd565b348015610b9257600080fd5b506104b1600a5481565b348015610ba857600080fd5b50610428611c63565b348015610bbd57600080fd5b50610428610bcc366004614409565b611cfd565b348015610bdd57600080fd5b506104b1600b5481565b348015610bf357600080fd5b506104b1600e5481565b610428610c0b36600461429a565b611e37565b348015610c1c57600080fd5b50610428610c2b36600461411a565b612280565b348015610c3c57600080fd5b506104b1610c4b366004614480565b6001600160a01b03918216600090815260016020908152604080832093909416825291909152205490565b348015610c8257600080fd5b50610428610c9136600461411a565b6122de565b348015610ca257600080fd5b506aa56fa5b99019a5c80000006104b1565b348015610cc057600080fd5b50610428610ccf36600461409a565b612342565b348015610ce057600080fd5b5061054b610cef36600461411a565b6aa56fa5b99019a5c80000001090565b348015610d0b57600080fd5b5061054b610d1a3660046144ae565b61237d565b610d276123b3565b336000908152601b602090815260408083206001600160a01b038616845290915290205460ff1615610d925760405162461bcd60e51b815260206004820152600f60248201526e105b1c9958591e4818db185a5b5959608a1b60448201526064015b60405180910390fd5b6000610da1335b6014906123dd565b90506000610dd8836000610dd160408051600360f01b602082015281516002818303018152602290910190915290565b91906123f2565b90506000610de76017866123dd565b90506000610df361160a565b610dfd85846144e0565b610e07919061450d565b6001600160a01b0387166000908152601a602052604090205490915063ffffffff16801580610ec257507f00000000000000000000000000000000000000000000000000000000000000006001600160a01b031663416ecebf6040518163ffffffff1660e01b8152600401602060405180830381865afa158015610e8f573d6000803e3d6000fd5b505050506040513d601f19601f82011682018060405250810190610eb3919061452f565b63ffffffff168163ffffffff16145b15610f4e576001600160a01b03871663a9059cbb336040516001600160e01b031960e084901b1681526001600160a01b039091166004820152602481018590526044016020604051808303816000875af1158015610f24573d6000803e3d6000fd5b505050506040513d601f19601f82011682018060405250810190610f48919061454c565b50610f81565b6000610f5a88846118b0565b9050610f7e828287604051806040016040528034815260200160008152503361245a565b50505b5050336000908152601b602090815260408083206001600160a01b0398909816835296905294909420805460ff1916600117905550505050565b6060610fc76017612565565b905090565b6000610fd96014836123dd565b92915050565b606060038054610fee9061456e565b80601f016020809104026020016040519081016040528092919081815260200182805461101a9061456e565b80156110675780601f1061103c57610100808354040283529160200191611067565b820191906000526020600020905b81548152906001019060200180831161104a57829003601f168201915b5050505050905090565b60008160000361108357506000919050565b600061109361109061160a565b90565b905060006110ac846110a661109061160a565b90612572565b90506110ee611090671bc16d674ec800006110e86110df6110ce876002612581565b6110d9876002612581565b906125e1565b60c85b906125f0565b906125ff565b949350505050565b600033611104818585612617565b5060019392505050565b611116611838565b6001600160a01b0316336001600160a01b0316146111465760405162461bcd60e51b8152600401610d89906145a2565b600a8111156111975760405162461bcd60e51b815260206004820152601d60248201527f4665652070657263656e742063616e6e6f7420657863656564203130250000006044820152606401610d89565b600b55565b7f00000000000000000000000000000000000000000000000000000000000000006001600160a01b031633146111e7576040516391ac5e4f60e01b8152336004820152602401610d89565b60208701803590611201906111fc908a6143ec565b612629565b1461123f5761121360208801886143ec565b60405163309afaf360e21b815263ffffffff909116600482015260208801356024820152604401610d89565b61124e87878787878787612665565b50505050505050565b600854600090600160a01b900460ff166112f85760006112786014866123dd565b90508281101561129a5760405162461bcd60e51b8152600401610d89906145cc565b6112a483826145fa565b6000036112bc576112b66014866126c2565b506112d5565b6112d3856112ca85846145fa565b601491906126d7565b505b60006112e26014866126ed565b91506112f49050856112ca868461460d565b5050505b611303848484612714565b90505b9392505050565b6000808061131961160a565b90505b8461132682611b13565b101561135557611337600a8261450d565b61134190826145fa565b915061134e6002826144e0565b905061131c565b61136185858484612738565b95945050505050565b6060610fc76014612565565b61137e612839565b6113888282612866565b5050565b6000610fc76128bb565b60008060015b846113a682611071565b10156113d5576113b7600a8261450d565b6113c190826145fa565b91506113ce6002826144e0565b905061139c565b611361858584846129e6565b6113e9611838565b6001600160a01b0316336001600160a01b0316146114195760405162461bcd60e51b8152600401610d89906145a2565b606481111561146a5760405162461bcd60e51b815260206004820152601e60248201527f4665652070657263656e742063616e6e6f7420657863656564203130302500006044820152606401610d89565b600f81905561147a8160646145fa565b600e5550565b611488612839565b6114926000612aba565b565b336000908152601c602090815260408083206001600160a01b0386168452909152902054818110156115085760405162461bcd60e51b815260206004820152601860248201527f496e73756666696369656e742073706f6e736f727368697000000000000000006044820152606401610d89565b336000908152601c602090815260408083206001600160a01b03871684529091528120805484929061153b9084906145fa565b90915550611564905083836115516017836123dd565b61155b91906145fa565b601791906126d7565b506001600160a01b03831663a9059cbb336040516001600160e01b031960e084901b1681526001600160a01b039091166004820152602481018590526044016020604051808303816000875af11580156115c2573d6000803e3d6000fd5b505050506040513d601f19601f820116820180604052508101906115e6919061454c565b50505050565b6001600160a01b038116600090815260076020526040812054610fd9565b30600090815260208190526040812054610fc7906b033b2e3c9fd0803ce80000006145fa565b611638612839565b611492612b0c565b600060608060008060006060611654612b6c565b61165c612b99565b60408051600080825260208201909252600f60f81b9b939a50919850469750309650945092509050565b6000610fc76014612bc6565b806001600160a01b03831663dd62ed3e336040516001600160e01b031960e084901b1681526001600160a01b039091166004820152306024820152604401602060405180830381865afa1580156116ed573d6000803e3d6000fd5b505050506040513d601f19601f820116820180604052508101906117119190614620565b10156117535760405162461bcd60e51b8152602060048201526011602482015270105b1b1bddd85b98d9481b9bdd081cd95d607a1b6044820152606401610d89565b6001600160a01b0382166323b872dd336040516001600160e01b031960e084901b1681526001600160a01b039091166004820152306024820152604481018490526064016020604051808303816000875af11580156117b6573d6000803e3d6000fd5b505050506040513d601f19601f820116820180604052508101906117da919061454c565b5060006117e86017846126ed565b91506117fa90508361155b848461460d565b50336000908152601c602090815260408083206001600160a01b03871684529091528120805484929061182e90849061460d565b9091555050505050565b600073499a12387357e3ec8facc011a2ab662e8abdbd8f6001600160a01b0316638da5cb5b6040518163ffffffff1660e01b8152600401602060405180830381865afa15801561188c573d6000803e3d6000fd5b505050506040513d601f19601f82011682018060405250810190610fc79190614639565b604080516001600160a01b038416602082015290810182905233606082810191909152906080015b604051602081830303815290604052905092915050565b6040805180820190915260008082526020820152600061190e33610d99565b9050600061191d6017866123dd565b9050600061192961160a565b61193384846144e0565b61193d919061450d565b9050600061194b87836118b0565b6001600160a01b0388166000908152601a602052604081205491925063ffffffff9091169061199b8882610dd160408051600360f01b602082015281516002818303018152602290910190915290565b90506119aa8284836000612bd1565b9998505050505050505050565b6119bf611838565b6001600160a01b0316336001600160a01b0316146119ef5760405162461bcd60e51b8152600401610d89906145a2565b600a811115611a405760405162461bcd60e51b815260206004820152601d60248201527f4665652070657263656e742063616e6e6f7420657863656564203130250000006044820152606401610d89565b600a55565b606060048054610fee9061456e565b600854600090600160a01b900460ff16611aec576000611a7333610d99565b905082811015611a955760405162461bcd60e51b8152600401610d89906145cc565b611a9f83826145fa565b600003611ab957611ab3335b6014906126c2565b50611ac9565b611ac7336112ca85846145fa565b505b6000611ad66014866126ed565b9150611ae89050856112ca868461460d565b5050505b6113068383612ca9565b611afe612839565b61149247335b6001600160a01b031690612cb7565b600081600003611b2557506000919050565b6000611b3261109061160a565b90506000611b45846110d961109061160a565b90506110ee611090671bc16d674ec800006110e86110df611b67866002612581565b6110d9886002612581565b6000610fd96017836123dd565b611b87611838565b6001600160a01b0316336001600160a01b031614611bb75760405162461bcd60e51b8152600401610d89906145a2565b6064811115611bd85760405162461bcd60e51b8152600401610d8990614656565b600d55565b611be5612839565b60405163ca5eb5e160e01b81526001600160a01b0382811660048301527f0000000000000000000000000000000000000000000000000000000000000000169063ca5eb5e190602401600060405180830381600087803b158015611c4857600080fd5b505af1158015611c5c573d6000803e3d6000fd5b5050505050565b611c6b612839565b60006064600e54601f54611c7f91906144e0565b611c89919061450d565b905080601f6000828254611c9d91906145fa565b90915550611caf905081611b04611838565b60006064600f54601f54611cc391906144e0565b611ccd919061450d565b905080601f6000828254611ce191906145fa565b90915550611388905081611b046008546001600160a01b031690565b83421115611d215760405163313c898160e11b815260048101859052602401610d89565b60007f6e71edae12b1b97f4d1f60370fef10105fa2faae0126114a169c64845d6126c9888888611d6e8c6001600160a01b0316600090815260076020526040902080546001810190915590565b6040805160208101969096526001600160a01b0394851690860152929091166060840152608083015260a082015260c0810186905260e0016040516020818303038152906040528051906020012090506000611dc982612d4e565b90506000611dd982878787612d7b565b9050896001600160a01b0316816001600160a01b031614611e20576040516325c0072360e11b81526001600160a01b0380831660048301528b166024820152604401610d89565b611e2b8a8a8a612617565b50505050505050505050565b611e3f612d9d565b60008211611e8f5760405162461bcd60e51b815260206004820152601d60248201527f416d6f756e74206d7573742062652067726561746572207468616e20300000006044820152606401610d89565b6aa56fa5b99019a5c8000000611ea361160a565b611ead908461460d565b106120e457611eba612b0c565b60115460135460405163a167129560e01b81523060048201526001600160a01b0391821660248201526127106044820152600092919091169063a1671295906064016020604051808303816000875af1158015611f1b573d6000803e3d6000fd5b505050506040513d601f19601f82011682018060405250810190611f3f9190614639565b601254909150611f659030906001600160a01b03166aa56fa5b99019a5c8000000612617565b6000601f5447611f7591906145fa565b60408051610160810182523081526013546001600160a01b0316602082015261271091810191909152620d89b3196060820152620d89b460808201526aa56fa5b99019a5c800000060a082015260c08101829052600060e0820181905261010082018190529192506101208101611fea611838565b6001600160a01b03908116825242602090920191909152601254604051634418b22b60e11b81529293501690638831645690849061202c908590600401614697565b60806040518083038185885af115801561204a573d6000803e3d6000fd5b50505050506040513d601f19601f8201168201806040525081019061206f919061475b565b5050505061209a306120896008546001600160a01b031690565b6a084595161401484a000000612dc8565b306000818152602081905260409020546120b691908590612dc8565b6aa56fa5b99019a5c80000006120ca61160a565b6120d491906145fa565b6120de90866145fa565b94505050505b60006120ef83611071565b905060006064600a548361210391906144e0565b61210d919061450d565b9050612119818361460d565b34106121595760008161212c84346145fa565b61213691906145fa565b90508015612148576121488133611b04565b612153858484612e27565b506115e6565b60006121ae6064600a543461216e91906144e0565b612178919061450d565b61218290346145fa565b85600a881061219b57612196600a8961450d565b61219e565b60005b6121a98960046144e0565b6129e6565b90506000811161221d5760405162461bcd60e51b815260206004820152603460248201527f4e6f7420656e6f75676820696e70757420746f2062757920746865206d696e696044820152736d756d20616d6f756e74206f6620746f6b656e7360601b6064820152608401610d89565b61222681611071565b92506064600a548461223891906144e0565b612242919061450d565b915060008261225185346145fa565b61225b91906145fa565b9050801561226d5761226d8133611b04565b612278828585612e27565b505050505050565b612288611838565b6001600160a01b0316336001600160a01b0316146122b85760405162461bcd60e51b8152600401610d89906145a2565b60648111156122d95760405162461bcd60e51b8152600401610d8990614656565b600c55565b6122e6612d9d565b600081116123365760405162461bcd60e51b815260206004820152601d60248201527f416d6f756e74206d7573742062652067726561746572207468616e20300000006044820152606401610d89565b61233f81612f3e565b50565b61234a612839565b6001600160a01b03811661237457604051631e4fbdf760e01b815260006004820152602401610d89565b61233f81612aba565b600060208201803590600990839061239590866143ec565b63ffffffff1681526020810191909152604001600020541492915050565b600854600160a01b900460ff1661149257604051638dfc202b60e01b815260040160405180910390fd5b6000611306836001600160a01b038416613172565b60608360036124028260006131b9565b61ffff1614612436576124168160006131b9565b604051633a51740d60e01b815261ffff9091166004820152602401610d89565b60006124428585613216565b90506124508660018361327d565b9695505050505050565b612462613fae565b600061247184600001516132e8565b60208501519091501561248b5761248b8460200151613310565b7f00000000000000000000000000000000000000000000000000000000000000006001600160a01b0316632637a450826040518060a001604052808b63ffffffff1681526020016124db8c612629565b81526020018a815260200189815260200160008960200151111515815250866040518463ffffffff1660e01b8152600401612517929190614799565b60806040518083038185885af1158015612535573d6000803e3d6000fd5b50505050506040513d601f19601f8201168201806040525081019061255a919061486f565b979650505050505050565b60606000611306836133f2565b6000611306611090838561460d565b600082816001841661259b57670de0b6b3a764000061259d565b815b9050600184901c93505b83156125db576125b782836133fd565b915060018416156125cf576125cc81836133fd565b90505b600184901c93506125a7565b80611361565b600061130661109083856145fa565b600061130661109084846133fd565b600061130661109084670de0b6b3a7640000856134b3565b6126248383836001613587565b505050565b63ffffffff811660009081526009602052604081205480610fd95760405163f6ff4fb760e01b815263ffffffff84166004820152602401610d89565b60008080612675878901896148ef565b91945092509050612688601783836126d7565b50506001600160a01b03166000908152601a60205260409020805463ffffffff191663ffffffff9290921691909117905550505050505050565b6000611306836001600160a01b03841661365c565b6000611303846001600160a01b03851684613679565b6000808080612705866001600160a01b038716613696565b909450925050505b9250929050565b6000336127228582856136d0565b61272d858585612dc8565b506001949350505050565b600082825b808210156127ae576000600261275384846145fa565b61275d919061450d565b612767908461460d565b9050600061277482611b13565b9050888110156127905761278982600161460d565b93506127a7565b888111156127a0578192506127a7565b50506127ae565b505061273d565b60006127be610adf6001856145fa565b90508781111580156127ed57506127d581886144e0565b6127df828a6145fa565b6127ea9060646144e0565b11155b61282d5760405162461bcd60e51b81526020600482015260116024820152700a6d8d2e0e0c2ceca40e8dede40d0d2ced607b1b6044820152606401610d89565b50909695505050505050565b6008546001600160a01b031633146114925760405163118cdaa760e01b8152336004820152602401610d89565b63ffffffff8216600081815260096020908152604091829020849055815192835282018390527f238399d427b947898edb290f5ff0f9109849b1c3ba196a42e35f00c50a54b98b910160405180910390a15050565b6000306001600160a01b037f00000000000000000000000000000000000000000000000000000000000000001614801561291457507f000000000000000000000000000000000000000000000000000000000000000046145b1561293e57507f000000000000000000000000000000000000000000000000000000000000000090565b610fc7604080517f8b73c3c69bb8fe3d512ecc4cf759cc79239f7b179b0ffacaa9a75d522b39400f60208201527f0000000000000000000000000000000000000000000000000000000000000000918101919091527f000000000000000000000000000000000000000000000000000000000000000060608201524660808201523060a082015260009060c00160405160208183030381529060405280519060200120905090565b600082825b80821015612a5c5760006002612a0184846145fa565b612a0b919061450d565b612a15908461460d565b90506000612a2282611071565b905088811015612a3e57612a3782600161460d565b9350612a55565b88811115612a4e57819250612a55565b5050612a5c565b50506129eb565b6000612a6c6105266001856145fa565b9050612aa56040518060400160405280601481526020017346696e616c2050726963653a202564202825642960601b815250828a613748565b8781111580156127ed57506127d581886144e0565b600880546001600160a01b038381166001600160a01b0319831681179093556040519116919082907f8be0079c531659141344cd1fd0a4f28419497f9722a3daafe3b4186f6b6457e090600090a35050565b612b14612d9d565b6008805460ff60a01b1916600160a01b1790557f62e78cea01bee320cd4e420270b5ea74000d11b0c9f74754ebdbfc544b05a258612b4f3390565b6040516001600160a01b03909116815260200160405180910390a1565b6060610fc77f0000000000000000000000000000000000000000000000000000000000000000600561378f565b6060610fc77f0000000000000000000000000000000000000000000000000000000000000000600661378f565b6000610fd98261383a565b60408051808201909152600080825260208201527f00000000000000000000000000000000000000000000000000000000000000006001600160a01b031663ddc28c586040518060a001604052808863ffffffff168152602001612c3489612629565b8152602001878152602001868152602001851515815250306040518363ffffffff1660e01b8152600401612c69929190614799565b6040805180830381865afa158015612c85573d6000803e3d6000fd5b505050506040513d601f19601f82011682018060405250810190611361919061490f565b600033611104818585612dc8565b80471015612cda5760405163cd78605960e01b8152306004820152602401610d89565b6000826001600160a01b03168260405160006040518083038185875af1925050503d8060008114612d27576040519150601f19603f3d011682016040523d82523d6000602084013e612d2c565b606091505b505090508061262457604051630a12f52160e11b815260040160405180910390fd5b6000610fd9612d5b6128bb565b8360405161190160f01b8152600281019290925260228201526042902090565b600080600080612d8d88888888613845565b92509250925061282d8282613914565b600854600160a01b900460ff16156114925760405163d93c066560e01b815260040160405180910390fd5b6001600160a01b038316612df257604051634b637e8f60e11b815260006004820152602401610d89565b6001600160a01b038216612e1c5760405163ec442f0560e01b815260006004820152602401610d89565b6126248383836139cd565b6000612e346014336126ed565b915050612e4b612e413390565b6112ca868461460d565b5081601f6000828254612e5e919061460d565b9091555050336000908152601d6020526040902054612e7d9084612572565b336000908152601d6020526040902090815560010154612e9d9085612572565b336000818152601d6020526040902060010191909155612ebf90309086612dc8565b34601e6000828254612ed1919061460d565b909155503390507f064fb1933e186be0b289a87e98518dc18cc9856ecbc9f1353d1a138ddf733ec5612f0161160a565b612f12670de0b6b3a7640000611071565b60408051928352602083019190915281018790526060810186905260800160405180910390a250505050565b6000612f4933610d99565b905081811015612f6b5760405162461bcd60e51b8152600401610d89906145cc565b612f7582826145fa565b600003612f8b57612f8533611aab565b50612f9b565b612f99336112ca84846145fa565b505b6000612fa683611b13565b9050612fdc60405180604001604052806012815260200171141c9a58d948199bdc881cd95b1b0e88095960721b81525082613af7565b336000908152601d6020526040812060018101548154919291612ffe916125ff565b9050600061300c82876110e2565b9050600084821061301e576000613031565b613031826110e860646110e2868a6110d9565b9050600061304a600c5483613b3c90919063ffffffff16565b15613057575060006130a1565b600d5482106130695750600b546130a1565b61309e613083600c54600d546125e190919063ffffffff16565b6110e8600b546110e2600c54876125e190919063ffffffff16565b90505b60006130b561109060646110e8858b6110e2565b90506130ca6130c482896145fa565b33611b04565b86601e60008282546130dc919061460d565b9250508190555080601f60008282546130f5919061460d565b90915550613106905033308b612dc8565b337f483f8aec0fd892ac72ad1ba8d0e9c9e73db59c12d263fd71de480b5b3deeae3c61313061160a565b613141670de0b6b3a7640000611071565b60408051928352602083019190915281018c9052606081018a905260800160405180910390a2505050505050505050565b60008181526002830160205260408120548015801561319857506131968484613b41565b155b156113065760405163015ab34360e11b815260048101849052602401610d89565b60006131c682600261460d565b8351101561320d5760405162461bcd60e51b8152602060048201526014602482015273746f55696e7431365f6f75744f66426f756e647360601b6044820152606401610d89565b50016002015190565b60606001600160801b0382161561325e57604080516001600160801b0319608086811b8216602084015285901b16603082015201604051602081830303815290604052611306565b6040516001600160801b0319608085901b1660208201526030016118d8565b606083600361328d8260006131b9565b61ffff16146132a1576124168160006131b9565b8460016132ae8551613b4d565b6132b990600161492b565b86866040516020016132cf959493929190614946565b6040516020818303038152906040529150509392505050565b600081341461330c576040516304fb820960e51b8152346004820152602401610d89565b5090565b60007f00000000000000000000000000000000000000000000000000000000000000006001600160a01b031663e4fe1d946040518163ffffffff1660e01b8152600401602060405180830381865afa158015613370573d6000803e3d6000fd5b505050506040513d601f19601f820116820180604052508101906133949190614639565b90506001600160a01b0381166133bd576040516329b99a9560e11b815260040160405180910390fd5b6113886001600160a01b038216337f000000000000000000000000000000000000000000000000000000000000000085613b7c565b6060610fd982613bd6565b60008080600019848609848602925082811083820303915050806000036134315750670de0b6b3a764000090049050610fd9565b670de0b6b3a7640000811061346357604051635173648d60e01b81526004810186905260248101859052604401610d89565b6000670de0b6b3a764000085870962040000818503049310909103600160ee1b02919091177faccb18165bd6fe31ae1cf318dc5b51eee0e1ba569b88cd74c1773b91fac106690291505092915050565b60008080600019858709858702925082811083820303915050806000036134ed578382816134e3576134e36144f7565b0492505050611306565b83811061351e57604051630c740aef60e31b8152600481018790526024810186905260448101859052606401610d89565b60008486880960026001871981018816978890046003810283188082028403028082028403028082028403028082028403028082028403029081029092039091026000889003889004909101858311909403939093029303949094049190911702949350505050565b6001600160a01b0384166135b15760405163e602df0560e01b815260006004820152602401610d89565b6001600160a01b0383166135db57604051634a1406b160e11b815260006004820152602401610d89565b6001600160a01b03808516600090815260016020908152604080832093871683529290522082905580156115e657826001600160a01b0316846001600160a01b03167f8c5be1e5ebec7d5bd14f71427d1e84f3dd0314c0f7b2291e5b200ac8c7c3b9258460405161364e91815260200190565b60405180910390a350505050565b600081815260028301602052604081208190556113068383613be3565b600082815260028401602052604081208290556113038484613bef565b60008181526002830160205260408120548190806136c5576136b88585613b41565b92506000915061270d9050565b60019250905061270d565b6001600160a01b0383811660009081526001602090815260408083209386168352929052205460001981146115e6578181101561373957604051637dc7a0d960e11b81526001600160a01b03841660048201526024810182905260448101839052606401610d89565b6115e684848484036000613587565b612624838383604051602401613760939291906149ad565b60408051601f198184030181529190526020810180516001600160e01b031663ca47c4eb60e01b179052613bfb565b606060ff83146137a9576137a283613c04565b9050610fd9565b8180546137b59061456e565b80601f01602080910402602001604051908101604052809291908181526020018280546137e19061456e565b801561382e5780601f106138035761010080835404028352916020019161382e565b820191906000526020600020905b81548152906001019060200180831161381157829003601f168201915b50505050509050610fd9565b6000610fd982613c43565b600080807f7fffffffffffffffffffffffffffffff5d576e7357a4501ddfe92f46681b20a0841115613880575060009150600390508261390a565b604080516000808252602082018084528a905260ff891692820192909252606081018790526080810186905260019060a0016020604051602081039080840390855afa1580156138d4573d6000803e3d6000fd5b5050604051601f1901519150506001600160a01b0381166139005750600092506001915082905061390a565b9250600091508190505b9450945094915050565b6000826003811115613928576139286149d2565b03613931575050565b6001826003811115613945576139456149d2565b036139635760405163f645eedf60e01b815260040160405180910390fd5b6002826003811115613977576139776149d2565b036139985760405163fce698f760e01b815260048101829052602401610d89565b60038260038111156139ac576139ac6149d2565b03611388576040516335e2f38360e21b815260048101829052602401610d89565b6001600160a01b0383166139f85780600260008282546139ed919061460d565b90915550613a6a9050565b6001600160a01b03831660009081526020819052604090205481811015613a4b5760405163391434e360e21b81526001600160a01b03851660048201526024810182905260448101839052606401610d89565b6001600160a01b03841660009081526020819052604090209082900390555b6001600160a01b038216613a8657600280548290039055613aa5565b6001600160a01b03821660009081526020819052604090208054820190555b816001600160a01b0316836001600160a01b03167fddf252ad1be2c89b69c2b068fc378daa952ba7f163c4a11628f55a4df523b3ef83604051613aea91815260200190565b60405180910390a3505050565b6113888282604051602401613b0d9291906149e8565b60408051601f198184030181529190526020810180516001600160e01b0316632d839cb360e21b179052613bfb565b101590565b60006113068383613c4d565b600061ffff82111561330c576040516306dfcc6560e41b81526010600482015260248101839052604401610d89565b604080516001600160a01b0385811660248301528416604482015260648082018490528251808303909101815260849091019091526020810180516001600160e01b03166323b872dd60e01b1790526115e6908590613c65565b6060600061130683613cc8565b60006113068383613d24565b60006113068383613e1e565b61233f81613e6d565b60606000613c1183613e8e565b604080516020808252818301909252919250600091906020820181803683375050509182525060208101929092525090565b6000610fd9825490565b60008181526001830160205260408120541515611306565b6000613c7a6001600160a01b03841683613eb6565b90508051600014158015613c9f575080806020019051810190613c9d919061454c565b155b1561262457604051635274afe760e01b81526001600160a01b0384166004820152602401610d89565b606081600001805480602002602001604051908101604052809291908181526020018280548015613d1857602002820191906000526020600020905b815481526020019060010190808311613d04575b50505050509050919050565b60008181526001830160205260408120548015613e0d576000613d486001836145fa565b8554909150600090613d5c906001906145fa565b9050808214613dc1576000866000018281548110613d7c57613d7c614a0a565b9060005260206000200154905080876000018481548110613d9f57613d9f614a0a565b6000918252602080832090910192909255918252600188019052604090208390555b8554869080613dd257613dd2614a20565b600190038181906000526020600020016000905590558560010160008681526020019081526020016000206000905560019350505050610fd9565b6000915050610fd9565b5092915050565b6000818152600183016020526040812054613e6557508154600181810184556000848152602080822090930184905584548482528286019093526040902091909155610fd9565b506000610fd9565b60006a636f6e736f6c652e6c6f679050600080835160208501845afa505050565b600060ff8216601f811115610fd957604051632cd44ac360e21b815260040160405180910390fd5b60606113068383600084600080856001600160a01b03168486604051613edc9190614a36565b60006040518083038185875af1925050503d8060008114613f19576040519150601f19603f3d011682016040523d82523d6000602084013e613f1e565b606091505b5091509150612450868383606082613f3e57613f3982613f85565b611306565b8151158015613f5557506001600160a01b0384163b155b15613f7e57604051639996b31560e01b81526001600160a01b0385166004820152602401610d89565b5080611306565b805115613f955780518082602001fd5b604051630a12f52160e11b815260040160405180910390fd5b604051806060016040528060008019168152602001600067ffffffffffffffff168152602001613ff1604051806040016040528060008152602001600081525090565b905290565b6001600160a01b038116811461233f57600080fd5b6001600160801b038116811461233f57600080fd5b6000806040838503121561403357600080fd5b823561403e81613ff6565b9150602083013561404e8161400b565b809150509250929050565b6020808252825182820181905260009190848201906040850190845b8181101561282d5783516001600160a01b031683529284019291840191600101614075565b6000602082840312156140ac57600080fd5b813561130681613ff6565b60005b838110156140d25781810151838201526020016140ba565b50506000910152565b600081518084526140f38160208601602086016140b7565b601f01601f19169290920160200192915050565b60208152600061130660208301846140db565b60006020828403121561412c57600080fd5b5035919050565b6000806040838503121561414657600080fd5b823561415181613ff6565b946020939093013593505050565b60006060828403121561417157600080fd5b50919050565b60008083601f84011261418957600080fd5b50813567ffffffffffffffff8111156141a157600080fd5b60208301915083602082850101111561270d57600080fd5b600080600080600080600060e0888a0312156141d457600080fd5b6141de898961415f565b965060608801359550608088013567ffffffffffffffff8082111561420257600080fd5b61420e8b838c01614177565b909750955060a08a0135915061422382613ff6565b90935060c0890135908082111561423957600080fd5b506142468a828b01614177565b989b979a50959850939692959293505050565b60008060006060848603121561426e57600080fd5b833561427981613ff6565b9250602084013561428981613ff6565b929592945050506040919091013590565b600080604083850312156142ad57600080fd5b50508035926020909101359150565b63ffffffff8116811461233f57600080fd5b600080604083850312156142e157600080fd5b8235614151816142bc565b60008060008060a0858703121561430257600080fd5b61430c868661415f565b9350606085013567ffffffffffffffff81111561432857600080fd5b61433487828801614177565b909450925050608085013561434881613ff6565b939692955090935050565b60ff60f81b881681526000602060e0602084015261437460e084018a6140db565b8381036040850152614386818a6140db565b606085018990526001600160a01b038816608086015260a0850187905284810360c08601528551808252602080880193509091019060005b818110156143da578351835292840192918401916001016143be565b50909c9b505050505050505050505050565b6000602082840312156143fe57600080fd5b8135611306816142bc565b600080600080600080600060e0888a03121561442457600080fd5b873561442f81613ff6565b9650602088013561443f81613ff6565b95506040880135945060608801359350608088013560ff8116811461446357600080fd5b9699959850939692959460a0840135945060c09093013592915050565b6000806040838503121561449357600080fd5b823561449e81613ff6565b9150602083013561404e81613ff6565b6000606082840312156144c057600080fd5b611306838361415f565b634e487b7160e01b600052601160045260246000fd5b8082028115828204841417610fd957610fd96144ca565b634e487b7160e01b600052601260045260246000fd5b60008261452a57634e487b7160e01b600052601260045260246000fd5b500490565b60006020828403121561454157600080fd5b8151611306816142bc565b60006020828403121561455e57600080fd5b8151801515811461130657600080fd5b600181811c9082168061458257607f821691505b60208210810361417157634e487b7160e01b600052602260045260246000fd5b60208082526010908201526f139bdd081d1a19481c1c9bdd1bd8dbdb60821b604082015260600190565b602080825260149082015273496e73756666696369656e742062616c616e636560601b604082015260600190565b81810381811115610fd957610fd96144ca565b80820180821115610fd957610fd96144ca565b60006020828403121561463257600080fd5b5051919050565b60006020828403121561464b57600080fd5b815161130681613ff6565b60208082526021908201527f50726f6669742070657263656e742063616e6e6f7420657863656564203130306040820152602560f81b606082015260800190565b81516001600160a01b03168152610160810160208301516146c360208401826001600160a01b03169052565b5060408301516146da604084018262ffffff169052565b5060608301516146ef606084018260020b9052565b506080830151614704608084018260020b9052565b5060a083015160a083015260c083015160c083015260e083015160e08301526101008084015181840152506101208084015161474a828501826001600160a01b03169052565b505061014092830151919092015290565b6000806000806080858703121561477157600080fd5b8451935060208501516147838161400b565b6040860151606090960151949790965092505050565b6040815263ffffffff8351166040820152602083015160608201526000604084015160a060808401526147cf60e08401826140db565b90506060850151603f198483030160a08501526147ec82826140db565b60809690960151151560c08501525050506001600160a01b039190911660209091015290565b60006040828403121561482457600080fd5b6040516040810181811067ffffffffffffffff8211171561485557634e487b7160e01b600052604160045260246000fd5b604052825181526020928301519281019290925250919050565b60006080828403121561488157600080fd5b6040516060810167ffffffffffffffff82821081831117156148b357634e487b7160e01b600052604160045260246000fd5b81604052845183526020850151915080821682146148d057600080fd5b5060208201526148e38460408501614812565b60408201529392505050565b60008060006060848603121561490457600080fd5b8335614279816142bc565b60006040828403121561492157600080fd5b6113068383614812565b61ffff818116838216019080821115613e1757613e176144ca565b60008651614958818460208b016140b7565b6001600160f81b031960f888811b82169285019283526001600160f01b031960f089901b16600184015286901b166003820152835161499e8160048401602088016140b7565b01600401979650505050505050565b6060815260006149c060608301866140db565b60208301949094525060400152919050565b634e487b7160e01b600052602160045260246000fd5b6040815260006149fb60408301856140db565b90508260208301529392505050565b634e487b7160e01b600052603260045260246000fd5b634e487b7160e01b600052603160045260246000fd5b60008251614a488184602087016140b7565b919091019291505056fea2646970667358221220a1213f2349f2af98feb87dd52ff55c15164ef26fef3358cf934ee3bd29cae12e64736f6c63430008160033",
  "devdoc": {
    "errors": {
      "AddressEmptyCode(address)": [
        {
          "details": "There's no code at `target` (it is not a contract)."
        }
      ],
      "AddressInsufficientBalance(address)": [
        {
          "details": "The ETH balance of the account is not enough to perform the operation."
        }
      ],
      "ECDSAInvalidSignature()": [
        {
          "details": "The signature derives the `address(0)`."
        }
      ],
      "ECDSAInvalidSignatureLength(uint256)": [
        {
          "details": "The signature has an invalid length."
        }
      ],
      "ECDSAInvalidSignatureS(bytes32)": [
        {
          "details": "The signature has an S value that is in the upper half order."
        }
      ],
      "ERC20InsufficientAllowance(address,uint256,uint256)": [
        {
          "details": "Indicates a failure with the `spender`s `allowance`. Used in transfers.",
          "params": {
            "allowance": "Amount of tokens a `spender` is allowed to operate with.",
            "needed": "Minimum amount required to perform a transfer.",
            "spender": "Address that may be allowed to operate on tokens without being their owner."
          }
        }
      ],
      "ERC20InsufficientBalance(address,uint256,uint256)": [
        {
          "details": "Indicates an error related to the current `balance` of a `sender`. Used in transfers.",
          "params": {
            "balance": "Current balance for the interacting account.",
            "needed": "Minimum amount required to perform a transfer.",
            "sender": "Address whose tokens are being transferred."
          }
        }
      ],
      "ERC20InvalidApprover(address)": [
        {
          "details": "Indicates a failure with the `approver` of a token to be approved. Used in approvals.",
          "params": {
            "approver": "Address initiating an approval operation."
          }
        }
      ],
      "ERC20InvalidReceiver(address)": [
        {
          "details": "Indicates a failure with the token `receiver`. Used in transfers.",
          "params": {
            "receiver": "Address to which tokens are being transferred."
          }
        }
      ],
      "ERC20InvalidSender(address)": [
        {
          "details": "Indicates a failure with the token `sender`. Used in transfers.",
          "params": {
            "sender": "Address whose tokens are being transferred."
          }
        }
      ],
      "ERC20InvalidSpender(address)": [
        {
          "details": "Indicates a failure with the `spender` to be approved. Used in approvals.",
          "params": {
            "spender": "Address that may be allowed to operate on tokens without being their owner."
          }
        }
      ],
      "ERC2612ExpiredSignature(uint256)": [
        {
          "details": "Permit deadline has expired."
        }
      ],
      "ERC2612InvalidSigner(address,address)": [
        {
          "details": "Mismatched signature."
        }
      ],
      "EnforcedPause()": [
        {
          "details": "The operation failed because the contract is paused."
        }
      ],
      "EnumerableMapNonexistentKey(bytes32)": [
        {
          "details": "Query for a nonexistent map key."
        }
      ],
      "ExpectedPause()": [
        {
          "details": "The operation failed because the contract is not paused."
        }
      ],
      "FailedInnerCall()": [
        {
          "details": "A call to an address target failed. The target may have reverted."
        }
      ],
      "InvalidAccountNonce(address,uint256)": [
        {
          "details": "The nonce used for an `account` is not the expected current nonce."
        }
      ],
      "OwnableInvalidOwner(address)": [
        {
          "details": "The owner is not a valid owner account. (eg. `address(0)`)"
        }
      ],
      "OwnableUnauthorizedAccount(address)": [
        {
          "details": "The caller account is not authorized to perform an operation."
        }
      ],
      "SafeCastOverflowedUintDowncast(uint8,uint256)": [
        {
          "details": "Value doesn't fit in an uint of `bits` size."
        }
      ],
      "SafeERC20FailedOperation(address)": [
        {
          "details": "An operation with an ERC20 token failed."
        }
      ]
    },
    "events": {
      "Approval(address,address,uint256)": {
        "details": "Emitted when the allowance of a `spender` for an `owner` is set by a call to {approve}. `value` is the new allowance."
      },
      "EIP712DomainChanged()": {
        "details": "MAY be emitted to signal that the domain could have changed."
      },
      "Paused(address)": {
        "details": "Emitted when the pause is triggered by `account`."
      },
      "Transfer(address,address,uint256)": {
        "details": "Emitted when `value` tokens are moved from one account (`from`) to another (`to`). Note that `value` may be zero."
      },
      "Unpaused(address)": {
        "details": "Emitted when the pause is lifted by `account`."
      }
    },
    "kind": "dev",
    "methods": {
      "DOMAIN_SEPARATOR()": {
        "details": "Returns the domain separator used in the encoding of the signature for {permit}, as defined by {EIP712}."
      },
      "allowInitializePath((uint32,bytes32,uint64))": {
        "details": "This indicates to the endpoint that the OApp has enabled msgs for this particular path to be received.This defaults to assuming if a peer has been set, its initialized. Can be overridden by the OApp if there is other logic to determine this.",
        "params": {
          "origin": "The origin information containing the source endpoint and sender address."
        },
        "returns": {
          "_0": "Whether the path has been initialized."
        }
      },
      "allowance(address,address)": {
        "details": "See {IERC20-allowance}."
      },
      "approve(address,uint256)": {
        "details": "See {IERC20-approve}. NOTE: If `value` is the maximum `uint256`, the allowance is not updated on `transferFrom`. This is semantically equivalent to an infinite approval. Requirements: - `spender` cannot be the zero address."
      },
      "balanceOf(address)": {
        "details": "See {IERC20-balanceOf}."
      },
      "decimals()": {
        "details": "Returns the number of decimals used to get its user representation. For example, if `decimals` equals `2`, a balance of `505` tokens should be displayed to a user as `5.05` (`505 / 10 ** 2`). Tokens usually opt for a value of 18, imitating the relationship between Ether and Wei. This is the default value returned by this function, unless it's overridden. NOTE: This information is only used for _display_ purposes: it in no way affects any of the arithmetic of the contract, including {IERC20-balanceOf} and {IERC20-transfer}."
      },
      "eip712Domain()": {
        "details": "See {IERC-5267}."
      },
      "isComposeMsgSender((uint32,bytes32,uint64),bytes,address)": {
        "details": "_origin The origin information containing the source endpoint and sender address.  - srcEid: The source chain endpoint ID.  - sender: The sender address on the src chain.  - nonce: The nonce of the message._message The lzReceive payload.Applications can optionally choose to implement separate composeMsg senders that are NOT the bridging layer.The default sender IS the OAppReceiver implementer.",
        "params": {
          "_sender": "The sender address."
        },
        "returns": {
          "_0": "isSender Is a valid sender."
        }
      },
      "lzReceive((uint32,bytes32,uint64),bytes32,bytes,address,bytes)": {
        "details": "Entry point for receiving messages or packets from the endpoint.Entry point for receiving msg/packet from the LayerZero endpoint.",
        "params": {
          "_executor": "The address of the executor for the received message.",
          "_extraData": "Additional arbitrary data provided by the corresponding executor.",
          "_guid": "The unique identifier for the received LayerZero message.",
          "_message": "The payload of the received message.",
          "_origin": "The origin information containing the source endpoint and sender address.  - srcEid: The source chain endpoint ID.  - sender: The sender address on the src chain.  - nonce: The nonce of the message."
        }
      },
      "name()": {
        "details": "Returns the name of the token."
      },
      "nextNonce(uint32,bytes32)": {
        "details": "_srcEid The source endpoint ID._sender The sender address.The path nonce starts from 1. If 0 is returned it means that there is NO nonce ordered enforcement.Is required by the off-chain executor to determine the OApp expects msg execution is ordered.This is also enforced by the OApp.By default this is NOT enabled. ie. nextNonce is hardcoded to return 0.",
        "returns": {
          "nonce": "The next nonce."
        }
      },
      "nonces(address)": {
        "details": "Returns the current nonce for `owner`. This value must be included whenever a signature is generated for {permit}. Every successful call to {permit} increases ``owner``'s nonce by one. This prevents a signature from being used multiple times."
      },
      "oAppVersion()": {
        "returns": {
          "receiverVersion": "The version of the OAppReceiver.sol implementation.",
          "senderVersion": "The version of the OAppSender.sol implementation."
        }
      },
      "owner()": {
        "details": "Returns the address of the current owner."
      },
      "paused()": {
        "details": "Returns true if the contract is paused, and false otherwise."
      },
      "permit(address,address,uint256,uint256,uint8,bytes32,bytes32)": {
        "details": "Sets `value` as the allowance of `spender` over ``owner``'s tokens, given ``owner``'s signed approval. IMPORTANT: The same issues {IERC20-approve} has related to transaction ordering also apply here. Emits an {Approval} event. Requirements: - `spender` cannot be the zero address. - `deadline` must be a timestamp in the future. - `v`, `r` and `s` must be a valid `secp256k1` signature from `owner` over the EIP712-formatted function arguments. - the signature must use ``owner``'s current nonce (see {nonces}). For more information on the signature format, see the https://eips.ethereum.org/EIPS/eip-2612#specification[relevant EIP section]. CAUTION: See Security Considerations above."
      },
      "renounceOwnership()": {
        "details": "Leaves the contract without owner. It will not be possible to call `onlyOwner` functions. Can only be called by the current owner. NOTE: Renouncing ownership will leave the contract without an owner, thereby disabling any functionality that is only available to the owner."
      },
      "setDelegate(address)": {
        "details": "Only the owner/admin of the OApp can call this function.Provides the ability for a delegate to set configs, on behalf of the OApp, directly on the Endpoint contract.",
        "params": {
          "_delegate": "The address of the delegate to be set."
        }
      },
      "setPeer(uint32,bytes32)": {
        "details": "Only the owner/admin of the OApp can call this function.Indicates that the peer is trusted to send LayerZero messages to this OApp.Set this to bytes32(0) to remove the peer address.Peer is a bytes32 to accommodate non-evm chains.",
        "params": {
          "_eid": "The endpoint ID.",
          "_peer": "The address of the peer to be associated with the corresponding endpoint."
        }
      },
      "symbol()": {
        "details": "Returns the symbol of the token, usually a shorter version of the name."
      },
      "totalSupply()": {
        "details": "See {IERC20-totalSupply}."
      },
      "transferOwnership(address)": {
        "details": "Transfers ownership of the contract to a new account (`newOwner`). Can only be called by the current owner."
      }
    },
    "version": 1
  },
  "userdoc": {
    "errors": {
      "PRBMath_MulDiv18_Overflow(uint256,uint256)": [
        {
          "notice": "Thrown when the resultant value in {mulDiv18} overflows uint256."
        }
      ],
      "PRBMath_MulDiv_Overflow(uint256,uint256,uint256)": [
        {
          "notice": "Thrown when the resultant value in {mulDiv} overflows uint256."
        }
      ]
    },
    "kind": "user",
    "methods": {
      "allowInitializePath((uint32,bytes32,uint64))": {
        "notice": "Checks if the path initialization is allowed based on the provided origin."
      },
      "endpoint()": {
        "notice": "Retrieves the LayerZero endpoint associated with the OApp."
      },
      "isComposeMsgSender((uint32,bytes32,uint64),bytes,address)": {
        "notice": "Indicates whether an address is an approved composeMsg sender to the Endpoint."
      },
      "nextNonce(uint32,bytes32)": {
        "notice": "Retrieves the next nonce for a given source endpoint and sender address."
      },
      "oAppVersion()": {
        "notice": "Retrieves the OApp version information."
      },
      "peers(uint32)": {
        "notice": "Retrieves the peer (OApp) associated with a corresponding endpoint."
      },
      "setDelegate(address)": {
        "notice": "Sets the delegate address for the OApp."
      },
      "setPeer(uint32,bytes32)": {
        "notice": "Sets the peer address (OApp instance) for a corresponding endpoint."
      }
    },
    "version": 1
  },
  "storageLayout": {
    "storage": [
      {
        "astId": 3066,
        "contract": "contracts/LaunchToken.sol:LaunchToken",
        "label": "_balances",
        "offset": 0,
        "slot": "0",
        "type": "t_mapping(t_address,t_uint256)"
      },
      {
        "astId": 3072,
        "contract": "contracts/LaunchToken.sol:LaunchToken",
        "label": "_allowances",
        "offset": 0,
        "slot": "1",
        "type": "t_mapping(t_address,t_mapping(t_address,t_uint256))"
      },
      {
        "astId": 3074,
        "contract": "contracts/LaunchToken.sol:LaunchToken",
        "label": "_totalSupply",
        "offset": 0,
        "slot": "2",
        "type": "t_uint256"
      },
      {
        "astId": 3076,
        "contract": "contracts/LaunchToken.sol:LaunchToken",
        "label": "_name",
        "offset": 0,
        "slot": "3",
        "type": "t_string_storage"
      },
      {
        "astId": 3078,
        "contract": "contracts/LaunchToken.sol:LaunchToken",
        "label": "_symbol",
        "offset": 0,
        "slot": "4",
        "type": "t_string_storage"
      },
      {
        "astId": 5800,
        "contract": "contracts/LaunchToken.sol:LaunchToken",
        "label": "_nameFallback",
        "offset": 0,
        "slot": "5",
        "type": "t_string_storage"
      },
      {
        "astId": 5802,
        "contract": "contracts/LaunchToken.sol:LaunchToken",
        "label": "_versionFallback",
        "offset": 0,
        "slot": "6",
        "type": "t_string_storage"
      },
      {
        "astId": 4662,
        "contract": "contracts/LaunchToken.sol:LaunchToken",
        "label": "_nonces",
        "offset": 0,
        "slot": "7",
        "type": "t_mapping(t_address,t_uint256)"
      },
      {
        "astId": 2742,
        "contract": "contracts/LaunchToken.sol:LaunchToken",
        "label": "_owner",
        "offset": 0,
        "slot": "8",
        "type": "t_address"
      },
      {
        "astId": 4725,
        "contract": "contracts/LaunchToken.sol:LaunchToken",
        "label": "_paused",
        "offset": 20,
        "slot": "8",
        "type": "t_bool"
      },
      {
        "astId": 539,
        "contract": "contracts/LaunchToken.sol:LaunchToken",
        "label": "peers",
        "offset": 0,
        "slot": "9",
        "type": "t_mapping(t_uint32,t_bytes32)"
      },
      {
        "astId": 18190,
        "contract": "contracts/LaunchToken.sol:LaunchToken",
        "label": "buyFeePercent",
        "offset": 0,
        "slot": "10",
        "type": "t_uint256"
      },
      {
        "astId": 18196,
        "contract": "contracts/LaunchToken.sol:LaunchToken",
        "label": "maxSellFeePercent",
        "offset": 0,
        "slot": "11",
        "type": "t_userDefinedValueType(UD60x18)17541"
      },
      {
        "astId": 18202,
        "contract": "contracts/LaunchToken.sol:LaunchToken",
        "label": "noFeeProfitPercent",
        "offset": 0,
        "slot": "12",
        "type": "t_userDefinedValueType(UD60x18)17541"
      },
      {
        "astId": 18208,
        "contract": "contracts/LaunchToken.sol:LaunchToken",
        "label": "fullFeeProfitPercent",
        "offset": 0,
        "slot": "13",
        "type": "t_userDefinedValueType(UD60x18)17541"
      },
      {
        "astId": 18211,
        "contract": "contracts/LaunchToken.sol:LaunchToken",
        "label": "protocolFeePercent",
        "offset": 0,
        "slot": "14",
        "type": "t_uint256"
      },
      {
        "astId": 18214,
        "contract": "contracts/LaunchToken.sol:LaunchToken",
        "label": "creatorFeePercent",
        "offset": 0,
        "slot": "15",
        "type": "t_uint256"
      },
      {
        "astId": 18216,
        "contract": "contracts/LaunchToken.sol:LaunchToken",
        "label": "uniswapRouter",
        "offset": 0,
        "slot": "16",
        "type": "t_address"
      },
      {
        "astId": 18218,
        "contract": "contracts/LaunchToken.sol:LaunchToken",
        "label": "uniswapFactory",
        "offset": 0,
        "slot": "17",
        "type": "t_address"
      },
      {
        "astId": 18220,
        "contract": "contracts/LaunchToken.sol:LaunchToken",
        "label": "uniswapPositionManager",
        "offset": 0,
        "slot": "18",
        "type": "t_address"
      },
      {
        "astId": 18222,
        "contract": "contracts/LaunchToken.sol:LaunchToken",
        "label": "WETH",
        "offset": 0,
        "slot": "19",
        "type": "t_address"
      },
      {
        "astId": 18249,
        "contract": "contracts/LaunchToken.sol:LaunchToken",
        "label": "curveHoldings",
        "offset": 0,
        "slot": "20",
        "type": "t_struct(AddressToUintMap)9670_storage"
      },
      {
        "astId": 18252,
        "contract": "contracts/LaunchToken.sol:LaunchToken",
        "label": "rewards",
        "offset": 0,
        "slot": "23",
        "type": "t_struct(AddressToUintMap)9670_storage"
      },
      {
        "astId": 18256,
        "contract": "contracts/LaunchToken.sol:LaunchToken",
        "label": "rewardDestinations",
        "offset": 0,
        "slot": "26",
        "type": "t_mapping(t_address,t_uint32)"
      },
      {
        "astId": 18262,
        "contract": "contracts/LaunchToken.sol:LaunchToken",
        "label": "rewardClaims",
        "offset": 0,
        "slot": "27",
        "type": "t_mapping(t_address,t_mapping(t_address,t_bool))"
      },
      {
        "astId": 18268,
        "contract": "contracts/LaunchToken.sol:LaunchToken",
        "label": "sponsors",
        "offset": 0,
        "slot": "28",
        "type": "t_mapping(t_address,t_mapping(t_address,t_uint256))"
      },
      {
        "astId": 18280,
        "contract": "contracts/LaunchToken.sol:LaunchToken",
        "label": "purchaseRecords",
        "offset": 0,
        "slot": "29",
        "type": "t_mapping(t_address,t_struct(PurchaseData)18275_storage)"
      },
      {
        "astId": 18282,
        "contract": "contracts/LaunchToken.sol:LaunchToken",
        "label": "volume",
        "offset": 0,
        "slot": "30",
        "type": "t_uint256"
      },
      {
        "astId": 18284,
        "contract": "contracts/LaunchToken.sol:LaunchToken",
        "label": "feesEarned",
        "offset": 0,
        "slot": "31",
        "type": "t_uint256"
      }
    ],
    "types": {
      "t_address": {
        "encoding": "inplace",
        "label": "address",
        "numberOfBytes": "20"
      },
      "t_array(t_bytes32)dyn_storage": {
        "base": "t_bytes32",
        "encoding": "dynamic_array",
        "label": "bytes32[]",
        "numberOfBytes": "32"
      },
      "t_bool": {
        "encoding": "inplace",
        "label": "bool",
        "numberOfBytes": "1"
      },
      "t_bytes32": {
        "encoding": "inplace",
        "label": "bytes32",
        "numberOfBytes": "32"
      },
      "t_mapping(t_address,t_bool)": {
        "encoding": "mapping",
        "key": "t_address",
        "label": "mapping(address => bool)",
        "numberOfBytes": "32",
        "value": "t_bool"
      },
      "t_mapping(t_address,t_mapping(t_address,t_bool))": {
        "encoding": "mapping",
        "key": "t_address",
        "label": "mapping(address => mapping(address => bool))",
        "numberOfBytes": "32",
        "value": "t_mapping(t_address,t_bool)"
      },
      "t_mapping(t_address,t_mapping(t_address,t_uint256))": {
        "encoding": "mapping",
        "key": "t_address",
        "label": "mapping(address => mapping(address => uint256))",
        "numberOfBytes": "32",
        "value": "t_mapping(t_address,t_uint256)"
      },
      "t_mapping(t_address,t_struct(PurchaseData)18275_storage)": {
        "encoding": "mapping",
        "key": "t_address",
        "label": "mapping(address => struct LaunchToken.PurchaseData)",
        "numberOfBytes": "32",
        "value": "t_struct(PurchaseData)18275_storage"
      },
      "t_mapping(t_address,t_uint256)": {
        "encoding": "mapping",
        "key": "t_address",
        "label": "mapping(address => uint256)",
        "numberOfBytes": "32",
        "value": "t_uint256"
      },
      "t_mapping(t_address,t_uint32)": {
        "encoding": "mapping",
        "key": "t_address",
        "label": "mapping(address => uint32)",
        "numberOfBytes": "32",
        "value": "t_uint32"
      },
      "t_mapping(t_bytes32,t_bytes32)": {
        "encoding": "mapping",
        "key": "t_bytes32",
        "label": "mapping(bytes32 => bytes32)",
        "numberOfBytes": "32",
        "value": "t_bytes32"
      },
      "t_mapping(t_bytes32,t_uint256)": {
        "encoding": "mapping",
        "key": "t_bytes32",
        "label": "mapping(bytes32 => uint256)",
        "numberOfBytes": "32",
        "value": "t_uint256"
      },
      "t_mapping(t_uint32,t_bytes32)": {
        "encoding": "mapping",
        "key": "t_uint32",
        "label": "mapping(uint32 => bytes32)",
        "numberOfBytes": "32",
        "value": "t_bytes32"
      },
      "t_string_storage": {
        "encoding": "bytes",
        "label": "string",
        "numberOfBytes": "32"
      },
      "t_struct(AddressToUintMap)9670_storage": {
        "encoding": "inplace",
        "label": "struct EnumerableMap.AddressToUintMap",
        "members": [
          {
            "astId": 9669,
            "contract": "contracts/LaunchToken.sol:LaunchToken",
            "label": "_inner",
            "offset": 0,
            "slot": "0",
            "type": "t_struct(Bytes32ToBytes32Map)9012_storage"
          }
        ],
        "numberOfBytes": "96"
      },
      "t_struct(Bytes32Set)10310_storage": {
        "encoding": "inplace",
        "label": "struct EnumerableSet.Bytes32Set",
        "members": [
          {
            "astId": 10309,
            "contract": "contracts/LaunchToken.sol:LaunchToken",
            "label": "_inner",
            "offset": 0,
            "slot": "0",
            "type": "t_struct(Set)10116_storage"
          }
        ],
        "numberOfBytes": "64"
      },
      "t_struct(Bytes32ToBytes32Map)9012_storage": {
        "encoding": "inplace",
        "label": "struct EnumerableMap.Bytes32ToBytes32Map",
        "members": [
          {
            "astId": 9007,
            "contract": "contracts/LaunchToken.sol:LaunchToken",
            "label": "_keys",
            "offset": 0,
            "slot": "0",
            "type": "t_struct(Bytes32Set)10310_storage"
          },
          {
            "astId": 9011,
            "contract": "contracts/LaunchToken.sol:LaunchToken",
            "label": "_values",
            "offset": 0,
            "slot": "2",
            "type": "t_mapping(t_bytes32,t_bytes32)"
          }
        ],
        "numberOfBytes": "96"
      },
      "t_struct(PurchaseData)18275_storage": {
        "encoding": "inplace",
        "label": "struct LaunchToken.PurchaseData",
        "members": [
          {
            "astId": 18271,
            "contract": "contracts/LaunchToken.sol:LaunchToken",
            "label": "totalInvested",
            "offset": 0,
            "slot": "0",
            "type": "t_userDefinedValueType(UD60x18)17541"
          },
          {
            "astId": 18274,
            "contract": "contracts/LaunchToken.sol:LaunchToken",
            "label": "totalTokensPurchased",
            "offset": 0,
            "slot": "1",
            "type": "t_userDefinedValueType(UD60x18)17541"
          }
        ],
        "numberOfBytes": "64"
      },
      "t_struct(Set)10116_storage": {
        "encoding": "inplace",
        "label": "struct EnumerableSet.Set",
        "members": [
          {
            "astId": 10111,
            "contract": "contracts/LaunchToken.sol:LaunchToken",
            "label": "_values",
            "offset": 0,
            "slot": "0",
            "type": "t_array(t_bytes32)dyn_storage"
          },
          {
            "astId": 10115,
            "contract": "contracts/LaunchToken.sol:LaunchToken",
            "label": "_positions",
            "offset": 0,
            "slot": "1",
            "type": "t_mapping(t_bytes32,t_uint256)"
          }
        ],
        "numberOfBytes": "64"
      },
      "t_uint256": {
        "encoding": "inplace",
        "label": "uint256",
        "numberOfBytes": "32"
      },
      "t_uint32": {
        "encoding": "inplace",
        "label": "uint32",
        "numberOfBytes": "4"
      },
      "t_userDefinedValueType(UD60x18)17541": {
        "encoding": "inplace",
        "label": "UD60x18",
        "numberOfBytes": "32"
      }
    }
  }
}