{
  "address": "0x7238AeF33A31795413f1Be348174965B64DbA864",
  "abi": [
    {
      "inputs": [
        {
          "internalType": "address",
          "name": "_endpoint",
          "type": "address"
        },
        {
          "internalType": "uint32",
          "name": "_destEid",
          "type": "uint32"
        }
      ],
      "stateMutability": "nonpayable",
      "type": "constructor"
    },
    {
      "inputs": [
        {
          "internalType": "address",
          "name": "target",
          "type": "address"
        }
      ],
      "name": "AddressEmptyCode",
      "type": "error"
    },
    {
      "inputs": [
        {
          "internalType": "address",
          "name": "account",
          "type": "address"
        }
      ],
      "name": "AddressInsufficientBalance",
      "type": "error"
    },
    {
      "inputs": [
        {
          "internalType": "bytes32",
          "name": "key",
          "type": "bytes32"
        }
      ],
      "name": "EnumerableMapNonexistentKey",
      "type": "error"
    },
    {
      "inputs": [],
      "name": "FailedInnerCall",
      "type": "error"
    },
    {
      "inputs": [],
      "name": "InvalidDelegate",
      "type": "error"
    },
    {
      "inputs": [],
      "name": "InvalidEndpointCall",
      "type": "error"
    },
    {
      "inputs": [
        {
          "internalType": "uint16",
          "name": "optionType",
          "type": "uint16"
        }
      ],
      "name": "InvalidOptionType",
      "type": "error"
    },
    {
      "inputs": [],
      "name": "LzTokenUnavailable",
      "type": "error"
    },
    {
      "inputs": [
        {
          "internalType": "uint32",
          "name": "eid",
          "type": "uint32"
        }
      ],
      "name": "NoPeer",
      "type": "error"
    },
    {
      "inputs": [
        {
          "internalType": "uint256",
          "name": "msgValue",
          "type": "uint256"
        }
      ],
      "name": "NotEnoughNative",
      "type": "error"
    },
    {
      "inputs": [
        {
          "internalType": "address",
          "name": "addr",
          "type": "address"
        }
      ],
      "name": "OnlyEndpoint",
      "type": "error"
    },
    {
      "inputs": [
        {
          "internalType": "uint32",
          "name": "eid",
          "type": "uint32"
        },
        {
          "internalType": "bytes32",
          "name": "sender",
          "type": "bytes32"
        }
      ],
      "name": "OnlyPeer",
      "type": "error"
    },
    {
      "inputs": [
        {
          "internalType": "address",
          "name": "owner",
          "type": "address"
        }
      ],
      "name": "OwnableInvalidOwner",
      "type": "error"
    },
    {
      "inputs": [
        {
          "internalType": "address",
          "name": "account",
          "type": "address"
        }
      ],
      "name": "OwnableUnauthorizedAccount",
      "type": "error"
    },
    {
      "inputs": [
        {
          "internalType": "uint8",
          "name": "bits",
          "type": "uint8"
        },
        {
          "internalType": "uint256",
          "name": "value",
          "type": "uint256"
        }
      ],
      "name": "SafeCastOverflowedUintDowncast",
      "type": "error"
    },
    {
      "inputs": [
        {
          "internalType": "address",
          "name": "token",
          "type": "address"
        }
      ],
      "name": "SafeERC20FailedOperation",
      "type": "error"
    },
    {
      "anonymous": false,
      "inputs": [
        {
          "indexed": true,
          "internalType": "address",
          "name": "previousOwner",
          "type": "address"
        },
        {
          "indexed": true,
          "internalType": "address",
          "name": "newOwner",
          "type": "address"
        }
      ],
      "name": "OwnershipTransferred",
      "type": "event"
    },
    {
      "anonymous": false,
      "inputs": [
        {
          "indexed": false,
          "internalType": "uint32",
          "name": "eid",
          "type": "uint32"
        },
        {
          "indexed": false,
          "internalType": "bytes32",
          "name": "peer",
          "type": "bytes32"
        }
      ],
      "name": "PeerSet",
      "type": "event"
    },
    {
      "inputs": [
        {
          "components": [
            {
              "internalType": "uint32",
              "name": "srcEid",
              "type": "uint32"
            },
            {
              "internalType": "bytes32",
              "name": "sender",
              "type": "bytes32"
            },
            {
              "internalType": "uint64",
              "name": "nonce",
              "type": "uint64"
            }
          ],
          "internalType": "struct Origin",
          "name": "origin",
          "type": "tuple"
        }
      ],
      "name": "allowInitializePath",
      "outputs": [
        {
          "internalType": "bool",
          "name": "",
          "type": "bool"
        }
      ],
      "stateMutability": "view",
      "type": "function"
    },
    {
      "inputs": [
        {
          "internalType": "address",
          "name": "token",
          "type": "address"
        },
        {
          "internalType": "uint256",
          "name": "amount",
          "type": "uint256"
        }
      ],
      "name": "buildSponsorMessage",
      "outputs": [
        {
          "internalType": "bytes",
          "name": "",
          "type": "bytes"
        }
      ],
      "stateMutability": "view",
      "type": "function"
    },
    {
      "inputs": [],
      "name": "destEid",
      "outputs": [
        {
          "internalType": "uint32",
          "name": "",
          "type": "uint32"
        }
      ],
      "stateMutability": "view",
      "type": "function"
    },
    {
      "inputs": [],
      "name": "endpoint",
      "outputs": [
        {
          "internalType": "contract ILayerZeroEndpointV2",
          "name": "",
          "type": "address"
        }
      ],
      "stateMutability": "view",
      "type": "function"
    },
    {
      "inputs": [],
      "name": "getRewardTokens",
      "outputs": [
        {
          "internalType": "address[]",
          "name": "",
          "type": "address[]"
        }
      ],
      "stateMutability": "view",
      "type": "function"
    },
    {
      "inputs": [
        {
          "internalType": "address",
          "name": "token",
          "type": "address"
        }
      ],
      "name": "getRewards",
      "outputs": [
        {
          "internalType": "uint256",
          "name": "",
          "type": "uint256"
        }
      ],
      "stateMutability": "view",
      "type": "function"
    },
    {
      "inputs": [
        {
          "components": [
            {
              "internalType": "uint32",
              "name": "srcEid",
              "type": "uint32"
            },
            {
              "internalType": "bytes32",
              "name": "sender",
              "type": "bytes32"
            },
            {
              "internalType": "uint64",
              "name": "nonce",
              "type": "uint64"
            }
          ],
          "internalType": "struct Origin",
          "name": "",
          "type": "tuple"
        },
        {
          "internalType": "bytes",
          "name": "",
          "type": "bytes"
        },
        {
          "internalType": "address",
          "name": "_sender",
          "type": "address"
        }
      ],
      "name": "isComposeMsgSender",
      "outputs": [
        {
          "internalType": "bool",
          "name": "",
          "type": "bool"
        }
      ],
      "stateMutability": "view",
      "type": "function"
    },
    {
      "inputs": [
        {
          "components": [
            {
              "internalType": "uint32",
              "name": "srcEid",
              "type": "uint32"
            },
            {
              "internalType": "bytes32",
              "name": "sender",
              "type": "bytes32"
            },
            {
              "internalType": "uint64",
              "name": "nonce",
              "type": "uint64"
            }
          ],
          "internalType": "struct Origin",
          "name": "_origin",
          "type": "tuple"
        },
        {
          "internalType": "bytes32",
          "name": "_guid",
          "type": "bytes32"
        },
        {
          "internalType": "bytes",
          "name": "_message",
          "type": "bytes"
        },
        {
          "internalType": "address",
          "name": "_executor",
          "type": "address"
        },
        {
          "internalType": "bytes",
          "name": "_extraData",
          "type": "bytes"
        }
      ],
      "name": "lzReceive",
      "outputs": [],
      "stateMutability": "payable",
      "type": "function"
    },
    {
      "inputs": [
        {
          "internalType": "uint32",
          "name": "",
          "type": "uint32"
        },
        {
          "internalType": "bytes32",
          "name": "",
          "type": "bytes32"
        }
      ],
      "name": "nextNonce",
      "outputs": [
        {
          "internalType": "uint64",
          "name": "nonce",
          "type": "uint64"
        }
      ],
      "stateMutability": "view",
      "type": "function"
    },
    {
      "inputs": [],
      "name": "oAppVersion",
      "outputs": [
        {
          "internalType": "uint64",
          "name": "senderVersion",
          "type": "uint64"
        },
        {
          "internalType": "uint64",
          "name": "receiverVersion",
          "type": "uint64"
        }
      ],
      "stateMutability": "pure",
      "type": "function"
    },
    {
      "inputs": [],
      "name": "owner",
      "outputs": [
        {
          "internalType": "address",
          "name": "",
          "type": "address"
        }
      ],
      "stateMutability": "view",
      "type": "function"
    },
    {
      "inputs": [
        {
          "internalType": "uint32",
          "name": "eid",
          "type": "uint32"
        }
      ],
      "name": "peers",
      "outputs": [
        {
          "internalType": "bytes32",
          "name": "peer",
          "type": "bytes32"
        }
      ],
      "stateMutability": "view",
      "type": "function"
    },
    {
      "inputs": [
        {
          "internalType": "address",
          "name": "token",
          "type": "address"
        },
        {
          "internalType": "uint256",
          "name": "amount",
          "type": "uint256"
        },
        {
          "internalType": "uint128",
          "name": "executorGasLimit",
          "type": "uint128"
        }
      ],
      "name": "quoteSponsor",
      "outputs": [
        {
          "components": [
            {
              "internalType": "uint256",
              "name": "nativeFee",
              "type": "uint256"
            },
            {
              "internalType": "uint256",
              "name": "lzTokenFee",
              "type": "uint256"
            }
          ],
          "internalType": "struct MessagingFee",
          "name": "fee",
          "type": "tuple"
        }
      ],
      "stateMutability": "view",
      "type": "function"
    },
    {
      "inputs": [],
      "name": "renounceOwnership",
      "outputs": [],
      "stateMutability": "nonpayable",
      "type": "function"
    },
    {
      "inputs": [
        {
          "internalType": "address",
          "name": "_delegate",
          "type": "address"
        }
      ],
      "name": "setDelegate",
      "outputs": [],
      "stateMutability": "nonpayable",
      "type": "function"
    },
    {
      "inputs": [
        {
          "internalType": "uint32",
          "name": "_destEid",
          "type": "uint32"
        }
      ],
      "name": "setDestEid",
      "outputs": [],
      "stateMutability": "nonpayable",
      "type": "function"
    },
    {
      "inputs": [
        {
          "internalType": "uint32",
          "name": "_eid",
          "type": "uint32"
        },
        {
          "internalType": "bytes32",
          "name": "_peer",
          "type": "bytes32"
        }
      ],
      "name": "setPeer",
      "outputs": [],
      "stateMutability": "nonpayable",
      "type": "function"
    },
    {
      "inputs": [
        {
          "internalType": "address",
          "name": "token",
          "type": "address"
        },
        {
          "internalType": "uint256",
          "name": "amount",
          "type": "uint256"
        },
        {
          "internalType": "uint128",
          "name": "executorGasLimit",
          "type": "uint128"
        }
      ],
      "name": "sponsor",
      "outputs": [],
      "stateMutability": "payable",
      "type": "function"
    },
    {
      "inputs": [
        {
          "internalType": "address",
          "name": "newOwner",
          "type": "address"
        }
      ],
      "name": "transferOwnership",
      "outputs": [],
      "stateMutability": "nonpayable",
      "type": "function"
    },
    {
      "inputs": [
        {
          "internalType": "address",
          "name": "token",
          "type": "address"
        },
        {
          "internalType": "uint256",
          "name": "amount",
          "type": "uint256"
        },
        {
          "internalType": "uint128",
          "name": "executorGasLimit",
          "type": "uint128"
        }
      ],
      "name": "unsponsor",
      "outputs": [],
      "stateMutability": "payable",
      "type": "function"
    }
  ],
  "transactionHash": "0x8fd007ad30566b9ae9279b56253e4de395d590a892a15509dea379be29c1990d",
  "args": [
    "0x6EDCE65403992e310A62460808c4b910D972f10f",
    "40245"
  ],
  "numDeployments": 1,
  "solcInputHash": "569f0862dc4b134d7c63c4715acd2903",
  "bytecode": "0x60a06040523480156200001157600080fd5b5060405162001de538038062001de5833981016040819052620000349162000171565b8133818180806200005f57604051631e4fbdf760e01b81526000600482015260240160405180910390fd5b6200006a8162000121565b506001600160a01b0380831660805281166200009957604051632d618d8160e21b815260040160405180910390fd5b60805160405163ca5eb5e160e01b81526001600160a01b0383811660048301529091169063ca5eb5e190602401600060405180830381600087803b158015620000e157600080fd5b505af1158015620000f6573d6000803e3d6000fd5b50506002805463ffffffff191663ffffffff989098169790971790965550620001c395505050505050565b600080546001600160a01b038381166001600160a01b0319831681178455604051919092169283917f8be0079c531659141344cd1fd0a4f28419497f9722a3daafe3b4186f6b6457e09190a35050565b600080604083850312156200018557600080fd5b82516001600160a01b03811681146200019d57600080fd5b602084015190925063ffffffff81168114620001b857600080fd5b809150509250929050565b608051611bd562000210600039600081816101b80152818161067001528181610963015281816109c601528181610c0c01528181610ea101528181611172015261122b0152611bd56000f3fe60806040526004361061011f5760003560e01c80638da5cb5b116100a0578063ca5eb5e111610064578063ca5eb5e11461038a578063f17a409f146103aa578063f2fde38b146103d7578063f9d77c37146103f7578063ff7bd03d1461041757600080fd5b80638da5cb5b146102b05780638ee0c9d7146102ce578063991e3e1f14610309578063bb0b6a531461033b578063c4f59f9b1461036857600080fd5b80635e280f11116100e75780635e280f11146101a6578063715018a6146101f257806379ee54f7146102075780637d25a05e1461023557806382413eac1461027157600080fd5b806306b6af521461012457806313137d651461013957806317442b701461014c5780633400288b146101735780633f0ab89414610193575b600080fd5b61013761013236600461158f565b610437565b005b610137610147366004611637565b61066e565b34801561015857600080fd5b50604080516001815260026020820152015b60405180910390f35b34801561017f57600080fd5b5061013761018e3660046116e9565b610720565b6101376101a136600461158f565b610736565b3480156101b257600080fd5b506101da7f000000000000000000000000000000000000000000000000000000000000000081565b6040516001600160a01b03909116815260200161016a565b3480156101fe57600080fd5b50610137610891565b34801561021357600080fd5b50610227610222366004611715565b6108a5565b60405190815260200161016a565b34801561024157600080fd5b506102586102503660046116e9565b600092915050565b60405167ffffffffffffffff909116815260200161016a565b34801561027d57600080fd5b506102a061028c366004611732565b6001600160a01b0381163014949350505050565b604051901515815260200161016a565b3480156102bc57600080fd5b506000546001600160a01b03166101da565b3480156102da57600080fd5b506102ee6102e936600461158f565b6108b8565b6040805182518152602092830151928101929092520161016a565b34801561031557600080fd5b506002546103269063ffffffff1681565b60405163ffffffff909116815260200161016a565b34801561034757600080fd5b50610227610356366004611799565b60016020526000908152604090205481565b34801561037457600080fd5b5061037d61092b565b60405161016a91906117b6565b34801561039657600080fd5b506101376103a5366004611715565b61093c565b3480156103b657600080fd5b506103ca6103c5366004611803565b6109c2565b60405161016a9190611871565b3480156103e357600080fd5b506101376103f2366004611715565b610a87565b34801561040357600080fd5b50610137610412366004611799565b610ac5565b34801561042357600080fd5b506102a0610432366004611884565b610ae9565b816001600160a01b03841663dd62ed3e336040516001600160e01b031960e084901b1681526001600160a01b039091166004820152306024820152604401602060405180830381865afa158015610492573d6000803e3d6000fd5b505050506040513d601f19601f820116820180604052508101906104b691906118a0565b10156104fd5760405162461bcd60e51b8152602060048201526011602482015270105b1b1bddd85b98d9481b9bdd081cd95d607a1b60448201526064015b60405180910390fd5b6001600160a01b0383166323b872dd336040516001600160e01b031960e084901b1681526001600160a01b039091166004820152306024820152604481018590526064016020604051808303816000875af1158015610560573d6000803e3d6000fd5b505050506040513d601f19601f8201168201806040525081019061058491906118b9565b506000610592600385610b1f565b91506105ad9050846105a485846118f1565b60039190610b46565b503360009081526006602090815260408083206001600160a01b0388168452909152812080548592906105e19084906118f1565b90915550600090506105f8856103c5600382610b66565b9050600061062f84600061062860408051600360f01b602082015281516002818303018152602290910190915290565b9190610b7b565b9050610665600260009054906101000a900463ffffffff1683836040518060400160405280348152602001600081525030610bd9565b50505050505050565b7f00000000000000000000000000000000000000000000000000000000000000006001600160a01b031633146106b9576040516391ac5e4f60e01b81523360048201526024016104f4565b602087018035906106d3906106ce908a611799565b610ce4565b14610711576106e56020880188611799565b60405163309afaf360e21b815263ffffffff9091166004820152602088013560248201526044016104f4565b61066587878787878787610d20565b610728610db9565b6107328282610de6565b5050565b3360009081526006602090815260408083206001600160a01b0387168452909152902054828110156107aa5760405162461bcd60e51b815260206004820152601860248201527f496e73756666696369656e742073706f6e736f7273686970000000000000000060448201526064016104f4565b3360009081526006602090815260408083206001600160a01b0388168452909152812080548592906107dd908490611904565b909155506107fd905084846107f3600383610b66565b6105a49190611904565b506001600160a01b03841663a9059cbb336040516001600160e01b031960e084901b1681526001600160a01b039091166004820152602481018690526044016020604051808303816000875af115801561085b573d6000803e3d6000fd5b505050506040513d601f19601f8201168201806040525081019061087f91906118b9565b5060006105f8856103c5600382610b66565b610899610db9565b6108a36000610e3b565b565b60006108b2600383610b66565b92915050565b604080518082019091526000808252602082015260006108d885856109c2565b9050600061090884600061062860408051600360f01b602082015281516002818303018152602290910190915290565b6002549091506109219063ffffffff1683836000610e8b565b9695505050505050565b60606109376003610f6c565b905090565b610944610db9565b60405163ca5eb5e160e01b81526001600160a01b0382811660048301527f0000000000000000000000000000000000000000000000000000000000000000169063ca5eb5e190602401600060405180830381600087803b1580156109a757600080fd5b505af11580156109bb573d6000803e3d6000fd5b5050505050565b60607f00000000000000000000000000000000000000000000000000000000000000006001600160a01b031663416ecebf6040518163ffffffff1660e01b8152600401602060405180830381865afa158015610a22573d6000803e3d6000fd5b505050506040513d601f19601f82011682018060405250810190610a469190611917565b6040805163ffffffff90921660208301526001600160a01b03851690820152606081018390526080015b604051602081830303815290604052905092915050565b610a8f610db9565b6001600160a01b038116610ab957604051631e4fbdf760e01b8152600060048201526024016104f4565b610ac281610e3b565b50565b610acd610db9565b6002805463ffffffff191663ffffffff92909216919091179055565b6000602082018035906001908390610b019086611799565b63ffffffff1681526020810191909152604001600020541492915050565b6000808080610b37866001600160a01b038716610f79565b909450925050505b9250929050565b6000610b5c846001600160a01b03851684610fb3565b90505b9392505050565b6000610b5f836001600160a01b038416610fd0565b6060836003610b8b826000611017565b61ffff1614610bbf57610b9f816000611017565b604051633a51740d60e01b815261ffff90911660048201526024016104f4565b6000610bcb8585611074565b9050610921866001836110db565b610be1611532565b6000610bf08460000151611146565b602085015190915015610c0a57610c0a846020015161116e565b7f00000000000000000000000000000000000000000000000000000000000000006001600160a01b0316632637a450826040518060a001604052808b63ffffffff168152602001610c5a8c610ce4565b81526020018a815260200189815260200160008960200151111515815250866040518463ffffffff1660e01b8152600401610c96929190611934565b60806040518083038185885af1158015610cb4573d6000803e3d6000fd5b50505050506040513d601f19601f82011682018060405250810190610cd99190611a0a565b979650505050505050565b63ffffffff8116600090815260016020526040812054806108b25760405163f6ff4fb760e01b815263ffffffff841660048201526024016104f4565b60008080610d3087890189611a8a565b60405163a9059cbb60e01b81526001600160a01b0380831660048301526024820184905293965091945092509084169063a9059cbb906044016020604051808303816000875af1158015610d88573d6000803e3d6000fd5b505050506040513d601f19601f82011682018060405250810190610dac91906118b9565b5050505050505050505050565b6000546001600160a01b031633146108a35760405163118cdaa760e01b81523360048201526024016104f4565b63ffffffff8216600081815260016020908152604091829020849055815192835282018390527f238399d427b947898edb290f5ff0f9109849b1c3ba196a42e35f00c50a54b98b910160405180910390a15050565b600080546001600160a01b038381166001600160a01b0319831681178455604051919092169283917f8be0079c531659141344cd1fd0a4f28419497f9722a3daafe3b4186f6b6457e09190a35050565b60408051808201909152600080825260208201527f00000000000000000000000000000000000000000000000000000000000000006001600160a01b031663ddc28c586040518060a001604052808863ffffffff168152602001610eee89610ce4565b8152602001878152602001868152602001851515815250306040518363ffffffff1660e01b8152600401610f23929190611934565b6040805180830381865afa158015610f3f573d6000803e3d6000fd5b505050506040513d601f19601f82011682018060405250810190610f639190611ac1565b95945050505050565b60606000610b5f83611250565b6000818152600283016020526040812054819080610fa857610f9b858561125b565b925060009150610b3f9050565b600192509050610b3f565b60008281526002840160205260408120829055610b5c8484611267565b600081815260028301602052604081205480158015610ff65750610ff4848461125b565b155b15610b5f5760405163015ab34360e11b8152600481018490526024016104f4565b60006110248260026118f1565b8351101561106b5760405162461bcd60e51b8152602060048201526014602482015273746f55696e7431365f6f75744f66426f756e647360601b60448201526064016104f4565b50016002015190565b60606001600160801b038216156110bc57604080516001600160801b0319608086811b8216602084015285901b16603082015201604051602081830303815290604052610b5f565b6040516001600160801b0319608085901b166020820152603001610a70565b60608360036110eb826000611017565b61ffff16146110ff57610b9f816000611017565b84600161110c8551611273565b611117906001611add565b868660405160200161112d959493929190611aff565b6040516020818303038152906040529150509392505050565b600081341461116a576040516304fb820960e51b81523460048201526024016104f4565b5090565b60007f00000000000000000000000000000000000000000000000000000000000000006001600160a01b031663e4fe1d946040518163ffffffff1660e01b8152600401602060405180830381865afa1580156111ce573d6000803e3d6000fd5b505050506040513d601f19601f820116820180604052508101906111f29190611b66565b90506001600160a01b03811661121b576040516329b99a9560e11b815260040160405180910390fd5b6107326001600160a01b038216337f0000000000000000000000000000000000000000000000000000000000000000856112a2565b60606108b282611302565b6000610b5f838361130f565b6000610b5f8383611327565b600061ffff82111561116a576040516306dfcc6560e41b815260106004820152602481018390526044016104f4565b604080516001600160a01b0385811660248301528416604482015260648082018490528251808303909101815260849091019091526020810180516001600160e01b03166323b872dd60e01b1790526112fc908590611376565b50505050565b60606000610b5f836113de565b60008181526001830160205260408120541515610b5f565b600081815260018301602052604081205461136e575081546001818101845560008481526020808220909301849055845484825282860190935260409020919091556108b2565b5060006108b2565b600061138b6001600160a01b0384168361143a565b905080516000141580156113b05750808060200190518101906113ae91906118b9565b155b156113d957604051635274afe760e01b81526001600160a01b03841660048201526024016104f4565b505050565b60608160000180548060200260200160405190810160405280929190818152602001828054801561142e57602002820191906000526020600020905b81548152602001906001019080831161141a575b50505050509050919050565b6060610b5f8383600084600080856001600160a01b031684866040516114609190611b83565b60006040518083038185875af1925050503d806000811461149d576040519150601f19603f3d011682016040523d82523d6000602084013e6114a2565b606091505b50915091506109218683836060826114c2576114bd82611509565b610b5f565b81511580156114d957506001600160a01b0384163b155b1561150257604051639996b31560e01b81526001600160a01b03851660048201526024016104f4565b5080610b5f565b8051156115195780518082602001fd5b604051630a12f52160e11b815260040160405180910390fd5b604051806060016040528060008019168152602001600067ffffffffffffffff168152602001611575604051806040016040528060008152602001600081525090565b905290565b6001600160a01b0381168114610ac257600080fd5b6000806000606084860312156115a457600080fd5b83356115af8161157a565b92506020840135915060408401356001600160801b03811681146115d257600080fd5b809150509250925092565b6000606082840312156115ef57600080fd5b50919050565b60008083601f84011261160757600080fd5b50813567ffffffffffffffff81111561161f57600080fd5b602083019150836020828501011115610b3f57600080fd5b600080600080600080600060e0888a03121561165257600080fd5b61165c89896115dd565b965060608801359550608088013567ffffffffffffffff8082111561168057600080fd5b61168c8b838c016115f5565b909750955060a08a013591506116a18261157a565b90935060c089013590808211156116b757600080fd5b506116c48a828b016115f5565b989b979a50959850939692959293505050565b63ffffffff81168114610ac257600080fd5b600080604083850312156116fc57600080fd5b8235611707816116d7565b946020939093013593505050565b60006020828403121561172757600080fd5b8135610b5f8161157a565b60008060008060a0858703121561174857600080fd5b61175286866115dd565b9350606085013567ffffffffffffffff81111561176e57600080fd5b61177a878288016115f5565b909450925050608085013561178e8161157a565b939692955090935050565b6000602082840312156117ab57600080fd5b8135610b5f816116d7565b6020808252825182820181905260009190848201906040850190845b818110156117f75783516001600160a01b0316835292840192918401916001016117d2565b50909695505050505050565b6000806040838503121561181657600080fd5b82356117078161157a565b60005b8381101561183c578181015183820152602001611824565b50506000910152565b6000815180845261185d816020860160208601611821565b601f01601f19169290920160200192915050565b602081526000610b5f6020830184611845565b60006060828403121561189657600080fd5b610b5f83836115dd565b6000602082840312156118b257600080fd5b5051919050565b6000602082840312156118cb57600080fd5b81518015158114610b5f57600080fd5b634e487b7160e01b600052601160045260246000fd5b808201808211156108b2576108b26118db565b818103818111156108b2576108b26118db565b60006020828403121561192957600080fd5b8151610b5f816116d7565b6040815263ffffffff8351166040820152602083015160608201526000604084015160a0608084015261196a60e0840182611845565b90506060850151603f198483030160a08501526119878282611845565b60809690960151151560c08501525050506001600160a01b039190911660209091015290565b6000604082840312156119bf57600080fd5b6040516040810181811067ffffffffffffffff821117156119f057634e487b7160e01b600052604160045260246000fd5b604052825181526020928301519281019290925250919050565b600060808284031215611a1c57600080fd5b6040516060810167ffffffffffffffff8282108183111715611a4e57634e487b7160e01b600052604160045260246000fd5b8160405284518352602085015191508082168214611a6b57600080fd5b506020820152611a7e84604085016119ad565b60408201529392505050565b600080600060608486031215611a9f57600080fd5b8335611aaa8161157a565b92506020840135915060408401356115d28161157a565b600060408284031215611ad357600080fd5b610b5f83836119ad565b61ffff818116838216019080821115611af857611af86118db565b5092915050565b60008651611b11818460208b01611821565b6001600160f81b031960f888811b82169285019283526001600160f01b031960f089901b16600184015286901b1660038201528351611b57816004840160208801611821565b01600401979650505050505050565b600060208284031215611b7857600080fd5b8151610b5f8161157a565b60008251611b95818460208701611821565b919091019291505056fea2646970667358221220122f374a9080b5592633b7771e08b8f3d8e7d88c86b38d00bc348d3a8acc5efa64736f6c63430008160033",
  "devdoc": {
    "errors": {
      "AddressEmptyCode(address)": [
        {
          "details": "There's no code at `target` (it is not a contract)."
        }
      ],
      "AddressInsufficientBalance(address)": [
        {
          "details": "The ETH balance of the account is not enough to perform the operation."
        }
      ],
      "EnumerableMapNonexistentKey(bytes32)": [
        {
          "details": "Query for a nonexistent map key."
        }
      ],
      "FailedInnerCall()": [
        {
          "details": "A call to an address target failed. The target may have reverted."
        }
      ],
      "OwnableInvalidOwner(address)": [
        {
          "details": "The owner is not a valid owner account. (eg. `address(0)`)"
        }
      ],
      "OwnableUnauthorizedAccount(address)": [
        {
          "details": "The caller account is not authorized to perform an operation."
        }
      ],
      "SafeCastOverflowedUintDowncast(uint8,uint256)": [
        {
          "details": "Value doesn't fit in an uint of `bits` size."
        }
      ],
      "SafeERC20FailedOperation(address)": [
        {
          "details": "An operation with an ERC20 token failed."
        }
      ]
    },
    "kind": "dev",
    "methods": {
      "allowInitializePath((uint32,bytes32,uint64))": {
        "details": "This indicates to the endpoint that the OApp has enabled msgs for this particular path to be received.This defaults to assuming if a peer has been set, its initialized. Can be overridden by the OApp if there is other logic to determine this.",
        "params": {
          "origin": "The origin information containing the source endpoint and sender address."
        },
        "returns": {
          "_0": "Whether the path has been initialized."
        }
      },
      "isComposeMsgSender((uint32,bytes32,uint64),bytes,address)": {
        "details": "_origin The origin information containing the source endpoint and sender address.  - srcEid: The source chain endpoint ID.  - sender: The sender address on the src chain.  - nonce: The nonce of the message._message The lzReceive payload.Applications can optionally choose to implement separate composeMsg senders that are NOT the bridging layer.The default sender IS the OAppReceiver implementer.",
        "params": {
          "_sender": "The sender address."
        },
        "returns": {
          "_0": "isSender Is a valid sender."
        }
      },
      "lzReceive((uint32,bytes32,uint64),bytes32,bytes,address,bytes)": {
        "details": "Entry point for receiving messages or packets from the endpoint.Entry point for receiving msg/packet from the LayerZero endpoint.",
        "params": {
          "_executor": "The address of the executor for the received message.",
          "_extraData": "Additional arbitrary data provided by the corresponding executor.",
          "_guid": "The unique identifier for the received LayerZero message.",
          "_message": "The payload of the received message.",
          "_origin": "The origin information containing the source endpoint and sender address.  - srcEid: The source chain endpoint ID.  - sender: The sender address on the src chain.  - nonce: The nonce of the message."
        }
      },
      "nextNonce(uint32,bytes32)": {
        "details": "_srcEid The source endpoint ID._sender The sender address.The path nonce starts from 1. If 0 is returned it means that there is NO nonce ordered enforcement.Is required by the off-chain executor to determine the OApp expects msg execution is ordered.This is also enforced by the OApp.By default this is NOT enabled. ie. nextNonce is hardcoded to return 0.",
        "returns": {
          "nonce": "The next nonce."
        }
      },
      "oAppVersion()": {
        "returns": {
          "receiverVersion": "The version of the OAppReceiver.sol implementation.",
          "senderVersion": "The version of the OAppSender.sol implementation."
        }
      },
      "owner()": {
        "details": "Returns the address of the current owner."
      },
      "renounceOwnership()": {
        "details": "Leaves the contract without owner. It will not be possible to call `onlyOwner` functions. Can only be called by the current owner. NOTE: Renouncing ownership will leave the contract without an owner, thereby disabling any functionality that is only available to the owner."
      },
      "setDelegate(address)": {
        "details": "Only the owner/admin of the OApp can call this function.Provides the ability for a delegate to set configs, on behalf of the OApp, directly on the Endpoint contract.",
        "params": {
          "_delegate": "The address of the delegate to be set."
        }
      },
      "setPeer(uint32,bytes32)": {
        "details": "Only the owner/admin of the OApp can call this function.Indicates that the peer is trusted to send LayerZero messages to this OApp.Set this to bytes32(0) to remove the peer address.Peer is a bytes32 to accommodate non-evm chains.",
        "params": {
          "_eid": "The endpoint ID.",
          "_peer": "The address of the peer to be associated with the corresponding endpoint."
        }
      },
      "transferOwnership(address)": {
        "details": "Transfers ownership of the contract to a new account (`newOwner`). Can only be called by the current owner."
      }
    },
    "version": 1
  },
  "userdoc": {
    "kind": "user",
    "methods": {
      "allowInitializePath((uint32,bytes32,uint64))": {
        "notice": "Checks if the path initialization is allowed based on the provided origin."
      },
      "endpoint()": {
        "notice": "Retrieves the LayerZero endpoint associated with the OApp."
      },
      "isComposeMsgSender((uint32,bytes32,uint64),bytes,address)": {
        "notice": "Indicates whether an address is an approved composeMsg sender to the Endpoint."
      },
      "nextNonce(uint32,bytes32)": {
        "notice": "Retrieves the next nonce for a given source endpoint and sender address."
      },
      "oAppVersion()": {
        "notice": "Retrieves the OApp version information."
      },
      "peers(uint32)": {
        "notice": "Retrieves the peer (OApp) associated with a corresponding endpoint."
      },
      "setDelegate(address)": {
        "notice": "Sets the delegate address for the OApp."
      },
      "setPeer(uint32,bytes32)": {
        "notice": "Sets the peer address (OApp instance) for a corresponding endpoint."
      }
    },
    "version": 1
  },
  "storageLayout": {
    "storage": [
      {
        "astId": 2742,
        "contract": "contracts/RewardsDistributor.sol:RewardsDistributor",
        "label": "_owner",
        "offset": 0,
        "slot": "0",
        "type": "t_address"
      },
      {
        "astId": 539,
        "contract": "contracts/RewardsDistributor.sol:RewardsDistributor",
        "label": "peers",
        "offset": 0,
        "slot": "1",
        "type": "t_mapping(t_uint32,t_bytes32)"
      },
      {
        "astId": 7081,
        "contract": "contracts/RewardsDistributor.sol:RewardsDistributor",
        "label": "destEid",
        "offset": 0,
        "slot": "2",
        "type": "t_uint32"
      },
      {
        "astId": 7117,
        "contract": "contracts/RewardsDistributor.sol:RewardsDistributor",
        "label": "rewards",
        "offset": 0,
        "slot": "3",
        "type": "t_struct(AddressToUintMap)6003_storage"
      },
      {
        "astId": 7123,
        "contract": "contracts/RewardsDistributor.sol:RewardsDistributor",
        "label": "sponsors",
        "offset": 0,
        "slot": "6",
        "type": "t_mapping(t_address,t_mapping(t_address,t_uint256))"
      }
    ],
    "types": {
      "t_address": {
        "encoding": "inplace",
        "label": "address",
        "numberOfBytes": "20"
      },
      "t_array(t_bytes32)dyn_storage": {
        "base": "t_bytes32",
        "encoding": "dynamic_array",
        "label": "bytes32[]",
        "numberOfBytes": "32"
      },
      "t_bytes32": {
        "encoding": "inplace",
        "label": "bytes32",
        "numberOfBytes": "32"
      },
      "t_mapping(t_address,t_mapping(t_address,t_uint256))": {
        "encoding": "mapping",
        "key": "t_address",
        "label": "mapping(address => mapping(address => uint256))",
        "numberOfBytes": "32",
        "value": "t_mapping(t_address,t_uint256)"
      },
      "t_mapping(t_address,t_uint256)": {
        "encoding": "mapping",
        "key": "t_address",
        "label": "mapping(address => uint256)",
        "numberOfBytes": "32",
        "value": "t_uint256"
      },
      "t_mapping(t_bytes32,t_bytes32)": {
        "encoding": "mapping",
        "key": "t_bytes32",
        "label": "mapping(bytes32 => bytes32)",
        "numberOfBytes": "32",
        "value": "t_bytes32"
      },
      "t_mapping(t_bytes32,t_uint256)": {
        "encoding": "mapping",
        "key": "t_bytes32",
        "label": "mapping(bytes32 => uint256)",
        "numberOfBytes": "32",
        "value": "t_uint256"
      },
      "t_mapping(t_uint32,t_bytes32)": {
        "encoding": "mapping",
        "key": "t_uint32",
        "label": "mapping(uint32 => bytes32)",
        "numberOfBytes": "32",
        "value": "t_bytes32"
      },
      "t_struct(AddressToUintMap)6003_storage": {
        "encoding": "inplace",
        "label": "struct EnumerableMap.AddressToUintMap",
        "members": [
          {
            "astId": 6002,
            "contract": "contracts/RewardsDistributor.sol:RewardsDistributor",
            "label": "_inner",
            "offset": 0,
            "slot": "0",
            "type": "t_struct(Bytes32ToBytes32Map)5345_storage"
          }
        ],
        "numberOfBytes": "96"
      },
      "t_struct(Bytes32Set)6643_storage": {
        "encoding": "inplace",
        "label": "struct EnumerableSet.Bytes32Set",
        "members": [
          {
            "astId": 6642,
            "contract": "contracts/RewardsDistributor.sol:RewardsDistributor",
            "label": "_inner",
            "offset": 0,
            "slot": "0",
            "type": "t_struct(Set)6449_storage"
          }
        ],
        "numberOfBytes": "64"
      },
      "t_struct(Bytes32ToBytes32Map)5345_storage": {
        "encoding": "inplace",
        "label": "struct EnumerableMap.Bytes32ToBytes32Map",
        "members": [
          {
            "astId": 5340,
            "contract": "contracts/RewardsDistributor.sol:RewardsDistributor",
            "label": "_keys",
            "offset": 0,
            "slot": "0",
            "type": "t_struct(Bytes32Set)6643_storage"
          },
          {
            "astId": 5344,
            "contract": "contracts/RewardsDistributor.sol:RewardsDistributor",
            "label": "_values",
            "offset": 0,
            "slot": "2",
            "type": "t_mapping(t_bytes32,t_bytes32)"
          }
        ],
        "numberOfBytes": "96"
      },
      "t_struct(Set)6449_storage": {
        "encoding": "inplace",
        "label": "struct EnumerableSet.Set",
        "members": [
          {
            "astId": 6444,
            "contract": "contracts/RewardsDistributor.sol:RewardsDistributor",
            "label": "_values",
            "offset": 0,
            "slot": "0",
            "type": "t_array(t_bytes32)dyn_storage"
          },
          {
            "astId": 6448,
            "contract": "contracts/RewardsDistributor.sol:RewardsDistributor",
            "label": "_positions",
            "offset": 0,
            "slot": "1",
            "type": "t_mapping(t_bytes32,t_uint256)"
          }
        ],
        "numberOfBytes": "64"
      },
      "t_uint256": {
        "encoding": "inplace",
        "label": "uint256",
        "numberOfBytes": "32"
      },
      "t_uint32": {
        "encoding": "inplace",
        "label": "uint32",
        "numberOfBytes": "4"
      }
    }
  }
}