{
  "address": "0xD409ca01B35Ba99100469C9Bd600385692A8f030",
  "abi": [
    {
      "inputs": [
        {
          "internalType": "address",
          "name": "_factory",
          "type": "address"
        },
        {
          "internalType": "address",
          "name": "_positions",
          "type": "address"
        },
        {
          "internalType": "address",
          "name": "_weth",
          "type": "address"
        },
        {
          "internalType": "string",
          "name": "name",
          "type": "string"
        },
        {
          "internalType": "string",
          "name": "symbol",
          "type": "string"
        },
        {
          "internalType": "address",
          "name": "endpoint",
          "type": "address"
        },
        {
          "internalType": "int24",
          "name": "tickLower_",
          "type": "int24"
        },
        {
          "internalType": "int24",
          "name": "tickHigher_",
          "type": "int24"
        },
        {
          "internalType": "int24",
          "name": "poolTick_",
          "type": "int24"
        }
      ],
      "stateMutability": "nonpayable",
      "type": "constructor"
    },
    {
      "inputs": [
        {
          "internalType": "address",
          "name": "target",
          "type": "address"
        }
      ],
      "name": "AddressEmptyCode",
      "type": "error"
    },
    {
      "inputs": [
        {
          "internalType": "address",
          "name": "account",
          "type": "address"
        }
      ],
      "name": "AddressInsufficientBalance",
      "type": "error"
    },
    {
      "inputs": [],
      "name": "ECDSAInvalidSignature",
      "type": "error"
    },
    {
      "inputs": [
        {
          "internalType": "uint256",
          "name": "length",
          "type": "uint256"
        }
      ],
      "name": "ECDSAInvalidSignatureLength",
      "type": "error"
    },
    {
      "inputs": [
        {
          "internalType": "bytes32",
          "name": "s",
          "type": "bytes32"
        }
      ],
      "name": "ECDSAInvalidSignatureS",
      "type": "error"
    },
    {
      "inputs": [
        {
          "internalType": "address",
          "name": "spender",
          "type": "address"
        },
        {
          "internalType": "uint256",
          "name": "allowance",
          "type": "uint256"
        },
        {
          "internalType": "uint256",
          "name": "needed",
          "type": "uint256"
        }
      ],
      "name": "ERC20InsufficientAllowance",
      "type": "error"
    },
    {
      "inputs": [
        {
          "internalType": "address",
          "name": "sender",
          "type": "address"
        },
        {
          "internalType": "uint256",
          "name": "balance",
          "type": "uint256"
        },
        {
          "internalType": "uint256",
          "name": "needed",
          "type": "uint256"
        }
      ],
      "name": "ERC20InsufficientBalance",
      "type": "error"
    },
    {
      "inputs": [
        {
          "internalType": "address",
          "name": "approver",
          "type": "address"
        }
      ],
      "name": "ERC20InvalidApprover",
      "type": "error"
    },
    {
      "inputs": [
        {
          "internalType": "address",
          "name": "receiver",
          "type": "address"
        }
      ],
      "name": "ERC20InvalidReceiver",
      "type": "error"
    },
    {
      "inputs": [
        {
          "internalType": "address",
          "name": "sender",
          "type": "address"
        }
      ],
      "name": "ERC20InvalidSender",
      "type": "error"
    },
    {
      "inputs": [
        {
          "internalType": "address",
          "name": "spender",
          "type": "address"
        }
      ],
      "name": "ERC20InvalidSpender",
      "type": "error"
    },
    {
      "inputs": [
        {
          "internalType": "uint256",
          "name": "deadline",
          "type": "uint256"
        }
      ],
      "name": "ERC2612ExpiredSignature",
      "type": "error"
    },
    {
      "inputs": [
        {
          "internalType": "address",
          "name": "signer",
          "type": "address"
        },
        {
          "internalType": "address",
          "name": "owner",
          "type": "address"
        }
      ],
      "name": "ERC2612InvalidSigner",
      "type": "error"
    },
    {
      "inputs": [],
      "name": "EnforcedPause",
      "type": "error"
    },
    {
      "inputs": [
        {
          "internalType": "bytes32",
          "name": "key",
          "type": "bytes32"
        }
      ],
      "name": "EnumerableMapNonexistentKey",
      "type": "error"
    },
    {
      "inputs": [],
      "name": "ExpectedPause",
      "type": "error"
    },
    {
      "inputs": [],
      "name": "FailedInnerCall",
      "type": "error"
    },
    {
      "inputs": [
        {
          "internalType": "address",
          "name": "account",
          "type": "address"
        },
        {
          "internalType": "uint256",
          "name": "currentNonce",
          "type": "uint256"
        }
      ],
      "name": "InvalidAccountNonce",
      "type": "error"
    },
    {
      "inputs": [],
      "name": "InvalidDelegate",
      "type": "error"
    },
    {
      "inputs": [],
      "name": "InvalidEndpointCall",
      "type": "error"
    },
    {
      "inputs": [
        {
          "internalType": "uint16",
          "name": "optionType",
          "type": "uint16"
        }
      ],
      "name": "InvalidOptionType",
      "type": "error"
    },
    {
      "inputs": [],
      "name": "InvalidShortString",
      "type": "error"
    },
    {
      "inputs": [],
      "name": "LzTokenUnavailable",
      "type": "error"
    },
    {
      "inputs": [
        {
          "internalType": "uint32",
          "name": "eid",
          "type": "uint32"
        }
      ],
      "name": "NoPeer",
      "type": "error"
    },
    {
      "inputs": [
        {
          "internalType": "uint256",
          "name": "msgValue",
          "type": "uint256"
        }
      ],
      "name": "NotEnoughNative",
      "type": "error"
    },
    {
      "inputs": [
        {
          "internalType": "address",
          "name": "addr",
          "type": "address"
        }
      ],
      "name": "OnlyEndpoint",
      "type": "error"
    },
    {
      "inputs": [
        {
          "internalType": "uint32",
          "name": "eid",
          "type": "uint32"
        },
        {
          "internalType": "bytes32",
          "name": "sender",
          "type": "bytes32"
        }
      ],
      "name": "OnlyPeer",
      "type": "error"
    },
    {
      "inputs": [
        {
          "internalType": "address",
          "name": "owner",
          "type": "address"
        }
      ],
      "name": "OwnableInvalidOwner",
      "type": "error"
    },
    {
      "inputs": [
        {
          "internalType": "address",
          "name": "account",
          "type": "address"
        }
      ],
      "name": "OwnableUnauthorizedAccount",
      "type": "error"
    },
    {
      "inputs": [
        {
          "internalType": "uint256",
          "name": "x",
          "type": "uint256"
        },
        {
          "internalType": "uint256",
          "name": "y",
          "type": "uint256"
        }
      ],
      "name": "PRBMath_MulDiv18_Overflow",
      "type": "error"
    },
    {
      "inputs": [
        {
          "internalType": "uint256",
          "name": "x",
          "type": "uint256"
        },
        {
          "internalType": "uint256",
          "name": "y",
          "type": "uint256"
        },
        {
          "internalType": "uint256",
          "name": "denominator",
          "type": "uint256"
        }
      ],
      "name": "PRBMath_MulDiv_Overflow",
      "type": "error"
    },
    {
      "inputs": [
        {
          "internalType": "uint8",
          "name": "bits",
          "type": "uint8"
        },
        {
          "internalType": "uint256",
          "name": "value",
          "type": "uint256"
        }
      ],
      "name": "SafeCastOverflowedUintDowncast",
      "type": "error"
    },
    {
      "inputs": [
        {
          "internalType": "address",
          "name": "token",
          "type": "address"
        }
      ],
      "name": "SafeERC20FailedOperation",
      "type": "error"
    },
    {
      "inputs": [
        {
          "internalType": "string",
          "name": "str",
          "type": "string"
        }
      ],
      "name": "StringTooLong",
      "type": "error"
    },
    {
      "anonymous": false,
      "inputs": [
        {
          "indexed": true,
          "internalType": "address",
          "name": "owner",
          "type": "address"
        },
        {
          "indexed": true,
          "internalType": "address",
          "name": "spender",
          "type": "address"
        },
        {
          "indexed": false,
          "internalType": "uint256",
          "name": "value",
          "type": "uint256"
        }
      ],
      "name": "Approval",
      "type": "event"
    },
    {
      "anonymous": false,
      "inputs": [
        {
          "indexed": true,
          "internalType": "address",
          "name": "trader",
          "type": "address"
        },
        {
          "indexed": false,
          "internalType": "uint256",
          "name": "newSupply",
          "type": "uint256"
        },
        {
          "indexed": false,
          "internalType": "uint256",
          "name": "newBuyPrice",
          "type": "uint256"
        },
        {
          "indexed": false,
          "internalType": "uint256",
          "name": "amount",
          "type": "uint256"
        },
        {
          "indexed": false,
          "internalType": "uint256",
          "name": "ethAmount",
          "type": "uint256"
        }
      ],
      "name": "Buy",
      "type": "event"
    },
    {
      "anonymous": false,
      "inputs": [
        {
          "indexed": true,
          "internalType": "address",
          "name": "pool",
          "type": "address"
        },
        {
          "indexed": false,
          "internalType": "uint128",
          "name": "liquidity",
          "type": "uint128"
        },
        {
          "indexed": false,
          "internalType": "uint256",
          "name": "tokenId",
          "type": "uint256"
        }
      ],
      "name": "CurveEnded",
      "type": "event"
    },
    {
      "anonymous": false,
      "inputs": [],
      "name": "EIP712DomainChanged",
      "type": "event"
    },
    {
      "anonymous": false,
      "inputs": [
        {
          "indexed": true,
          "internalType": "address",
          "name": "previousOwner",
          "type": "address"
        },
        {
          "indexed": true,
          "internalType": "address",
          "name": "newOwner",
          "type": "address"
        }
      ],
      "name": "OwnershipTransferred",
      "type": "event"
    },
    {
      "anonymous": false,
      "inputs": [
        {
          "indexed": false,
          "internalType": "address",
          "name": "account",
          "type": "address"
        }
      ],
      "name": "Paused",
      "type": "event"
    },
    {
      "anonymous": false,
      "inputs": [
        {
          "indexed": false,
          "internalType": "uint32",
          "name": "eid",
          "type": "uint32"
        },
        {
          "indexed": false,
          "internalType": "bytes32",
          "name": "peer",
          "type": "bytes32"
        }
      ],
      "name": "PeerSet",
      "type": "event"
    },
    {
      "anonymous": false,
      "inputs": [
        {
          "indexed": true,
          "internalType": "address",
          "name": "holder",
          "type": "address"
        },
        {
          "indexed": true,
          "internalType": "address",
          "name": "token",
          "type": "address"
        },
        {
          "indexed": false,
          "internalType": "uint256",
          "name": "amount",
          "type": "uint256"
        },
        {
          "indexed": false,
          "internalType": "uint32",
          "name": "destination",
          "type": "uint32"
        }
      ],
      "name": "RewardsClaimed",
      "type": "event"
    },
    {
      "anonymous": false,
      "inputs": [
        {
          "indexed": true,
          "internalType": "address",
          "name": "trader",
          "type": "address"
        },
        {
          "indexed": false,
          "internalType": "uint256",
          "name": "newSupply",
          "type": "uint256"
        },
        {
          "indexed": false,
          "internalType": "uint256",
          "name": "newBuyPrice",
          "type": "uint256"
        },
        {
          "indexed": false,
          "internalType": "uint256",
          "name": "amount",
          "type": "uint256"
        },
        {
          "indexed": false,
          "internalType": "uint256",
          "name": "ethAmount",
          "type": "uint256"
        }
      ],
      "name": "Sell",
      "type": "event"
    },
    {
      "anonymous": false,
      "inputs": [
        {
          "indexed": false,
          "internalType": "uint256",
          "name": "one",
          "type": "uint256"
        },
        {
          "indexed": false,
          "internalType": "uint256",
          "name": "two",
          "type": "uint256"
        },
        {
          "indexed": false,
          "internalType": "uint256",
          "name": "three",
          "type": "uint256"
        },
        {
          "indexed": false,
          "internalType": "uint256",
          "name": "four",
          "type": "uint256"
        }
      ],
      "name": "Test",
      "type": "event"
    },
    {
      "anonymous": false,
      "inputs": [
        {
          "indexed": true,
          "internalType": "address",
          "name": "from",
          "type": "address"
        },
        {
          "indexed": true,
          "internalType": "address",
          "name": "to",
          "type": "address"
        },
        {
          "indexed": false,
          "internalType": "uint256",
          "name": "value",
          "type": "uint256"
        }
      ],
      "name": "Transfer",
      "type": "event"
    },
    {
      "anonymous": false,
      "inputs": [
        {
          "indexed": false,
          "internalType": "address",
          "name": "account",
          "type": "address"
        }
      ],
      "name": "Unpaused",
      "type": "event"
    },
    {
      "inputs": [],
      "name": "BURN_AMOUNT",
      "outputs": [
        {
          "internalType": "uint256",
          "name": "",
          "type": "uint256"
        }
      ],
      "stateMutability": "view",
      "type": "function"
    },
    {
      "inputs": [],
      "name": "CREATOR_MAX_BUY",
      "outputs": [
        {
          "internalType": "uint256",
          "name": "",
          "type": "uint256"
        }
      ],
      "stateMutability": "view",
      "type": "function"
    },
    {
      "inputs": [],
      "name": "DOMAIN_SEPARATOR",
      "outputs": [
        {
          "internalType": "bytes32",
          "name": "",
          "type": "bytes32"
        }
      ],
      "stateMutability": "view",
      "type": "function"
    },
    {
      "inputs": [],
      "name": "K",
      "outputs": [
        {
          "internalType": "uint256",
          "name": "",
          "type": "uint256"
        }
      ],
      "stateMutability": "view",
      "type": "function"
    },
    {
      "inputs": [],
      "name": "LIQUIDITY_POOL_AMOUNT",
      "outputs": [
        {
          "internalType": "uint256",
          "name": "",
          "type": "uint256"
        }
      ],
      "stateMutability": "view",
      "type": "function"
    },
    {
      "inputs": [],
      "name": "POOL_FEE",
      "outputs": [
        {
          "internalType": "uint24",
          "name": "",
          "type": "uint24"
        }
      ],
      "stateMutability": "view",
      "type": "function"
    },
    {
      "inputs": [],
      "name": "TOTAL_SUPPLY",
      "outputs": [
        {
          "internalType": "uint256",
          "name": "",
          "type": "uint256"
        }
      ],
      "stateMutability": "view",
      "type": "function"
    },
    {
      "inputs": [],
      "name": "TRADEABLE_SUPPLY",
      "outputs": [
        {
          "internalType": "uint256",
          "name": "",
          "type": "uint256"
        }
      ],
      "stateMutability": "view",
      "type": "function"
    },
    {
      "inputs": [
        {
          "components": [
            {
              "internalType": "uint32",
              "name": "srcEid",
              "type": "uint32"
            },
            {
              "internalType": "bytes32",
              "name": "sender",
              "type": "bytes32"
            },
            {
              "internalType": "uint64",
              "name": "nonce",
              "type": "uint64"
            }
          ],
          "internalType": "struct Origin",
          "name": "origin",
          "type": "tuple"
        }
      ],
      "name": "allowInitializePath",
      "outputs": [
        {
          "internalType": "bool",
          "name": "",
          "type": "bool"
        }
      ],
      "stateMutability": "view",
      "type": "function"
    },
    {
      "inputs": [
        {
          "internalType": "address",
          "name": "owner",
          "type": "address"
        },
        {
          "internalType": "address",
          "name": "spender",
          "type": "address"
        }
      ],
      "name": "allowance",
      "outputs": [
        {
          "internalType": "uint256",
          "name": "",
          "type": "uint256"
        }
      ],
      "stateMutability": "view",
      "type": "function"
    },
    {
      "inputs": [
        {
          "internalType": "uint256",
          "name": "amount",
          "type": "uint256"
        }
      ],
      "name": "amountGreaterThanThreshold",
      "outputs": [
        {
          "internalType": "bool",
          "name": "",
          "type": "bool"
        }
      ],
      "stateMutability": "pure",
      "type": "function"
    },
    {
      "inputs": [
        {
          "internalType": "address",
          "name": "spender",
          "type": "address"
        },
        {
          "internalType": "uint256",
          "name": "value",
          "type": "uint256"
        }
      ],
      "name": "approve",
      "outputs": [
        {
          "internalType": "bool",
          "name": "",
          "type": "bool"
        }
      ],
      "stateMutability": "nonpayable",
      "type": "function"
    },
    {
      "inputs": [
        {
          "internalType": "address",
          "name": "account",
          "type": "address"
        }
      ],
      "name": "balanceOf",
      "outputs": [
        {
          "internalType": "uint256",
          "name": "",
          "type": "uint256"
        }
      ],
      "stateMutability": "view",
      "type": "function"
    },
    {
      "inputs": [
        {
          "internalType": "address",
          "name": "token",
          "type": "address"
        },
        {
          "internalType": "uint256",
          "name": "amount",
          "type": "uint256"
        }
      ],
      "name": "buildRewardsClaimMessage",
      "outputs": [
        {
          "internalType": "bytes",
          "name": "",
          "type": "bytes"
        }
      ],
      "stateMutability": "view",
      "type": "function"
    },
    {
      "inputs": [
        {
          "internalType": "uint256",
          "name": "amount",
          "type": "uint256"
        },
        {
          "internalType": "uint256",
          "name": "maxSlippage",
          "type": "uint256"
        }
      ],
      "name": "buy",
      "outputs": [],
      "stateMutability": "payable",
      "type": "function"
    },
    {
      "inputs": [],
      "name": "buyFeePercent",
      "outputs": [
        {
          "internalType": "uint256",
          "name": "",
          "type": "uint256"
        }
      ],
      "stateMutability": "view",
      "type": "function"
    },
    {
      "inputs": [
        {
          "internalType": "uint256",
          "name": "priceToken1InToken0",
          "type": "uint256"
        }
      ],
      "name": "calculateSqrtPriceX96",
      "outputs": [
        {
          "internalType": "uint160",
          "name": "",
          "type": "uint160"
        }
      ],
      "stateMutability": "pure",
      "type": "function"
    },
    {
      "inputs": [],
      "name": "claimFees",
      "outputs": [],
      "stateMutability": "nonpayable",
      "type": "function"
    },
    {
      "inputs": [
        {
          "internalType": "address",
          "name": "token",
          "type": "address"
        },
        {
          "internalType": "uint128",
          "name": "executorGasLimit",
          "type": "uint128"
        }
      ],
      "name": "claimRewards",
      "outputs": [],
      "stateMutability": "payable",
      "type": "function"
    },
    {
      "inputs": [],
      "name": "creatorFeePercent",
      "outputs": [
        {
          "internalType": "uint256",
          "name": "",
          "type": "uint256"
        }
      ],
      "stateMutability": "view",
      "type": "function"
    },
    {
      "inputs": [],
      "name": "decimals",
      "outputs": [
        {
          "internalType": "uint8",
          "name": "",
          "type": "uint8"
        }
      ],
      "stateMutability": "view",
      "type": "function"
    },
    {
      "inputs": [],
      "name": "eip712Domain",
      "outputs": [
        {
          "internalType": "bytes1",
          "name": "fields",
          "type": "bytes1"
        },
        {
          "internalType": "string",
          "name": "name",
          "type": "string"
        },
        {
          "internalType": "string",
          "name": "version",
          "type": "string"
        },
        {
          "internalType": "uint256",
          "name": "chainId",
          "type": "uint256"
        },
        {
          "internalType": "address",
          "name": "verifyingContract",
          "type": "address"
        },
        {
          "internalType": "bytes32",
          "name": "salt",
          "type": "bytes32"
        },
        {
          "internalType": "uint256[]",
          "name": "extensions",
          "type": "uint256[]"
        }
      ],
      "stateMutability": "view",
      "type": "function"
    },
    {
      "inputs": [],
      "name": "endpoint",
      "outputs": [
        {
          "internalType": "contract ILayerZeroEndpointV2",
          "name": "",
          "type": "address"
        }
      ],
      "stateMutability": "view",
      "type": "function"
    },
    {
      "inputs": [
        {
          "internalType": "uint256",
          "name": "eth",
          "type": "uint256"
        },
        {
          "internalType": "uint256",
          "name": "maxSlippage",
          "type": "uint256"
        }
      ],
      "name": "getAmountByETHBuy",
      "outputs": [
        {
          "internalType": "uint256",
          "name": "",
          "type": "uint256"
        }
      ],
      "stateMutability": "view",
      "type": "function"
    },
    {
      "inputs": [
        {
          "internalType": "uint256",
          "name": "eth",
          "type": "uint256"
        },
        {
          "internalType": "uint256",
          "name": "maxSlippage",
          "type": "uint256"
        }
      ],
      "name": "getAmountByETHSell",
      "outputs": [
        {
          "internalType": "uint256",
          "name": "",
          "type": "uint256"
        }
      ],
      "stateMutability": "view",
      "type": "function"
    },
    {
      "inputs": [
        {
          "internalType": "uint256",
          "name": "amount",
          "type": "uint256"
        }
      ],
      "name": "getBuyPrice",
      "outputs": [
        {
          "internalType": "uint256",
          "name": "",
          "type": "uint256"
        }
      ],
      "stateMutability": "view",
      "type": "function"
    },
    {
      "inputs": [
        {
          "internalType": "address",
          "name": "holder",
          "type": "address"
        }
      ],
      "name": "getCurveBalance",
      "outputs": [
        {
          "internalType": "uint256",
          "name": "",
          "type": "uint256"
        }
      ],
      "stateMutability": "view",
      "type": "function"
    },
    {
      "inputs": [],
      "name": "getCurveHolders",
      "outputs": [
        {
          "internalType": "address[]",
          "name": "",
          "type": "address[]"
        }
      ],
      "stateMutability": "view",
      "type": "function"
    },
    {
      "inputs": [],
      "name": "getCurveHoldersLength",
      "outputs": [
        {
          "internalType": "uint256",
          "name": "",
          "type": "uint256"
        }
      ],
      "stateMutability": "view",
      "type": "function"
    },
    {
      "inputs": [
        {
          "internalType": "address",
          "name": "token",
          "type": "address"
        }
      ],
      "name": "getReward",
      "outputs": [
        {
          "internalType": "uint256",
          "name": "",
          "type": "uint256"
        }
      ],
      "stateMutability": "view",
      "type": "function"
    },
    {
      "inputs": [
        {
          "internalType": "address",
          "name": "token",
          "type": "address"
        }
      ],
      "name": "getRewardDestination",
      "outputs": [
        {
          "internalType": "uint32",
          "name": "",
          "type": "uint32"
        }
      ],
      "stateMutability": "view",
      "type": "function"
    },
    {
      "inputs": [
        {
          "internalType": "address",
          "name": "holder",
          "type": "address"
        },
        {
          "internalType": "address",
          "name": "token",
          "type": "address"
        }
      ],
      "name": "getRewardIsClaimed",
      "outputs": [
        {
          "internalType": "bool",
          "name": "",
          "type": "bool"
        }
      ],
      "stateMutability": "view",
      "type": "function"
    },
    {
      "inputs": [],
      "name": "getRewards",
      "outputs": [
        {
          "internalType": "address[]",
          "name": "",
          "type": "address[]"
        }
      ],
      "stateMutability": "view",
      "type": "function"
    },
    {
      "inputs": [
        {
          "internalType": "uint256",
          "name": "amount",
          "type": "uint256"
        }
      ],
      "name": "getSellPrice",
      "outputs": [
        {
          "internalType": "uint256",
          "name": "",
          "type": "uint256"
        }
      ],
      "stateMutability": "view",
      "type": "function"
    },
    {
      "inputs": [],
      "name": "getThreshold",
      "outputs": [
        {
          "internalType": "uint256",
          "name": "",
          "type": "uint256"
        }
      ],
      "stateMutability": "pure",
      "type": "function"
    },
    {
      "inputs": [],
      "name": "getTokensHeldInCurve",
      "outputs": [
        {
          "internalType": "uint256",
          "name": "",
          "type": "uint256"
        }
      ],
      "stateMutability": "view",
      "type": "function"
    },
    {
      "inputs": [],
      "name": "getVolume",
      "outputs": [
        {
          "internalType": "uint256",
          "name": "",
          "type": "uint256"
        }
      ],
      "stateMutability": "view",
      "type": "function"
    },
    {
      "inputs": [
        {
          "components": [
            {
              "internalType": "uint32",
              "name": "srcEid",
              "type": "uint32"
            },
            {
              "internalType": "bytes32",
              "name": "sender",
              "type": "bytes32"
            },
            {
              "internalType": "uint64",
              "name": "nonce",
              "type": "uint64"
            }
          ],
          "internalType": "struct Origin",
          "name": "",
          "type": "tuple"
        },
        {
          "internalType": "bytes",
          "name": "",
          "type": "bytes"
        },
        {
          "internalType": "address",
          "name": "_sender",
          "type": "address"
        }
      ],
      "name": "isComposeMsgSender",
      "outputs": [
        {
          "internalType": "bool",
          "name": "",
          "type": "bool"
        }
      ],
      "stateMutability": "view",
      "type": "function"
    },
    {
      "inputs": [
        {
          "components": [
            {
              "internalType": "uint32",
              "name": "srcEid",
              "type": "uint32"
            },
            {
              "internalType": "bytes32",
              "name": "sender",
              "type": "bytes32"
            },
            {
              "internalType": "uint64",
              "name": "nonce",
              "type": "uint64"
            }
          ],
          "internalType": "struct Origin",
          "name": "_origin",
          "type": "tuple"
        },
        {
          "internalType": "bytes32",
          "name": "_guid",
          "type": "bytes32"
        },
        {
          "internalType": "bytes",
          "name": "_message",
          "type": "bytes"
        },
        {
          "internalType": "address",
          "name": "_executor",
          "type": "address"
        },
        {
          "internalType": "bytes",
          "name": "_extraData",
          "type": "bytes"
        }
      ],
      "name": "lzReceive",
      "outputs": [],
      "stateMutability": "payable",
      "type": "function"
    },
    {
      "inputs": [],
      "name": "name",
      "outputs": [
        {
          "internalType": "string",
          "name": "",
          "type": "string"
        }
      ],
      "stateMutability": "view",
      "type": "function"
    },
    {
      "inputs": [
        {
          "internalType": "uint32",
          "name": "",
          "type": "uint32"
        },
        {
          "internalType": "bytes32",
          "name": "",
          "type": "bytes32"
        }
      ],
      "name": "nextNonce",
      "outputs": [
        {
          "internalType": "uint64",
          "name": "nonce",
          "type": "uint64"
        }
      ],
      "stateMutability": "view",
      "type": "function"
    },
    {
      "inputs": [
        {
          "internalType": "address",
          "name": "owner",
          "type": "address"
        }
      ],
      "name": "nonces",
      "outputs": [
        {
          "internalType": "uint256",
          "name": "",
          "type": "uint256"
        }
      ],
      "stateMutability": "view",
      "type": "function"
    },
    {
      "inputs": [],
      "name": "oAppVersion",
      "outputs": [
        {
          "internalType": "uint64",
          "name": "senderVersion",
          "type": "uint64"
        },
        {
          "internalType": "uint64",
          "name": "receiverVersion",
          "type": "uint64"
        }
      ],
      "stateMutability": "pure",
      "type": "function"
    },
    {
      "inputs": [],
      "name": "owner",
      "outputs": [
        {
          "internalType": "address",
          "name": "",
          "type": "address"
        }
      ],
      "stateMutability": "view",
      "type": "function"
    },
    {
      "inputs": [],
      "name": "pause",
      "outputs": [],
      "stateMutability": "nonpayable",
      "type": "function"
    },
    {
      "inputs": [],
      "name": "paused",
      "outputs": [
        {
          "internalType": "bool",
          "name": "",
          "type": "bool"
        }
      ],
      "stateMutability": "view",
      "type": "function"
    },
    {
      "inputs": [
        {
          "internalType": "uint32",
          "name": "eid",
          "type": "uint32"
        }
      ],
      "name": "peers",
      "outputs": [
        {
          "internalType": "bytes32",
          "name": "peer",
          "type": "bytes32"
        }
      ],
      "stateMutability": "view",
      "type": "function"
    },
    {
      "inputs": [
        {
          "internalType": "address",
          "name": "owner",
          "type": "address"
        },
        {
          "internalType": "address",
          "name": "spender",
          "type": "address"
        },
        {
          "internalType": "uint256",
          "name": "value",
          "type": "uint256"
        },
        {
          "internalType": "uint256",
          "name": "deadline",
          "type": "uint256"
        },
        {
          "internalType": "uint8",
          "name": "v",
          "type": "uint8"
        },
        {
          "internalType": "bytes32",
          "name": "r",
          "type": "bytes32"
        },
        {
          "internalType": "bytes32",
          "name": "s",
          "type": "bytes32"
        }
      ],
      "name": "permit",
      "outputs": [],
      "stateMutability": "nonpayable",
      "type": "function"
    },
    {
      "inputs": [],
      "name": "protocol",
      "outputs": [
        {
          "internalType": "address payable",
          "name": "",
          "type": "address"
        }
      ],
      "stateMutability": "view",
      "type": "function"
    },
    {
      "inputs": [],
      "name": "protocolFeePercent",
      "outputs": [
        {
          "internalType": "uint256",
          "name": "",
          "type": "uint256"
        }
      ],
      "stateMutability": "view",
      "type": "function"
    },
    {
      "inputs": [
        {
          "internalType": "address",
          "name": "token",
          "type": "address"
        },
        {
          "internalType": "uint128",
          "name": "executorGasLimit",
          "type": "uint128"
        }
      ],
      "name": "quoteRewardsClaim",
      "outputs": [
        {
          "components": [
            {
              "internalType": "uint256",
              "name": "nativeFee",
              "type": "uint256"
            },
            {
              "internalType": "uint256",
              "name": "lzTokenFee",
              "type": "uint256"
            }
          ],
          "internalType": "struct MessagingFee",
          "name": "fee",
          "type": "tuple"
        }
      ],
      "stateMutability": "view",
      "type": "function"
    },
    {
      "inputs": [],
      "name": "renounceOwnership",
      "outputs": [],
      "stateMutability": "nonpayable",
      "type": "function"
    },
    {
      "inputs": [
        {
          "internalType": "uint256",
          "name": "amount",
          "type": "uint256"
        }
      ],
      "name": "sell",
      "outputs": [],
      "stateMutability": "nonpayable",
      "type": "function"
    },
    {
      "inputs": [
        {
          "internalType": "uint256",
          "name": "_feePercent",
          "type": "uint256"
        }
      ],
      "name": "setBuyFeePercent",
      "outputs": [],
      "stateMutability": "nonpayable",
      "type": "function"
    },
    {
      "inputs": [
        {
          "internalType": "uint256",
          "name": "_feePercent",
          "type": "uint256"
        }
      ],
      "name": "setCreatorFeePercent",
      "outputs": [],
      "stateMutability": "nonpayable",
      "type": "function"
    },
    {
      "inputs": [
        {
          "internalType": "address",
          "name": "_delegate",
          "type": "address"
        }
      ],
      "name": "setDelegate",
      "outputs": [],
      "stateMutability": "nonpayable",
      "type": "function"
    },
    {
      "inputs": [
        {
          "internalType": "uint32",
          "name": "_eid",
          "type": "uint32"
        },
        {
          "internalType": "bytes32",
          "name": "_peer",
          "type": "bytes32"
        }
      ],
      "name": "setPeer",
      "outputs": [],
      "stateMutability": "nonpayable",
      "type": "function"
    },
    {
      "inputs": [
        {
          "internalType": "address",
          "name": "token",
          "type": "address"
        },
        {
          "internalType": "uint256",
          "name": "amount",
          "type": "uint256"
        }
      ],
      "name": "sponsor",
      "outputs": [],
      "stateMutability": "nonpayable",
      "type": "function"
    },
    {
      "inputs": [],
      "name": "symbol",
      "outputs": [
        {
          "internalType": "string",
          "name": "",
          "type": "string"
        }
      ],
      "stateMutability": "view",
      "type": "function"
    },
    {
      "inputs": [],
      "name": "testWithdrawRemoveBeforeProd",
      "outputs": [],
      "stateMutability": "nonpayable",
      "type": "function"
    },
    {
      "inputs": [],
      "name": "totalSupply",
      "outputs": [
        {
          "internalType": "uint256",
          "name": "",
          "type": "uint256"
        }
      ],
      "stateMutability": "view",
      "type": "function"
    },
    {
      "inputs": [
        {
          "internalType": "address",
          "name": "recipient",
          "type": "address"
        },
        {
          "internalType": "uint256",
          "name": "amount",
          "type": "uint256"
        }
      ],
      "name": "transfer",
      "outputs": [
        {
          "internalType": "bool",
          "name": "",
          "type": "bool"
        }
      ],
      "stateMutability": "nonpayable",
      "type": "function"
    },
    {
      "inputs": [
        {
          "internalType": "address",
          "name": "sender",
          "type": "address"
        },
        {
          "internalType": "address",
          "name": "recipient",
          "type": "address"
        },
        {
          "internalType": "uint256",
          "name": "amount",
          "type": "uint256"
        }
      ],
      "name": "transferFrom",
      "outputs": [
        {
          "internalType": "bool",
          "name": "",
          "type": "bool"
        }
      ],
      "stateMutability": "nonpayable",
      "type": "function"
    },
    {
      "inputs": [
        {
          "internalType": "address",
          "name": "newOwner",
          "type": "address"
        }
      ],
      "name": "transferOwnership",
      "outputs": [],
      "stateMutability": "nonpayable",
      "type": "function"
    },
    {
      "inputs": [
        {
          "internalType": "int256",
          "name": "amount0Delta",
          "type": "int256"
        },
        {
          "internalType": "int256",
          "name": "amount1Delta",
          "type": "int256"
        },
        {
          "internalType": "bytes",
          "name": "",
          "type": "bytes"
        }
      ],
      "name": "uniswapV3SwapCallback",
      "outputs": [],
      "stateMutability": "nonpayable",
      "type": "function"
    },
    {
      "inputs": [
        {
          "internalType": "address",
          "name": "token",
          "type": "address"
        }
      ],
      "name": "unsponsor",
      "outputs": [],
      "stateMutability": "nonpayable",
      "type": "function"
    }
  ],
  "transactionHash": "0x73f2ad55eb86c4f6ee2fa2124952a667b969642b75217c05dce5891420478713",
  "args": [
    "0x0227628f3F023bb0B980b67D528571c95c6DaC1c",
    "0x1238536071E1c677A632429e3655c799b22cDA52",
    "0xfff9976782d46cc05630d1f6ebab18b2324d6b14",
    "LaunchV1Test",
    "ART",
    "0x6EDCE65403992e310A62460808c4b910D972f10f",
    -887272,
    887272,
    145094
  ],
  "numDeployments": 67,
  "solcInputHash": "bf6cf36d5f0a2bb608c5e222d1a37c4c",
  "bytecode": "0x6101e0604052600a8055601e600b556046600c553480156200002057600080fd5b5060405162005b0a38038062005b0a83398101604081905262000043916200072a565b837349d4de8fc7fd8fceef03aa5b7b191189bfbb637b8181338a80604051806040016040528060018152602001603160f81b8152508d8d81600390816200008b9190620008a9565b5060046200009a8282620008a9565b50620000ac91508390506005620003ee565b61012052620000bd816006620003ee565b61014052815160208084019190912060e052815190820120610100524660a0526200014b60e05161010051604080517f8b73c3c69bb8fe3d512ecc4cf759cc79239f7b179b0ffacaa9a75d522b39400f60208201529081019290925260608201524660808201523060a082015260009060c00160405160208183030381529060405280519060200120905090565b60805250503060c052506001600160a01b0381166200018557604051631e4fbdf760e01b8152600060048201526024015b60405180910390fd5b620001908162000427565b506008805460ff60a01b191690556001600160a01b03808316610160528116620001cd57604051632d618d8160e21b815260040160405180910390fd5b6101605160405163ca5eb5e160e01b81526001600160a01b0383811660048301529091169063ca5eb5e190602401600060405180830381600087803b1580156200021657600080fd5b505af11580156200022b573d6000803e3d6000fd5b505050506001600160a01b038d81166101808190528d82166101a052908c166101c081905260405163095ea7b360e01b815260048101929092526000196024830152945063095ea7b393506044019150620002839050565b6020604051808303816000875af1158015620002a3573d6000803e3d6000fd5b505050506040513d601f19601f82011682018060405250810190620002c9919062000975565b50620002e2306b033b2e3c9fd0803ce800000062000479565b610180516040516322afcccb60e01b815261271060048201526000916001600160a01b0316906322afcccb90602401602060405180830381865afa1580156200032f573d6000803e3d6000fd5b505050506040513d601f19601f82011682018060405250810190620003559190620009a0565b905080620003648186620009d4565b62000370919062000a20565b600d805462ffffff9290921663010000000265ffffff0000001990921691909117905580620003a08185620009d4565b620003ac919062000a20565b600d805468ffffff000000ffffff1916660100000000000062ffffff9384160262ffffff19161793909116929092179091555062000aba975050505050505050565b60006020835110156200040e576200040683620004b7565b905062000421565b816200041b8482620008a9565b5060ff90505b92915050565b600880546001600160a01b038381166001600160a01b0319831681179093556040519116919082907f8be0079c531659141344cd1fd0a4f28419497f9722a3daafe3b4186f6b6457e090600090a35050565b6001600160a01b038216620004a55760405163ec442f0560e01b8152600060048201526024016200017c565b620004b360008383620004fa565b5050565b600080829050601f81511115620004e5578260405163305a27a960e01b81526004016200017c919062000a4a565b8051620004f28262000a7f565b179392505050565b6001600160a01b038316620005295780600260008282546200051d919062000aa4565b909155506200059d9050565b6001600160a01b038316600090815260208190526040902054818110156200057e5760405163391434e360e21b81526001600160a01b038516600482015260248101829052604481018390526064016200017c565b6001600160a01b03841660009081526020819052604090209082900390555b6001600160a01b038216620005bb57600280548290039055620005da565b6001600160a01b03821660009081526020819052604090208054820190555b816001600160a01b0316836001600160a01b03167fddf252ad1be2c89b69c2b068fc378daa952ba7f163c4a11628f55a4df523b3ef836040516200062091815260200190565b60405180910390a3505050565b80516001600160a01b03811681146200064557600080fd5b919050565b634e487b7160e01b600052604160045260246000fd5b60005b838110156200067d57818101518382015260200162000663565b50506000910152565b600082601f8301126200069857600080fd5b81516001600160401b0380821115620006b557620006b56200064a565b604051601f8301601f19908116603f01168101908282118183101715620006e057620006e06200064a565b81604052838152866020858801011115620006fa57600080fd5b6200070d84602083016020890162000660565b9695505050505050565b8051600281900b81146200064557600080fd5b60008060008060008060008060006101208a8c0312156200074a57600080fd5b620007558a6200062d565b98506200076560208b016200062d565b97506200077560408b016200062d565b60608b01519097506001600160401b03808211156200079357600080fd5b620007a18d838e0162000686565b975060808c0151915080821115620007b857600080fd5b50620007c78c828d0162000686565b955050620007d860a08b016200062d565b9350620007e860c08b0162000717565b9250620007f860e08b0162000717565b9150620008096101008b0162000717565b90509295985092959850929598565b600181811c908216806200082d57607f821691505b6020821081036200084e57634e487b7160e01b600052602260045260246000fd5b50919050565b601f821115620008a4576000816000526020600020601f850160051c810160208610156200087f5750805b601f850160051c820191505b81811015620008a0578281556001016200088b565b5050505b505050565b81516001600160401b03811115620008c557620008c56200064a565b620008dd81620008d6845462000818565b8462000854565b602080601f831160018114620009155760008415620008fc5750858301515b600019600386901b1c1916600185901b178555620008a0565b600085815260208120601f198616915b82811015620009465788860151825594840194600190910190840162000925565b5085821015620009655787850151600019600388901b60f8161c191681555b5050505050600190811b01905550565b6000602082840312156200098857600080fd5b815180151581146200099957600080fd5b9392505050565b600060208284031215620009b357600080fd5b620009998262000717565b634e487b7160e01b600052601160045260246000fd5b60008160020b8360020b80620009fa57634e487b7160e01b600052601260045260246000fd5b627fffff1982146000198214161562000a175762000a17620009be565b90059392505050565b60008260020b8260020b028060020b915080821462000a435762000a43620009be565b5092915050565b602081526000825180602084015262000a6b81604085016020870162000660565b601f01601f19169190910160400192915050565b805160208083015191908110156200084e5760001960209190910360031b1b16919050565b80820180821115620004215762000421620009be565b60805160a05160c05160e05161010051610120516101405161016051610180516101a0516101c051614f5962000bb160003960008181612010015281816120dd015281816122ee0152818161243b015281816124b6015281816124de0152612506015260008181612374015261240b015260008181612043015261210d0152600081816106ab01528181610d6f01528181611082015281816116d4015281816119e20152818161285d0152818161304d015281816138d8015261399101526000612fdb01526000612fae01526000612d6001526000612d3801526000612c9301526000612cbd01526000612ce70152614f596000f3fe6080604052600436106103d95760003560e01c806387e33d02116101fd578063c00007b011610118578063d6febde8116100ab578063e75235b81161007a578063e75235b814610be9578063f2fde38b14610c07578063fa461e3314610c27578063fb4934e814610c47578063ff7bd03d14610c7257600080fd5b8063d6febde814610b46578063dd1b9c4a14610b59578063dd62ed3e14610b83578063e4849b3214610bc957600080fd5b8063cdd2a99f116100e7578063cdd2a99f14610adb578063d294f09314610afb578063d505accf14610b10578063d6e6eb9f14610b3057600080fd5b8063c00007b014610a70578063c67bbc2414610a90578063ca5eb5e114610aa5578063cc3fdd4c14610ac557600080fd5b806395d89b4111610190578063a932492f1161015f578063a932492f146109f9578063b78b5bb714610a0e578063ba730e5314610a23578063bb0b6a5314610a4357600080fd5b806395d89b411461092a57806396e86b311461093f578063a75c7f9814610988578063a9059cbb146109d957600080fd5b80638d5debe6116101cc5780638d5debe6146108915780638da5cb5b146108cc578063902d55a5146108ea578063950eb5d51461090a57600080fd5b806387e33d02146108155780638c995e441461082a5780638ce744261461084a5780638d4e257e1461087157600080fd5b80633400288b116102f85780636ff6c4b81161028b5780637ecebe001161025a5780637ecebe0014610774578063806519831461079457806382413eac146107a95780638456cb59146107d857806384b0196e146107ed57600080fd5b80636ff6c4b8146106cd57806370a08231146106ed578063715018a6146107235780637d25a05e1461073857600080fd5b806353613dd3116102c757806353613dd3146106645780635c975abb1461067a5780635e280f111461069957806361e9ee0e1461054757600080fd5b80633400288b146105d75780633644e515146105f75780633c087c231461060c57806350d2542f1461062c57600080fd5b806317442b701161037057806323b872dd1161033f57806323b872dd14610566578063284dc08e146105865780632918a3b6146105a6578063313ce567146105bb57600080fd5b806317442b70146104f057806318160ddd146105125780631d47a1c41461052757806320ad6ae31461054757600080fd5b806308d4db14116103ac57806308d4db141461046e578063095ea7b31461048e5780630b51d3f6146104be57806313137d65146104dd57600080fd5b806301996af0146103de5780630572b0cc146103f3578063067603841461041e57806306fdde031461044c575b600080fd5b6103f16103ec366004614585565b610c92565b005b3480156103ff57600080fd5b50610408610f2e565b60405161041591906145ca565b60405180910390f35b34801561042a57600080fd5b5061043e61043936600461460b565b610f3f565b604051908152602001610415565b34801561045857600080fd5b50610461610f52565b6040516104159190614678565b34801561047a57600080fd5b5061043e61048936600461468b565b610fe4565b34801561049a57600080fd5b506104ae6104a93660046146a4565b611068565b6040519015158152602001610415565b3480156104ca57600080fd5b5061043e6a01a784379d99db4200000081565b6103f16104eb366004614724565b611080565b3480156104fc57600080fd5b5060408051600181526002602082015201610415565b34801561051e57600080fd5b5060025461043e565b34801561053357600080fd5b5061043e6b204fce5e3e2502611000000081565b34801561055357600080fd5b5061043e6aa56fa5b99019a5c800000081565b34801561057257600080fd5b506104ae6105813660046147c4565b61113b565b34801561059257600080fd5b5061043e6105a1366004614805565b6111f1565b3480156105b257600080fd5b5061040861124e565b3480156105c757600080fd5b5060405160128152602001610415565b3480156105e357600080fd5b506103f16105f2366004614839565b61125a565b34801561060357600080fd5b5061043e611270565b34801561061857600080fd5b5061043e610627366004614805565b61127a565b34801561063857600080fd5b5061064c61064736600461468b565b6112c5565b6040516001600160a01b039091168152602001610415565b34801561067057600080fd5b5061043e600c5481565b34801561068657600080fd5b50600854600160a01b900460ff166104ae565b3480156106a557600080fd5b5061064c7f000000000000000000000000000000000000000000000000000000000000000081565b3480156106d957600080fd5b506103f16106e836600461468b565b6112df565b3480156106f957600080fd5b5061043e61070836600461460b565b6001600160a01b031660009081526020819052604090205490565b34801561072f57600080fd5b506103f161139c565b34801561074457600080fd5b5061075b610753366004614839565b600092915050565b60405167ffffffffffffffff9091168152602001610415565b34801561078057600080fd5b5061043e61078f36600461460b565b6113b0565b3480156107a057600080fd5b5061043e6113ce565b3480156107b557600080fd5b506104ae6107c4366004614857565b6001600160a01b0381163014949350505050565b3480156107e457600080fd5b506103f16113f4565b3480156107f957600080fd5b50610802611404565b60405161041597969594939291906148be565b34801561082157600080fd5b5061043e61144a565b34801561083657600080fd5b506103f16108453660046146a4565b611456565b34801561085657600080fd5b507349d4de8fc7fd8fceef03aa5b7b191189bfbb637b61064c565b34801561087d57600080fd5b5061046161088c3660046146a4565b61160d565b34801561089d57600080fd5b506108b16108ac366004614585565b61164c565b60408051825181526020928301519281019290925201610415565b3480156108d857600080fd5b506008546001600160a01b031661064c565b3480156108f657600080fd5b5061043e6b033b2e3c9fd0803ce800000081565b34801561091657600080fd5b506103f161092536600461468b565b6117d5565b34801561093657600080fd5b50610461611881565b34801561094b57600080fd5b506104ae61095a366004614957565b6001600160a01b03918216600090815260156020908152604080832093909416825291909152205460ff1690565b34801561099457600080fd5b506109c46109a336600461460b565b6001600160a01b031660009081526014602052604090205463ffffffff1690565b60405163ffffffff9091168152602001610415565b3480156109e557600080fd5b506104ae6109f43660046146a4565b611890565b348015610a0557600080fd5b5061043e60c881565b348015610a1a57600080fd5b506103f1611932565b348015610a2f57600080fd5b5061043e610a3e36600461468b565b61194f565b348015610a4f57600080fd5b5061043e610a5e366004614985565b60096020526000908152604090205481565b348015610a7c57600080fd5b5061043e610a8b36600461460b565b6119ae565b348015610a9c57600080fd5b5060175461043e565b348015610ab157600080fd5b506103f1610ac036600461460b565b6119bb565b348015610ad157600080fd5b5061043e600a5481565b348015610ae757600080fd5b506103f1610af636600461460b565b611a41565b348015610b0757600080fd5b506103f1611b0d565b348015610b1c57600080fd5b506103f1610b2b3660046149a2565b611c13565b348015610b3c57600080fd5b5061043e600b5481565b6103f1610b54366004614805565b611d4d565b348015610b6557600080fd5b50610b6f61271081565b60405162ffffff9091168152602001610415565b348015610b8f57600080fd5b5061043e610b9e366004614957565b6001600160a01b03918216600090815260016020908152604080832093909416825291909152205490565b348015610bd557600080fd5b506103f1610be436600461468b565b6125ba565b348015610bf557600080fd5b506a01a784379d99db4200000061043e565b348015610c1357600080fd5b506103f1610c2236600461460b565b61270f565b348015610c3357600080fd5b506103f1610c42366004614a60565b505050565b348015610c5357600080fd5b506104ae610c6236600461468b565b6a01a784379d99db420000001090565b348015610c7e57600080fd5b506104ae610c8d366004614b08565b61274d565b610c9a612783565b3360009081526015602090815260408083206001600160a01b038616845290915290205460ff1615610d055760405162461bcd60e51b815260206004820152600f60248201526e105b1c9958591e4818db185a5b5959608a1b60448201526064015b60405180910390fd5b6000610d14335b600e906127ad565b90506000610d236011856127ad565b90506000610d2f6113ce565b610d398484614b3a565b610d439190614b67565b6001600160a01b03861660009081526014602052604090205490915063ffffffff16801580610dfe57507f00000000000000000000000000000000000000000000000000000000000000006001600160a01b031663416ecebf6040518163ffffffff1660e01b8152600401602060405180830381865afa158015610dcb573d6000803e3d6000fd5b505050506040513d601f19601f82011682018060405250810190610def9190614b7b565b63ffffffff168163ffffffff16145b15610e8a576001600160a01b03861663a9059cbb336040516001600160e01b031960e084901b1681526001600160a01b039091166004820152602481018590526044016020604051808303816000875af1158015610e60573d6000803e3d6000fd5b505050506040513d601f19601f82011682018060405250810190610e849190614b98565b50610ef5565b6000610ebf866000610eb860408051600360f01b602082015281516002818303018152602290910190915290565b91906127c2565b90506000610ecd888561160d565b9050610ef1838284604051806040016040528034815260200160008152503361282a565b5050505b50503360009081526015602090815260408083206001600160a01b0397909716835295905293909320805460ff19166001179055505050565b6060610f3a6011612935565b905090565b6000610f4c600e836127ad565b92915050565b606060038054610f6190614bba565b80601f0160208091040260200160405190810160405280929190818152602001828054610f8d90614bba565b8015610fda5780601f10610faf57610100808354040283529160200191610fda565b820191906000526020600020905b815481529060010190602001808311610fbd57829003601f168201915b5050505050905090565b600081600003610ff657506000919050565b60006110066110036113ce565b90565b9050600061101f846110196110036113ce565b90612942565b9050611060611003671bc16d674ec8000061105a611052611041876002612951565b61104c876002612951565b906129b1565b60c8906129c0565b906129cf565b949350505050565b6000336110768185856129e7565b5060019392505050565b7f00000000000000000000000000000000000000000000000000000000000000006001600160a01b031633146110cb576040516391ac5e4f60e01b8152336004820152602401610cfc565b602087018035906110e5906110e0908a614985565b6129f4565b14611123576110f76020880188614985565b60405163309afaf360e21b815263ffffffff909116600482015260208801356024820152604401610cfc565b61113287878787878787612a30565b50505050505050565b600854600090600160a01b900460ff166111dc57600061115c600e866127ad565b90508281101561117e5760405162461bcd60e51b8152600401610cfc90614bee565b6111888382614c1c565b6000036111a05761119a600e86612a8d565b506111b9565b6111b7856111ae8584614c1c565b600e9190612aa2565b505b60006111c6600e86612ab8565b91506111d89050856111ae8684614c2f565b5050505b6111e7848484612adf565b90505b9392505050565b600080806111fd6113ce565b90505b8461120a8261194f565b10156112395761121b600a82614b67565b6112259082614c1c565b9150611232600282614b3a565b9050611200565b61124585858484612b03565b95945050505050565b6060610f3a600e612935565b611262612c04565b61126c8282612c31565b5050565b6000610f3a612c86565b60008060015b8461128a82610fe4565b10156112b95761129b600a82614b67565b6112a59082614c1c565b91506112b2600282614b3a565b9050611280565b61124585858484612db1565b6000806112d183612e85565b6111ea90600160601b614b3a565b337349d4de8fc7fd8fceef03aa5b7b191189bfbb637b146113355760405162461bcd60e51b815260206004820152601060248201526f139bdd081d1a19481c1c9bdd1bd8dbdb60821b6044820152606401610cfc565b60648111156113865760405162461bcd60e51b815260206004820152601e60248201527f4665652070657263656e742063616e6e6f7420657863656564203130302500006044820152606401610cfc565b600c819055611396816064614c1c565b600b5550565b6113a4612c04565b6113ae6000612ef5565b565b6001600160a01b038116600090815260076020526040812054610f4c565b30600090815260208190526040812054610f3a906b033b2e3c9fd0803ce8000000614c1c565b6113fc612c04565b6113ae612f47565b600060608060008060006060611418612fa7565b611420612fd4565b60408051600080825260208201909252600f60f81b9b939a50919850469750309650945092509050565b6000610f3a600e613001565b61145e61300c565b806001600160a01b03831663dd62ed3e336040516001600160e01b031960e084901b1681526001600160a01b039091166004820152306024820152604401602060405180830381865afa1580156114b9573d6000803e3d6000fd5b505050506040513d601f19601f820116820180604052508101906114dd9190614c42565b101561151f5760405162461bcd60e51b8152602060048201526011602482015270105b1b1bddd85b98d9481b9bdd081cd95d607a1b6044820152606401610cfc565b6001600160a01b0382166323b872dd336040516001600160e01b031960e084901b1681526001600160a01b039091166004820152306024820152604481018490526064016020604051808303816000875af1158015611582573d6000803e3d6000fd5b505050506040513d601f19601f820116820180604052508101906115a69190614b98565b5060006115b4601184612ab8565b91506115cf9050836115c68484614c2f565b60119190612aa2565b503360009081526016602090815260408083206001600160a01b038716845290915281208054849290611603908490614c2f565b9091555050505050565b604080516001600160a01b038416602082015290810182905233606082810191909152906080015b604051602081830303815290604052905092915050565b6040805180820190915260008082526020820152600061166b33610d0c565b9050600061167a6011866127ad565b905060006116866113ce565b6116908484614b3a565b61169a9190614b67565b905060006116a8878361160d565b6001600160a01b03881660009081526014602052604090205490915063ffffffff1680158061176357507f00000000000000000000000000000000000000000000000000000000000000006001600160a01b031663416ecebf6040518163ffffffff1660e01b8152600401602060405180830381865afa158015611730573d6000803e3d6000fd5b505050506040513d601f19601f820116820180604052508101906117549190614b7b565b63ffffffff168163ffffffff16145b1561178b57604051806040016040528060008152602001600081525095505050505050610f4c565b60006117b9886000610eb860408051600360f01b602082015281516002818303018152602290910190915290565b90506117c88284836000613037565b9998505050505050505050565b337349d4de8fc7fd8fceef03aa5b7b191189bfbb637b1461182b5760405162461bcd60e51b815260206004820152601060248201526f139bdd081d1a19481c1c9bdd1bd8dbdb60821b6044820152606401610cfc565b600a81111561187c5760405162461bcd60e51b815260206004820152601d60248201527f4665652070657263656e742063616e6e6f7420657863656564203130250000006044820152606401610cfc565b600a55565b606060048054610f6190614bba565b600854600090600160a01b900460ff166119285760006118af33610d0c565b9050828110156118d15760405162461bcd60e51b8152600401610cfc90614bee565b6118db8382614c1c565b6000036118f5576118ef335b600e90612a8d565b50611905565b611903336111ae8584614c1c565b505b6000611912600e86612ab8565b91506119249050856111ae8684614c2f565b5050505b6111ea838361310f565b61193a612c04565b6113ae47335b6001600160a01b03169061311d565b60008160000361196157506000919050565b600061196e6110036113ce565b905060006119818461104c6110036113ce565b9050611060611003671bc16d674ec8000061105a6110526119a3866002612951565b61104c886002612951565b6000610f4c6011836127ad565b6119c3612c04565b60405163ca5eb5e160e01b81526001600160a01b0382811660048301527f0000000000000000000000000000000000000000000000000000000000000000169063ca5eb5e190602401600060405180830381600087803b158015611a2657600080fd5b505af1158015611a3a573d6000803e3d6000fd5b5050505050565b611a4961300c565b3360009081526016602090815260408083206001600160a01b038516845290915281208054919055611a8b8282611a816011836127ad565b6115c69190614c1c565b506001600160a01b03821663a9059cbb336040516001600160e01b031960e084901b1681526001600160a01b039091166004820152602481018490526044016020604051808303816000875af1158015611ae9573d6000803e3d6000fd5b505050506040513d601f19601f82011682018060405250810190610c429190614b98565b611b15612c04565b600854600160a01b900460ff1615611b9c5760006064600b5447611b399190614b3a565b611b439190614b67565b905060006064600c5447611b579190614b3a565b611b619190614b67565b60006018559050611b7e816119406008546001600160a01b031690565b61126c827349d4de8fc7fd8fceef03aa5b7b191189bfbb637b611940565b60006064600b54601854611bb09190614b3a565b611bba9190614b67565b905060006064600c54601854611bd09190614b3a565b611bda9190614b67565b9050611be68282614c2f565b60186000828254611bf79190614c1c565b90915550611b7e9050816119406008546001600160a01b031690565b83421115611c375760405163313c898160e11b815260048101859052602401610cfc565b60007f6e71edae12b1b97f4d1f60370fef10105fa2faae0126114a169c64845d6126c9888888611c848c6001600160a01b0316600090815260076020526040902080546001810190915590565b6040805160208101969096526001600160a01b0394851690860152929091166060840152608083015260a082015260c0810186905260e0016040516020818303038152906040528051906020012090506000611cdf826131b4565b90506000611cef828787876131e1565b9050896001600160a01b0316816001600160a01b031614611d36576040516325c0072360e11b81526001600160a01b0380831660048301528b166024820152604401610cfc565b611d418a8a8a6129e7565b50505050505050505050565b611d5561300c565b60008211611da55760405162461bcd60e51b815260206004820152601d60248201527f416d6f756e74206d7573742062652067726561746572207468616e20300000006044820152606401610cfc565b6008546001600160a01b03163303611e31576b204fce5e3e2502611000000082611dce33610708565b611dd89190614c2f565b1115611e315760405162461bcd60e51b815260206004820152602260248201527f416d6f756e742065786365656473206d61782062757920666f7220637265617460448201526137b960f11b6064820152608401610cfc565b6000611e3c83610fe4565b905060006064600a5483611e509190614b3a565b611e5a9190614b67565b9050611e668183614c2f565b3410611ea657600081611e798434614c1c565b611e839190614c1c565b90508015611e9557611e958133611940565b611ea0858484613203565b50611fc8565b6000611efb6064600a5434611ebb9190614b3a565b611ec59190614b67565b611ecf9034614c1c565b85600a8810611ee857611ee3600a89614b67565b611eeb565b60005b611ef6896004614b3a565b612db1565b905060008111611f6a5760405162461bcd60e51b815260206004820152603460248201527f4e6f7420656e6f75676820696e70757420746f2062757920746865206d696e696044820152736d756d20616d6f756e74206f6620746f6b656e7360601b6064820152608401610cfc565b611f7381610fe4565b92506064600a5484611f859190614b3a565b611f8f9190614b67565b9150600082611f9e8534614c1c565b611fa89190614c1c565b90508015611fba57611fba8133611940565b611fc5828585613203565b50505b6a01a784379d99db42000000611fdc6113ce565b611fe69086614c2f565b106125b457611ff3612f47565b604051630b4c774160e11b81523060048201526001600160a01b037f00000000000000000000000000000000000000000000000000000000000000008116602483015261271060448301526000917f000000000000000000000000000000000000000000000000000000000000000090911690631698ee8290606401602060405180830381865afa15801561208c573d6000803e3d6000fd5b505050506040513d601f19601f820116820180604052508101906120b09190614c5b565b90506001600160a01b03811661217d5760405163a167129560e01b81523060048201526001600160a01b037f00000000000000000000000000000000000000000000000000000000000000008116602483015261271060448301527f0000000000000000000000000000000000000000000000000000000000000000169063a1671295906064016020604051808303816000875af1158015612156573d6000803e3d6000fd5b505050506040513d601f19601f8201168201806040525081019061217a9190614c5b565b90505b6001600160a01b0381166121c95760405162461bcd60e51b8152602060048201526013602482015272141bdbdb08191bd95cc81b9bdd08195e1a5cdd606a1b6044820152606401610cfc565b600d546000906121db9060020b6132cb565b60405163f637731d60e01b81526001600160a01b0380831660048301529192509083169063f637731d90602401600060405180830381600087803b15801561222257600080fd5b505af1158015612236573d6000803e3d6000fd5b5050604080514781526001600160a01b03851660208201526000818301819052606082015290517f194b98d7327f7e5a21b302ad3be9f3402fad62465a1e4b5fe0d14a3e4696be309350908190036080019150a160006018544761229a9190614c1c565b604080518281526001600160a01b038516602082015260008183015247606082015290519192507f194b98d7327f7e5a21b302ad3be9f3402fad62465a1e4b5fe0d14a3e4696be30919081900360800190a17f00000000000000000000000000000000000000000000000000000000000000006001600160a01b031663d0e30db0826040518263ffffffff1660e01b81526004016000604051808303818588803b15801561234757600080fd5b505af115801561235b573d6000803e3d6000fd5b505060405163095ea7b360e01b81526001600160a01b037f0000000000000000000000000000000000000000000000000000000000000000166004820152600019602482015230935063095ea7b3925060440190506020604051808303816000875af11580156123cf573d6000803e3d6000fd5b505050506040513d601f19601f820116820180604052508101906123f39190614b98565b5060405163095ea7b360e01b81526001600160a01b037f00000000000000000000000000000000000000000000000000000000000000008116600483015260001960248301527f0000000000000000000000000000000000000000000000000000000000000000169063095ea7b3906044016020604051808303816000875af1158015612484573d6000803e3d6000fd5b505050506040513d601f19601f820116820180604052508101906124a89190614b98565b506000806001600160a01b037f0000000000000000000000000000000000000000000000000000000000000000163010612503577f000000000000000000000000000000000000000000000000000000000000000030612526565b307f00000000000000000000000000000000000000000000000000000000000000005b9092509050600080306001600160a01b0385161461255057846aa56fa5b99019a5c800000061255e565b6aa56fa5b99019a5c8000000855b60408051838152602081018390526000818301819052606082015290519294509092507f194b98d7327f7e5a21b302ad3be9f3402fad62465a1e4b5fe0d14a3e4696be30919081900360800190a1505050505050505b50505050565b6125c261300c565b600081116126125760405162461bcd60e51b815260206004820152601d60248201527f416d6f756e74206d7573742062652067726561746572207468616e20300000006044820152606401610cfc565b600061261d33610d0c565b90508181101561263f5760405162461bcd60e51b8152600401610cfc90614bee565b6126498282614c1c565b60000361265f57612659336118e7565b5061266f565b61266d336111ae8484614c1c565b505b600061267a8361194f565b90506126868133611940565b80601760008282546126989190614c2f565b909155506126a990503330856136d7565b337f483f8aec0fd892ac72ad1ba8d0e9c9e73db59c12d263fd71de480b5b3deeae3c6126d36113ce565b6126e4670de0b6b3a7640000610fe4565b60408051928352602083019190915281018690526060810184905260800160405180910390a2505050565b612717612c04565b6001600160a01b03811661274157604051631e4fbdf760e01b815260006004820152602401610cfc565b61274a81612ef5565b50565b60006020820180359060099083906127659086614985565b63ffffffff1681526020810191909152604001600020541492915050565b600854600160a01b900460ff166113ae57604051638dfc202b60e01b815260040160405180910390fd5b60006111ea836001600160a01b038416613736565b60608360036127d282600061377d565b61ffff1614612806576127e681600061377d565b604051633a51740d60e01b815261ffff9091166004820152602401610cfc565b600061281285856137da565b905061282086600183613841565b9695505050505050565b612832614528565b600061284184600001516138ac565b60208501519091501561285b5761285b84602001516138d4565b7f00000000000000000000000000000000000000000000000000000000000000006001600160a01b0316632637a450826040518060a001604052808b63ffffffff1681526020016128ab8c6129f4565b81526020018a815260200189815260200160008960200151111515815250866040518463ffffffff1660e01b81526004016128e7929190614c78565b60806040518083038185885af1158015612905573d6000803e3d6000fd5b50505050506040513d601f19601f8201168201806040525081019061292a9190614d40565b979650505050505050565b606060006111ea836139b6565b60006111ea6110038385614c2f565b600082816001841661296b57670de0b6b3a764000061296d565b815b9050600184901c93505b83156129ab5761298782836139c1565b9150600184161561299f5761299c81836139c1565b90505b600184901c9350612977565b80611245565b60006111ea6110038385614c1c565b60006111ea61100384846139c1565b60006111ea61100384670de0b6b3a764000085613a77565b610c428383836001613b4b565b63ffffffff811660009081526009602052604081205480610f4c5760405163f6ff4fb760e01b815263ffffffff84166004820152602401610cfc565b60008080612a4087890189614db2565b91945092509050612a5360118383612aa2565b50506001600160a01b03166000908152601460205260409020805463ffffffff191663ffffffff9290921691909117905550505050505050565b60006111ea836001600160a01b038416613c20565b60006111e7846001600160a01b03851684613c3d565b6000808080612ad0866001600160a01b038716613c5a565b909450925050505b9250929050565b600033612aed858285613c94565b612af88585856136d7565b506001949350505050565b600082825b80821015612b795760006002612b1e8484614c1c565b612b289190614b67565b612b329084614c2f565b90506000612b3f8261194f565b905088811015612b5b57612b54826001614c2f565b9350612b72565b88811115612b6b57819250612b72565b5050612b79565b5050612b08565b6000612b89610a3e600185614c1c565b9050878111158015612bb85750612ba08188614b3a565b612baa828a614c1c565b612bb5906064614b3a565b11155b612bf85760405162461bcd60e51b81526020600482015260116024820152700a6d8d2e0e0c2ceca40e8dede40d0d2ced607b1b6044820152606401610cfc565b50909695505050505050565b6008546001600160a01b031633146113ae5760405163118cdaa760e01b8152336004820152602401610cfc565b63ffffffff8216600081815260096020908152604091829020849055815192835282018390527f238399d427b947898edb290f5ff0f9109849b1c3ba196a42e35f00c50a54b98b910160405180910390a15050565b6000306001600160a01b037f000000000000000000000000000000000000000000000000000000000000000016148015612cdf57507f000000000000000000000000000000000000000000000000000000000000000046145b15612d0957507f000000000000000000000000000000000000000000000000000000000000000090565b610f3a604080517f8b73c3c69bb8fe3d512ecc4cf759cc79239f7b179b0ffacaa9a75d522b39400f60208201527f0000000000000000000000000000000000000000000000000000000000000000918101919091527f000000000000000000000000000000000000000000000000000000000000000060608201524660808201523060a082015260009060c00160405160208183030381529060405280519060200120905090565b600082825b80821015612e275760006002612dcc8484614c1c565b612dd69190614b67565b612de09084614c2f565b90506000612ded82610fe4565b905088811015612e0957612e02826001614c2f565b9350612e20565b88811115612e1957819250612e20565b5050612e27565b5050612db6565b6000612e37610489600185614c1c565b9050612e706040518060400160405280601481526020017346696e616c2050726963653a202564202825642960601b815250828a613d0c565b878111158015612bb85750612ba08188614b3a565b60006003821115612ee65750806000612e9f600283614b67565b612eaa906001614c2f565b90505b81811015612ee057905080600281612ec58186614b67565b612ecf9190614c2f565b612ed99190614b67565b9050612ead565b50919050565b8115612ef0575060015b919050565b600880546001600160a01b038381166001600160a01b0319831681179093556040519116919082907f8be0079c531659141344cd1fd0a4f28419497f9722a3daafe3b4186f6b6457e090600090a35050565b612f4f61300c565b6008805460ff60a01b1916600160a01b1790557f62e78cea01bee320cd4e420270b5ea74000d11b0c9f74754ebdbfc544b05a258612f8a3390565b6040516001600160a01b03909116815260200160405180910390a1565b6060610f3a7f00000000000000000000000000000000000000000000000000000000000000006005613d53565b6060610f3a7f00000000000000000000000000000000000000000000000000000000000000006006613d53565b6000610f4c82613dfe565b600854600160a01b900460ff16156113ae5760405163d93c066560e01b815260040160405180910390fd5b60408051808201909152600080825260208201527f00000000000000000000000000000000000000000000000000000000000000006001600160a01b031663ddc28c586040518060a001604052808863ffffffff16815260200161309a896129f4565b8152602001878152602001868152602001851515815250306040518363ffffffff1660e01b81526004016130cf929190614c78565b6040805180830381865afa1580156130eb573d6000803e3d6000fd5b505050506040513d601f19601f820116820180604052508101906112459190614dd2565b6000336110768185856136d7565b804710156131405760405163cd78605960e01b8152306004820152602401610cfc565b6000826001600160a01b03168260405160006040518083038185875af1925050503d806000811461318d576040519150601f19603f3d011682016040523d82523d6000602084013e613192565b606091505b5050905080610c4257604051630a12f52160e11b815260040160405180910390fd5b6000610f4c6131c1612c86565b8360405161190160f01b8152600281019290925260228201526042902090565b6000806000806131f388888888613e09565b925092509250612bf88282613ed8565b6000613210600e33612ab8565b91505061322761321d3390565b6111ae8684614c2f565b50816018600082825461323a9190614c2f565b9250508190555034601760008282546132539190614c2f565b9091555061326490503033866136d7565b337f064fb1933e186be0b289a87e98518dc18cc9856ecbc9f1353d1a138ddf733ec561328e6113ce565b61329f670de0b6b3a7640000610fe4565b60408051928352602083019190915281018790526060810186905260800160405180910390a250505050565b60008060008360020b126132e2578260020b6132ef565b8260020b6132ef90614dee565b9050620d89e88111156133285760405162461bcd60e51b81526020600482015260016024820152601560fa1b6044820152606401610cfc565b60008160011660000361333f57600160801b613351565b6ffffcb933bd6fad37aa2d162d1a5940015b70ffffffffffffffffffffffffffffffffff169050600282161561339057608061338b826ffff97272373d413259a46990580e213a614b3a565b901c90505b60048216156133ba5760806133b5826ffff2e50f5f656932ef12357cf3c7fdcc614b3a565b901c90505b60088216156133e45760806133df826fffe5caca7e10e4e61c3624eaa0941cd0614b3a565b901c90505b601082161561340e576080613409826fffcb9843d60f6159c9db58835c926644614b3a565b901c90505b6020821615613438576080613433826fff973b41fa98c081472e6896dfb254c0614b3a565b901c90505b604082161561346257608061345d826fff2ea16466c96a3843ec78b326b52861614b3a565b901c90505b608082161561348c576080613487826ffe5dee046a99a2a811c461f1969c3053614b3a565b901c90505b6101008216156134b75760806134b2826ffcbe86c7900a88aedcffc83b479aa3a4614b3a565b901c90505b6102008216156134e25760806134dd826ff987a7253ac413176f2b074cf7815e54614b3a565b901c90505b61040082161561350d576080613508826ff3392b0822b70005940c7a398e4b70f3614b3a565b901c90505b610800821615613538576080613533826fe7159475a2c29b7443b29c7fa6e889d9614b3a565b901c90505b61100082161561356357608061355e826fd097f3bdfd2022b8845ad8f792aa5825614b3a565b901c90505b61200082161561358e576080613589826fa9f746462d870fdf8a65dc1f90e061e5614b3a565b901c90505b6140008216156135b95760806135b4826f70d869a156d2a1b890bb3df62baf32f7614b3a565b901c90505b6180008216156135e45760806135df826f31be135f97d08fd981231505542fcfa6614b3a565b901c90505b6201000082161561361057608061360b826f09aa508b5b7a84e1c677de54f3e99bc9614b3a565b901c90505b6202000082161561363b576080613636826e5d6af8dedb81196699c329225ee604614b3a565b901c90505b62040000821615613665576080613660826d2216e584f5fa1ea926041bedfe98614b3a565b901c90505b6208000082161561368d576080613688826b048a170391f7dc42444e8fa2614b3a565b901c90505b60008460020b13156136a8576136a581600019614b67565b90505b6136b764010000000082614e0a565b156136c35760016136c6565b60005b6110609060ff16602083901c614c2f565b6001600160a01b03831661370157604051634b637e8f60e11b815260006004820152602401610cfc565b6001600160a01b03821661372b5760405163ec442f0560e01b815260006004820152602401610cfc565b610c42838383613f91565b60008181526002830160205260408120548015801561375c575061375a84846140bb565b155b156111ea5760405163015ab34360e11b815260048101849052602401610cfc565b600061378a826002614c2f565b835110156137d15760405162461bcd60e51b8152602060048201526014602482015273746f55696e7431365f6f75744f66426f756e647360601b6044820152606401610cfc565b50016002015190565b60606001600160801b0382161561382257604080516001600160801b0319608086811b8216602084015285901b166030820152016040516020818303038152906040526111ea565b6040516001600160801b0319608085901b166020820152603001611635565b606083600361385182600061377d565b61ffff1614613865576127e681600061377d565b84600161387285516140c7565b61387d906001614e1e565b8686604051602001613893959493929190614e39565b6040516020818303038152906040529150509392505050565b60008134146138d0576040516304fb820960e51b8152346004820152602401610cfc565b5090565b60007f00000000000000000000000000000000000000000000000000000000000000006001600160a01b031663e4fe1d946040518163ffffffff1660e01b8152600401602060405180830381865afa158015613934573d6000803e3d6000fd5b505050506040513d601f19601f820116820180604052508101906139589190614c5b565b90506001600160a01b038116613981576040516329b99a9560e11b815260040160405180910390fd5b61126c6001600160a01b038216337f0000000000000000000000000000000000000000000000000000000000000000856140f6565b6060610f4c82614150565b60008080600019848609848602925082811083820303915050806000036139f55750670de0b6b3a764000090049050610f4c565b670de0b6b3a76400008110613a2757604051635173648d60e01b81526004810186905260248101859052604401610cfc565b6000670de0b6b3a764000085870962040000818503049310909103600160ee1b02919091177faccb18165bd6fe31ae1cf318dc5b51eee0e1ba569b88cd74c1773b91fac106690291505092915050565b6000808060001985870985870292508281108382030391505080600003613ab157838281613aa757613aa7614b51565b04925050506111ea565b838110613ae257604051630c740aef60e31b8152600481018790526024810186905260448101859052606401610cfc565b60008486880960026001871981018816978890046003810283188082028403028082028403028082028403028082028403028082028403029081029092039091026000889003889004909101858311909403939093029303949094049190911702949350505050565b6001600160a01b038416613b755760405163e602df0560e01b815260006004820152602401610cfc565b6001600160a01b038316613b9f57604051634a1406b160e11b815260006004820152602401610cfc565b6001600160a01b03808516600090815260016020908152604080832093871683529290522082905580156125b457826001600160a01b0316846001600160a01b03167f8c5be1e5ebec7d5bd14f71427d1e84f3dd0314c0f7b2291e5b200ac8c7c3b92584604051613c1291815260200190565b60405180910390a350505050565b600081815260028301602052604081208190556111ea838361415d565b600082815260028401602052604081208290556111e78484614169565b6000818152600283016020526040812054819080613c8957613c7c85856140bb565b925060009150612ad89050565b600192509050612ad8565b6001600160a01b0383811660009081526001602090815260408083209386168352929052205460001981146125b45781811015613cfd57604051637dc7a0d960e11b81526001600160a01b03841660048201526024810182905260448101839052606401610cfc565b6125b484848484036000613b4b565b610c42838383604051602401613d2493929190614ea0565b60408051601f198184030181529190526020810180516001600160e01b031663ca47c4eb60e01b179052614175565b606060ff8314613d6d57613d668361417e565b9050610f4c565b818054613d7990614bba565b80601f0160208091040260200160405190810160405280929190818152602001828054613da590614bba565b8015613df25780601f10613dc757610100808354040283529160200191613df2565b820191906000526020600020905b815481529060010190602001808311613dd557829003601f168201915b50505050509050610f4c565b6000610f4c826141bd565b600080807f7fffffffffffffffffffffffffffffff5d576e7357a4501ddfe92f46681b20a0841115613e445750600091506003905082613ece565b604080516000808252602082018084528a905260ff891692820192909252606081018790526080810186905260019060a0016020604051602081039080840390855afa158015613e98573d6000803e3d6000fd5b5050604051601f1901519150506001600160a01b038116613ec457506000925060019150829050613ece565b9250600091508190505b9450945094915050565b6000826003811115613eec57613eec614ec5565b03613ef5575050565b6001826003811115613f0957613f09614ec5565b03613f275760405163f645eedf60e01b815260040160405180910390fd5b6002826003811115613f3b57613f3b614ec5565b03613f5c5760405163fce698f760e01b815260048101829052602401610cfc565b6003826003811115613f7057613f70614ec5565b0361126c576040516335e2f38360e21b815260048101829052602401610cfc565b6001600160a01b038316613fbc578060026000828254613fb19190614c2f565b9091555061402e9050565b6001600160a01b0383166000908152602081905260409020548181101561400f5760405163391434e360e21b81526001600160a01b03851660048201526024810182905260448101839052606401610cfc565b6001600160a01b03841660009081526020819052604090209082900390555b6001600160a01b03821661404a57600280548290039055614069565b6001600160a01b03821660009081526020819052604090208054820190555b816001600160a01b0316836001600160a01b03167fddf252ad1be2c89b69c2b068fc378daa952ba7f163c4a11628f55a4df523b3ef836040516140ae91815260200190565b60405180910390a3505050565b60006111ea83836141c7565b600061ffff8211156138d0576040516306dfcc6560e41b81526010600482015260248101839052604401610cfc565b604080516001600160a01b0385811660248301528416604482015260648082018490528251808303909101815260849091019091526020810180516001600160e01b03166323b872dd60e01b1790526125b49085906141df565b606060006111ea83614242565b60006111ea838361429e565b60006111ea8383614398565b61274a816143e7565b6060600061418b83614408565b604080516020808252818301909252919250600091906020820181803683375050509182525060208101929092525090565b6000610f4c825490565b600081815260018301602052604081205415156111ea565b60006141f46001600160a01b03841683614430565b905080516000141580156142195750808060200190518101906142179190614b98565b155b15610c4257604051635274afe760e01b81526001600160a01b0384166004820152602401610cfc565b60608160000180548060200260200160405190810160405280929190818152602001828054801561429257602002820191906000526020600020905b81548152602001906001019080831161427e575b50505050509050919050565b600081815260018301602052604081205480156143875760006142c2600183614c1c565b85549091506000906142d690600190614c1c565b905080821461433b5760008660000182815481106142f6576142f6614edb565b906000526020600020015490508087600001848154811061431957614319614edb565b6000918252602080832090910192909255918252600188019052604090208390555b855486908061434c5761434c614ef1565b600190038181906000526020600020016000905590558560010160008681526020019081526020016000206000905560019350505050610f4c565b6000915050610f4c565b5092915050565b60008181526001830160205260408120546143df57508154600181810184556000848152602080822090930184905584548482528286019093526040902091909155610f4c565b506000610f4c565b60006a636f6e736f6c652e6c6f679050600080835160208501845afa505050565b600060ff8216601f811115610f4c57604051632cd44ac360e21b815260040160405180910390fd5b60606111ea8383600084600080856001600160a01b031684866040516144569190614f07565b60006040518083038185875af1925050503d8060008114614493576040519150601f19603f3d011682016040523d82523d6000602084013e614498565b606091505b50915091506128208683836060826144b8576144b3826144ff565b6111ea565b81511580156144cf57506001600160a01b0384163b155b156144f857604051639996b31560e01b81526001600160a01b0385166004820152602401610cfc565b50806111ea565b80511561450f5780518082602001fd5b604051630a12f52160e11b815260040160405180910390fd5b604051806060016040528060008019168152602001600067ffffffffffffffff16815260200161456b604051806040016040528060008152602001600081525090565b905290565b6001600160a01b038116811461274a57600080fd5b6000806040838503121561459857600080fd5b82356145a381614570565b915060208301356001600160801b03811681146145bf57600080fd5b809150509250929050565b6020808252825182820181905260009190848201906040850190845b81811015612bf85783516001600160a01b0316835292840192918401916001016145e6565b60006020828403121561461d57600080fd5b81356111ea81614570565b60005b8381101561464357818101518382015260200161462b565b50506000910152565b60008151808452614664816020860160208601614628565b601f01601f19169290920160200192915050565b6020815260006111ea602083018461464c565b60006020828403121561469d57600080fd5b5035919050565b600080604083850312156146b757600080fd5b82356146c281614570565b946020939093013593505050565b600060608284031215612ee057600080fd5b60008083601f8401126146f457600080fd5b50813567ffffffffffffffff81111561470c57600080fd5b602083019150836020828501011115612ad857600080fd5b600080600080600080600060e0888a03121561473f57600080fd5b61474989896146d0565b965060608801359550608088013567ffffffffffffffff8082111561476d57600080fd5b6147798b838c016146e2565b909750955060a08a0135915061478e82614570565b90935060c089013590808211156147a457600080fd5b506147b18a828b016146e2565b989b979a50959850939692959293505050565b6000806000606084860312156147d957600080fd5b83356147e481614570565b925060208401356147f481614570565b929592945050506040919091013590565b6000806040838503121561481857600080fd5b50508035926020909101359150565b63ffffffff8116811461274a57600080fd5b6000806040838503121561484c57600080fd5b82356146c281614827565b60008060008060a0858703121561486d57600080fd5b61487786866146d0565b9350606085013567ffffffffffffffff81111561489357600080fd5b61489f878288016146e2565b90945092505060808501356148b381614570565b939692955090935050565b60ff60f81b881681526000602060e060208401526148df60e084018a61464c565b83810360408501526148f1818a61464c565b606085018990526001600160a01b038816608086015260a0850187905284810360c08601528551808252602080880193509091019060005b8181101561494557835183529284019291840191600101614929565b50909c9b505050505050505050505050565b6000806040838503121561496a57600080fd5b823561497581614570565b915060208301356145bf81614570565b60006020828403121561499757600080fd5b81356111ea81614827565b600080600080600080600060e0888a0312156149bd57600080fd5b87356149c881614570565b965060208801356149d881614570565b95506040880135945060608801359350608088013560ff811681146149fc57600080fd5b9699959850939692959460a0840135945060c09093013592915050565b634e487b7160e01b600052604160045260246000fd5b604051601f8201601f1916810167ffffffffffffffff81118282101715614a5857614a58614a19565b604052919050565b600080600060608486031215614a7557600080fd5b833592506020808501359250604085013567ffffffffffffffff80821115614a9c57600080fd5b818701915087601f830112614ab057600080fd5b813581811115614ac257614ac2614a19565b614ad4601f8201601f19168501614a2f565b91508082528884828501011115614aea57600080fd5b80848401858401376000848284010152508093505050509250925092565b600060608284031215614b1a57600080fd5b6111ea83836146d0565b634e487b7160e01b600052601160045260246000fd5b8082028115828204841417610f4c57610f4c614b24565b634e487b7160e01b600052601260045260246000fd5b600082614b7657614b76614b51565b500490565b600060208284031215614b8d57600080fd5b81516111ea81614827565b600060208284031215614baa57600080fd5b815180151581146111ea57600080fd5b600181811c90821680614bce57607f821691505b602082108103612ee057634e487b7160e01b600052602260045260246000fd5b602080825260149082015273496e73756666696369656e742062616c616e636560601b604082015260600190565b81810381811115610f4c57610f4c614b24565b80820180821115610f4c57610f4c614b24565b600060208284031215614c5457600080fd5b5051919050565b600060208284031215614c6d57600080fd5b81516111ea81614570565b6040815263ffffffff8351166040820152602083015160608201526000604084015160a06080840152614cae60e084018261464c565b90506060850151603f198483030160a0850152614ccb828261464c565b60809690960151151560c08501525050506001600160a01b039190911660209091015290565b600060408284031215614d0357600080fd5b6040516040810181811067ffffffffffffffff82111715614d2657614d26614a19565b604052825181526020928301519281019290925250919050565b600060808284031215614d5257600080fd5b6040516060810167ffffffffffffffff8282108183111715614d7657614d76614a19565b8160405284518352602085015191508082168214614d9357600080fd5b506020820152614da68460408501614cf1565b60408201529392505050565b600080600060608486031215614dc757600080fd5b83356147e481614827565b600060408284031215614de457600080fd5b6111ea8383614cf1565b6000600160ff1b8201614e0357614e03614b24565b5060000390565b600082614e1957614e19614b51565b500690565b61ffff81811683821601908082111561439157614391614b24565b60008651614e4b818460208b01614628565b6001600160f81b031960f888811b82169285019283526001600160f01b031960f089901b16600184015286901b1660038201528351614e91816004840160208801614628565b01600401979650505050505050565b606081526000614eb3606083018661464c565b60208301949094525060400152919050565b634e487b7160e01b600052602160045260246000fd5b634e487b7160e01b600052603260045260246000fd5b634e487b7160e01b600052603160045260246000fd5b60008251614f19818460208701614628565b919091019291505056fea26469706673582212201673307ba25638b7edf2c7c9757172e2a1028db42680460a4053eb9b456265b064736f6c63430008160033",
  "devdoc": {
    "errors": {
      "AddressEmptyCode(address)": [
        {
          "details": "There's no code at `target` (it is not a contract)."
        }
      ],
      "AddressInsufficientBalance(address)": [
        {
          "details": "The ETH balance of the account is not enough to perform the operation."
        }
      ],
      "ECDSAInvalidSignature()": [
        {
          "details": "The signature derives the `address(0)`."
        }
      ],
      "ECDSAInvalidSignatureLength(uint256)": [
        {
          "details": "The signature has an invalid length."
        }
      ],
      "ECDSAInvalidSignatureS(bytes32)": [
        {
          "details": "The signature has an S value that is in the upper half order."
        }
      ],
      "ERC20InsufficientAllowance(address,uint256,uint256)": [
        {
          "details": "Indicates a failure with the `spender`s `allowance`. Used in transfers.",
          "params": {
            "allowance": "Amount of tokens a `spender` is allowed to operate with.",
            "needed": "Minimum amount required to perform a transfer.",
            "spender": "Address that may be allowed to operate on tokens without being their owner."
          }
        }
      ],
      "ERC20InsufficientBalance(address,uint256,uint256)": [
        {
          "details": "Indicates an error related to the current `balance` of a `sender`. Used in transfers.",
          "params": {
            "balance": "Current balance for the interacting account.",
            "needed": "Minimum amount required to perform a transfer.",
            "sender": "Address whose tokens are being transferred."
          }
        }
      ],
      "ERC20InvalidApprover(address)": [
        {
          "details": "Indicates a failure with the `approver` of a token to be approved. Used in approvals.",
          "params": {
            "approver": "Address initiating an approval operation."
          }
        }
      ],
      "ERC20InvalidReceiver(address)": [
        {
          "details": "Indicates a failure with the token `receiver`. Used in transfers.",
          "params": {
            "receiver": "Address to which tokens are being transferred."
          }
        }
      ],
      "ERC20InvalidSender(address)": [
        {
          "details": "Indicates a failure with the token `sender`. Used in transfers.",
          "params": {
            "sender": "Address whose tokens are being transferred."
          }
        }
      ],
      "ERC20InvalidSpender(address)": [
        {
          "details": "Indicates a failure with the `spender` to be approved. Used in approvals.",
          "params": {
            "spender": "Address that may be allowed to operate on tokens without being their owner."
          }
        }
      ],
      "ERC2612ExpiredSignature(uint256)": [
        {
          "details": "Permit deadline has expired."
        }
      ],
      "ERC2612InvalidSigner(address,address)": [
        {
          "details": "Mismatched signature."
        }
      ],
      "EnforcedPause()": [
        {
          "details": "The operation failed because the contract is paused."
        }
      ],
      "EnumerableMapNonexistentKey(bytes32)": [
        {
          "details": "Query for a nonexistent map key."
        }
      ],
      "ExpectedPause()": [
        {
          "details": "The operation failed because the contract is not paused."
        }
      ],
      "FailedInnerCall()": [
        {
          "details": "A call to an address target failed. The target may have reverted."
        }
      ],
      "InvalidAccountNonce(address,uint256)": [
        {
          "details": "The nonce used for an `account` is not the expected current nonce."
        }
      ],
      "OwnableInvalidOwner(address)": [
        {
          "details": "The owner is not a valid owner account. (eg. `address(0)`)"
        }
      ],
      "OwnableUnauthorizedAccount(address)": [
        {
          "details": "The caller account is not authorized to perform an operation."
        }
      ],
      "SafeCastOverflowedUintDowncast(uint8,uint256)": [
        {
          "details": "Value doesn't fit in an uint of `bits` size."
        }
      ],
      "SafeERC20FailedOperation(address)": [
        {
          "details": "An operation with an ERC20 token failed."
        }
      ]
    },
    "events": {
      "Approval(address,address,uint256)": {
        "details": "Emitted when the allowance of a `spender` for an `owner` is set by a call to {approve}. `value` is the new allowance."
      },
      "EIP712DomainChanged()": {
        "details": "MAY be emitted to signal that the domain could have changed."
      },
      "Paused(address)": {
        "details": "Emitted when the pause is triggered by `account`."
      },
      "Transfer(address,address,uint256)": {
        "details": "Emitted when `value` tokens are moved from one account (`from`) to another (`to`). Note that `value` may be zero."
      },
      "Unpaused(address)": {
        "details": "Emitted when the pause is lifted by `account`."
      }
    },
    "kind": "dev",
    "methods": {
      "DOMAIN_SEPARATOR()": {
        "details": "Returns the domain separator used in the encoding of the signature for {permit}, as defined by {EIP712}."
      },
      "allowInitializePath((uint32,bytes32,uint64))": {
        "details": "This indicates to the endpoint that the OApp has enabled msgs for this particular path to be received.This defaults to assuming if a peer has been set, its initialized. Can be overridden by the OApp if there is other logic to determine this.",
        "params": {
          "origin": "The origin information containing the source endpoint and sender address."
        },
        "returns": {
          "_0": "Whether the path has been initialized."
        }
      },
      "allowance(address,address)": {
        "details": "See {IERC20-allowance}."
      },
      "approve(address,uint256)": {
        "details": "See {IERC20-approve}. NOTE: If `value` is the maximum `uint256`, the allowance is not updated on `transferFrom`. This is semantically equivalent to an infinite approval. Requirements: - `spender` cannot be the zero address."
      },
      "balanceOf(address)": {
        "details": "See {IERC20-balanceOf}."
      },
      "decimals()": {
        "details": "Returns the number of decimals used to get its user representation. For example, if `decimals` equals `2`, a balance of `505` tokens should be displayed to a user as `5.05` (`505 / 10 ** 2`). Tokens usually opt for a value of 18, imitating the relationship between Ether and Wei. This is the default value returned by this function, unless it's overridden. NOTE: This information is only used for _display_ purposes: it in no way affects any of the arithmetic of the contract, including {IERC20-balanceOf} and {IERC20-transfer}."
      },
      "eip712Domain()": {
        "details": "See {IERC-5267}."
      },
      "isComposeMsgSender((uint32,bytes32,uint64),bytes,address)": {
        "details": "_origin The origin information containing the source endpoint and sender address.  - srcEid: The source chain endpoint ID.  - sender: The sender address on the src chain.  - nonce: The nonce of the message._message The lzReceive payload.Applications can optionally choose to implement separate composeMsg senders that are NOT the bridging layer.The default sender IS the OAppReceiver implementer.",
        "params": {
          "_sender": "The sender address."
        },
        "returns": {
          "_0": "isSender Is a valid sender."
        }
      },
      "lzReceive((uint32,bytes32,uint64),bytes32,bytes,address,bytes)": {
        "details": "Entry point for receiving messages or packets from the endpoint.Entry point for receiving msg/packet from the LayerZero endpoint.",
        "params": {
          "_executor": "The address of the executor for the received message.",
          "_extraData": "Additional arbitrary data provided by the corresponding executor.",
          "_guid": "The unique identifier for the received LayerZero message.",
          "_message": "The payload of the received message.",
          "_origin": "The origin information containing the source endpoint and sender address.  - srcEid: The source chain endpoint ID.  - sender: The sender address on the src chain.  - nonce: The nonce of the message."
        }
      },
      "name()": {
        "details": "Returns the name of the token."
      },
      "nextNonce(uint32,bytes32)": {
        "details": "_srcEid The source endpoint ID._sender The sender address.The path nonce starts from 1. If 0 is returned it means that there is NO nonce ordered enforcement.Is required by the off-chain executor to determine the OApp expects msg execution is ordered.This is also enforced by the OApp.By default this is NOT enabled. ie. nextNonce is hardcoded to return 0.",
        "returns": {
          "nonce": "The next nonce."
        }
      },
      "nonces(address)": {
        "details": "Returns the current nonce for `owner`. This value must be included whenever a signature is generated for {permit}. Every successful call to {permit} increases ``owner``'s nonce by one. This prevents a signature from being used multiple times."
      },
      "oAppVersion()": {
        "returns": {
          "receiverVersion": "The version of the OAppReceiver.sol implementation.",
          "senderVersion": "The version of the OAppSender.sol implementation."
        }
      },
      "owner()": {
        "details": "Returns the address of the current owner."
      },
      "paused()": {
        "details": "Returns true if the contract is paused, and false otherwise."
      },
      "permit(address,address,uint256,uint256,uint8,bytes32,bytes32)": {
        "details": "Sets `value` as the allowance of `spender` over ``owner``'s tokens, given ``owner``'s signed approval. IMPORTANT: The same issues {IERC20-approve} has related to transaction ordering also apply here. Emits an {Approval} event. Requirements: - `spender` cannot be the zero address. - `deadline` must be a timestamp in the future. - `v`, `r` and `s` must be a valid `secp256k1` signature from `owner` over the EIP712-formatted function arguments. - the signature must use ``owner``'s current nonce (see {nonces}). For more information on the signature format, see the https://eips.ethereum.org/EIPS/eip-2612#specification[relevant EIP section]. CAUTION: See Security Considerations above."
      },
      "renounceOwnership()": {
        "details": "Leaves the contract without owner. It will not be possible to call `onlyOwner` functions. Can only be called by the current owner. NOTE: Renouncing ownership will leave the contract without an owner, thereby disabling any functionality that is only available to the owner."
      },
      "setDelegate(address)": {
        "details": "Only the owner/admin of the OApp can call this function.Provides the ability for a delegate to set configs, on behalf of the OApp, directly on the Endpoint contract.",
        "params": {
          "_delegate": "The address of the delegate to be set."
        }
      },
      "setPeer(uint32,bytes32)": {
        "details": "Only the owner/admin of the OApp can call this function.Indicates that the peer is trusted to send LayerZero messages to this OApp.Set this to bytes32(0) to remove the peer address.Peer is a bytes32 to accommodate non-evm chains.",
        "params": {
          "_eid": "The endpoint ID.",
          "_peer": "The address of the peer to be associated with the corresponding endpoint."
        }
      },
      "symbol()": {
        "details": "Returns the symbol of the token, usually a shorter version of the name."
      },
      "totalSupply()": {
        "details": "See {IERC20-totalSupply}."
      },
      "transferOwnership(address)": {
        "details": "Transfers ownership of the contract to a new account (`newOwner`). Can only be called by the current owner."
      }
    },
    "version": 1
  },
  "userdoc": {
    "errors": {
      "PRBMath_MulDiv18_Overflow(uint256,uint256)": [
        {
          "notice": "Thrown when the resultant value in {mulDiv18} overflows uint256."
        }
      ],
      "PRBMath_MulDiv_Overflow(uint256,uint256,uint256)": [
        {
          "notice": "Thrown when the resultant value in {mulDiv} overflows uint256."
        }
      ]
    },
    "kind": "user",
    "methods": {
      "allowInitializePath((uint32,bytes32,uint64))": {
        "notice": "Checks if the path initialization is allowed based on the provided origin."
      },
      "endpoint()": {
        "notice": "Retrieves the LayerZero endpoint associated with the OApp."
      },
      "isComposeMsgSender((uint32,bytes32,uint64),bytes,address)": {
        "notice": "Indicates whether an address is an approved composeMsg sender to the Endpoint."
      },
      "nextNonce(uint32,bytes32)": {
        "notice": "Retrieves the next nonce for a given source endpoint and sender address."
      },
      "oAppVersion()": {
        "notice": "Retrieves the OApp version information."
      },
      "peers(uint32)": {
        "notice": "Retrieves the peer (OApp) associated with a corresponding endpoint."
      },
      "setDelegate(address)": {
        "notice": "Sets the delegate address for the OApp."
      },
      "setPeer(uint32,bytes32)": {
        "notice": "Sets the peer address (OApp instance) for a corresponding endpoint."
      }
    },
    "version": 1
  },
  "storageLayout": {
    "storage": [
      {
        "astId": 3066,
        "contract": "contracts/LaunchToken.sol:LaunchToken",
        "label": "_balances",
        "offset": 0,
        "slot": "0",
        "type": "t_mapping(t_address,t_uint256)"
      },
      {
        "astId": 3072,
        "contract": "contracts/LaunchToken.sol:LaunchToken",
        "label": "_allowances",
        "offset": 0,
        "slot": "1",
        "type": "t_mapping(t_address,t_mapping(t_address,t_uint256))"
      },
      {
        "astId": 3074,
        "contract": "contracts/LaunchToken.sol:LaunchToken",
        "label": "_totalSupply",
        "offset": 0,
        "slot": "2",
        "type": "t_uint256"
      },
      {
        "astId": 3076,
        "contract": "contracts/LaunchToken.sol:LaunchToken",
        "label": "_name",
        "offset": 0,
        "slot": "3",
        "type": "t_string_storage"
      },
      {
        "astId": 3078,
        "contract": "contracts/LaunchToken.sol:LaunchToken",
        "label": "_symbol",
        "offset": 0,
        "slot": "4",
        "type": "t_string_storage"
      },
      {
        "astId": 5754,
        "contract": "contracts/LaunchToken.sol:LaunchToken",
        "label": "_nameFallback",
        "offset": 0,
        "slot": "5",
        "type": "t_string_storage"
      },
      {
        "astId": 5756,
        "contract": "contracts/LaunchToken.sol:LaunchToken",
        "label": "_versionFallback",
        "offset": 0,
        "slot": "6",
        "type": "t_string_storage"
      },
      {
        "astId": 4616,
        "contract": "contracts/LaunchToken.sol:LaunchToken",
        "label": "_nonces",
        "offset": 0,
        "slot": "7",
        "type": "t_mapping(t_address,t_uint256)"
      },
      {
        "astId": 2742,
        "contract": "contracts/LaunchToken.sol:LaunchToken",
        "label": "_owner",
        "offset": 0,
        "slot": "8",
        "type": "t_address"
      },
      {
        "astId": 4679,
        "contract": "contracts/LaunchToken.sol:LaunchToken",
        "label": "_paused",
        "offset": 20,
        "slot": "8",
        "type": "t_bool"
      },
      {
        "astId": 539,
        "contract": "contracts/LaunchToken.sol:LaunchToken",
        "label": "peers",
        "offset": 0,
        "slot": "9",
        "type": "t_mapping(t_uint32,t_bytes32)"
      },
      {
        "astId": 18772,
        "contract": "contracts/LaunchToken.sol:LaunchToken",
        "label": "buyFeePercent",
        "offset": 0,
        "slot": "10",
        "type": "t_uint256"
      },
      {
        "astId": 18775,
        "contract": "contracts/LaunchToken.sol:LaunchToken",
        "label": "protocolFeePercent",
        "offset": 0,
        "slot": "11",
        "type": "t_uint256"
      },
      {
        "astId": 18778,
        "contract": "contracts/LaunchToken.sol:LaunchToken",
        "label": "creatorFeePercent",
        "offset": 0,
        "slot": "12",
        "type": "t_uint256"
      },
      {
        "astId": 18789,
        "contract": "contracts/LaunchToken.sol:LaunchToken",
        "label": "_poolTick",
        "offset": 0,
        "slot": "13",
        "type": "t_int24"
      },
      {
        "astId": 18791,
        "contract": "contracts/LaunchToken.sol:LaunchToken",
        "label": "_tickLower",
        "offset": 3,
        "slot": "13",
        "type": "t_int24"
      },
      {
        "astId": 18793,
        "contract": "contracts/LaunchToken.sol:LaunchToken",
        "label": "_tickUpper",
        "offset": 6,
        "slot": "13",
        "type": "t_int24"
      },
      {
        "astId": 18838,
        "contract": "contracts/LaunchToken.sol:LaunchToken",
        "label": "curveHoldings",
        "offset": 0,
        "slot": "14",
        "type": "t_struct(AddressToUintMap)9624_storage"
      },
      {
        "astId": 18841,
        "contract": "contracts/LaunchToken.sol:LaunchToken",
        "label": "rewards",
        "offset": 0,
        "slot": "17",
        "type": "t_struct(AddressToUintMap)9624_storage"
      },
      {
        "astId": 18845,
        "contract": "contracts/LaunchToken.sol:LaunchToken",
        "label": "rewardDestinations",
        "offset": 0,
        "slot": "20",
        "type": "t_mapping(t_address,t_uint32)"
      },
      {
        "astId": 18851,
        "contract": "contracts/LaunchToken.sol:LaunchToken",
        "label": "rewardClaims",
        "offset": 0,
        "slot": "21",
        "type": "t_mapping(t_address,t_mapping(t_address,t_bool))"
      },
      {
        "astId": 18857,
        "contract": "contracts/LaunchToken.sol:LaunchToken",
        "label": "sponsors",
        "offset": 0,
        "slot": "22",
        "type": "t_mapping(t_address,t_mapping(t_address,t_uint256))"
      },
      {
        "astId": 18859,
        "contract": "contracts/LaunchToken.sol:LaunchToken",
        "label": "volume",
        "offset": 0,
        "slot": "23",
        "type": "t_uint256"
      },
      {
        "astId": 18861,
        "contract": "contracts/LaunchToken.sol:LaunchToken",
        "label": "feesEarned",
        "offset": 0,
        "slot": "24",
        "type": "t_uint256"
      }
    ],
    "types": {
      "t_address": {
        "encoding": "inplace",
        "label": "address",
        "numberOfBytes": "20"
      },
      "t_array(t_bytes32)dyn_storage": {
        "base": "t_bytes32",
        "encoding": "dynamic_array",
        "label": "bytes32[]",
        "numberOfBytes": "32"
      },
      "t_bool": {
        "encoding": "inplace",
        "label": "bool",
        "numberOfBytes": "1"
      },
      "t_bytes32": {
        "encoding": "inplace",
        "label": "bytes32",
        "numberOfBytes": "32"
      },
      "t_int24": {
        "encoding": "inplace",
        "label": "int24",
        "numberOfBytes": "3"
      },
      "t_mapping(t_address,t_bool)": {
        "encoding": "mapping",
        "key": "t_address",
        "label": "mapping(address => bool)",
        "numberOfBytes": "32",
        "value": "t_bool"
      },
      "t_mapping(t_address,t_mapping(t_address,t_bool))": {
        "encoding": "mapping",
        "key": "t_address",
        "label": "mapping(address => mapping(address => bool))",
        "numberOfBytes": "32",
        "value": "t_mapping(t_address,t_bool)"
      },
      "t_mapping(t_address,t_mapping(t_address,t_uint256))": {
        "encoding": "mapping",
        "key": "t_address",
        "label": "mapping(address => mapping(address => uint256))",
        "numberOfBytes": "32",
        "value": "t_mapping(t_address,t_uint256)"
      },
      "t_mapping(t_address,t_uint256)": {
        "encoding": "mapping",
        "key": "t_address",
        "label": "mapping(address => uint256)",
        "numberOfBytes": "32",
        "value": "t_uint256"
      },
      "t_mapping(t_address,t_uint32)": {
        "encoding": "mapping",
        "key": "t_address",
        "label": "mapping(address => uint32)",
        "numberOfBytes": "32",
        "value": "t_uint32"
      },
      "t_mapping(t_bytes32,t_bytes32)": {
        "encoding": "mapping",
        "key": "t_bytes32",
        "label": "mapping(bytes32 => bytes32)",
        "numberOfBytes": "32",
        "value": "t_bytes32"
      },
      "t_mapping(t_bytes32,t_uint256)": {
        "encoding": "mapping",
        "key": "t_bytes32",
        "label": "mapping(bytes32 => uint256)",
        "numberOfBytes": "32",
        "value": "t_uint256"
      },
      "t_mapping(t_uint32,t_bytes32)": {
        "encoding": "mapping",
        "key": "t_uint32",
        "label": "mapping(uint32 => bytes32)",
        "numberOfBytes": "32",
        "value": "t_bytes32"
      },
      "t_string_storage": {
        "encoding": "bytes",
        "label": "string",
        "numberOfBytes": "32"
      },
      "t_struct(AddressToUintMap)9624_storage": {
        "encoding": "inplace",
        "label": "struct EnumerableMap.AddressToUintMap",
        "members": [
          {
            "astId": 9623,
            "contract": "contracts/LaunchToken.sol:LaunchToken",
            "label": "_inner",
            "offset": 0,
            "slot": "0",
            "type": "t_struct(Bytes32ToBytes32Map)8966_storage"
          }
        ],
        "numberOfBytes": "96"
      },
      "t_struct(Bytes32Set)10264_storage": {
        "encoding": "inplace",
        "label": "struct EnumerableSet.Bytes32Set",
        "members": [
          {
            "astId": 10263,
            "contract": "contracts/LaunchToken.sol:LaunchToken",
            "label": "_inner",
            "offset": 0,
            "slot": "0",
            "type": "t_struct(Set)10070_storage"
          }
        ],
        "numberOfBytes": "64"
      },
      "t_struct(Bytes32ToBytes32Map)8966_storage": {
        "encoding": "inplace",
        "label": "struct EnumerableMap.Bytes32ToBytes32Map",
        "members": [
          {
            "astId": 8961,
            "contract": "contracts/LaunchToken.sol:LaunchToken",
            "label": "_keys",
            "offset": 0,
            "slot": "0",
            "type": "t_struct(Bytes32Set)10264_storage"
          },
          {
            "astId": 8965,
            "contract": "contracts/LaunchToken.sol:LaunchToken",
            "label": "_values",
            "offset": 0,
            "slot": "2",
            "type": "t_mapping(t_bytes32,t_bytes32)"
          }
        ],
        "numberOfBytes": "96"
      },
      "t_struct(Set)10070_storage": {
        "encoding": "inplace",
        "label": "struct EnumerableSet.Set",
        "members": [
          {
            "astId": 10065,
            "contract": "contracts/LaunchToken.sol:LaunchToken",
            "label": "_values",
            "offset": 0,
            "slot": "0",
            "type": "t_array(t_bytes32)dyn_storage"
          },
          {
            "astId": 10069,
            "contract": "contracts/LaunchToken.sol:LaunchToken",
            "label": "_positions",
            "offset": 0,
            "slot": "1",
            "type": "t_mapping(t_bytes32,t_uint256)"
          }
        ],
        "numberOfBytes": "64"
      },
      "t_uint256": {
        "encoding": "inplace",
        "label": "uint256",
        "numberOfBytes": "32"
      },
      "t_uint32": {
        "encoding": "inplace",
        "label": "uint32",
        "numberOfBytes": "4"
      }
    }
  }
}